:100000000C9410030C9441030C9441030C94410391
:100010000C9441030C9441030C9441030C94410350
:100020000C9441030C9441030C9441030C94410340
:100030000C9441030C9441030C9441030C94410330
:100040000C9441030C9467290C9441030C944103D4
:100050000C9441030C9441030C9441030C94052728
:100060000C9441030C9479270C944F270C94410372
:100070000C9441030C9441030C9441030C944103F0
:100080000C9439290C9441030C9441030C944103C2
:100090000C9441030C9441030C9441030C94BD2730
:1000A0000C9441030C9441030C940B290C944103D0
:1000B0000C9441030C9441030C9441030C94DD28EF
:1000C0000C9441030C9441030C9441030C944103A0
:1000D0000C9441030C9441030C9441030C94410390
:1000E0000C9441030C941B050C944C090C942604AD
:1000F0000C942D090C94A81C0C94F0110C94CB0FAB
:100100000C94B4100C9462050C9476090C940F04B2
:100110000C943F050C9481250C94F8030C942A1739
:100120000C94BE190C94A5190C94EC030C94D107F3
:100130000C94C0130C941F240C946C050C94C905EA
:100140000C94B1060C94FA040C9479190C9476056D
:100150000C9461090C94DB070C942A060C9453054B
:100160000C94D9070C9464060C94481D0C946823D5
:100170000C94FF210C94A7080C9421040C941904EE
:100180000C94F6050C9491230C94D7070C9413044B
:100190000C94BA230C9491180C94C2130C94D908A3
:1001A0000C9433140C9480050C9401040C945309A2
:1001B0000C94F0250C9495290C945A090C94F6177C
:1001C0000C94A8070C94CD070C94A60E0C941D0457
:1001D0000C9439170C9434240C9449050C94110593
:1001E0000C9492190C941C060C9427250C94E50B86
:1001F0000C9435050C94EF080C9486080C94CF07EA
:100200000C9405060C9462190C9492110C945522CE
:100210000C9452080C949F210C94F4030C948C229F
:100220000C94E6030C9431080C9424110C940F1ACE
:100230000C94F0030C9402050C9425050C94D4182E
:100240000C94FC1C0C9468090C9427040C949405E1
:100250000C94FB030C9487220C9426140C94DE104F
:100260000C942D050C9405040C94D5070C94711472
:100270000C9447140C94D3070C946F090C948A07C0
:100280000C94D1190C948A050C9401270C942B041E
:100290000C9444090C9407050C940B040C940C2446
:1002A0000C945D260C9456070C94A6136E2F6100D7
:1002B0004F4B004F4B004F4B00427574746F6E20D4
:1002C000646F6573206E6F742066697420696E2098
:1002D0004D656D6F7279004F757470757420646F21
:1002E0006573206E6F742066697420696E204D6599
:1002F0006D6F727900375365676D656E7420646F3A
:100300006573206E6F742066697420696E204D6578
:100310006D6F72792100536572766F20646F65731B
:10032000206E6F742066697420696E204D656D6F54
:10033000727921004C434420646F6573206E6F74A2
:100340002066697420696E204D656D6F7279210099
:100350004C434420646F6573206E6F74206669742B
:1003600020696E204D656D6F72792100416E616C60
:100370006F67496E20646F6573206E6F74206669C5
:100380007420696E204D656D6F7279004F757470C1
:1003900075745368696674657220646F6573206E46
:1003A0006F742066697420696E204D656D6F727977
:1003B00000496E7075745368696674657220646F65
:1003C0006573206E6F742066697420696E204D65B8
:1003D0006D6F7279004661696C757265206F6E2071
:1003E00072656164696E6720636F6E666967004558
:1003F0006E636F6465727320646F6573206E6F74D3
:100400002066697420696E204D656D6F7279007E7B
:10041000306D79335B5F707F7B771F0D3D4F4700F9
:1004200000000000000000000000000000000000CC
:100430000000000000000000000000800180257E18
:10044000306D79335B5F707F7B0000000900000036
:10045000777F4E7E4F475F37307C000E00767E6799
:100460007E775B463E000000336D4E137800080037
:100470007D1F0D3D4F477B373038000600151D6747
:1004800073055B0F1C000000276D4E007800004DC7
:10049000465374657070657220646F6573206E6F6B
:1004A000742066697420696E204D656D6F727900E5
:1004B0005374657070657220646F6573206E6F741D
:1004C0002066697420696E204D656D6F7279210018
:1004D000446576696365427566666572204F766528
:1004E00072666C6F7721004C6F6164696E67206380
:1004F0006F6E666967206661696C65640000002143
:1005000000240027002A002D0030003300010100E4
:1005100000040107010A0100002200250028002B29
:10052000002E003100340002010000050108010B1B
:1005300001000020002300260029002C002F00329B
:10054000000001000003010601090105050505077A
:100550000508080808020202020A0A08080404043E
:10056000040101010101010101030303030303036A
:1005700003040707070C0C0C0C0C0C0C0C020202F9
:100580000206060606060606060B0B0B0B0B0B0BEC
:100590000B0102102020080810204010204080028B
:1005A00001020108040201010204081020408080B9
:1005B000402010080402018004020180402010083D
:1005C0000402010804020101020408102040800115
:1005D0000204081020408000000A0B02090C0D0ED6
:1005E00008070304010000000000000000000000F4
:1005F00000000000000000000000000000000000FB
:1006000000000012111000000000000000000000B7
:10061000000000000000000000000000000095291C
:1006200011241FBECFEFD1E2DEBFCDBF00E00CBF73
:1006300013E0A0E0B2E0E4E4FDE600E00BBF02C09E
:1006400007900D92A637B107D9F723E1A6E7B3E0EB
:1006500001C01D92A63CB207E1F713E0C0E1D3E070
:1006600000E006C021970109802FFE010E9414318D
:10067000CF30D10780E00807A9F70E941A2A0C940E
:10068000A0360C940000AC011092B112909181132D
:1006900080918013FA01BF01641B750B2091B11288
:1006A00030813093B112931304C0921302C01092A0
:1006B000B1123081311104C0921721F0CB0108959D
:1006C0003817D1F33196E7CF0F931F93CF93DF9372
:1006D00080917513882309F446C0D0E0C0E08130D2
:1006E00029F482E080937513C5EBD2E180917613F3
:1006F000882341F1209721F4C0917A13D0917B1384
:100700008E01CE010E944303892B29F42196F80122
:1007100080818111F5CFF8018081882309F1C8011A
:100720000E944303F801E80FF91F8081882311F02C
:1007300010823196F0937B13E0937A131093791320
:10074000009378138091781390917913892B59F045
:1007500081E080937613DF91CF911F910F910895DF
:1007600010E000E0EBCF80E0F6CF0E946403882326
:1007700051F081E080937613809377138091781302
:100780009091791308951092771390E080E0089586
:100790008150823108F05AC0E82FF0E08827EC52EF
:1007A000FC4F8F4F0C941431F403F803E603EC0371
:1007B000F0032604FB03010405040B040F041304D7
:1007C00019041D042604210427042B0480918000B1
:1007D0008F77809380000895809180008F7DF9CF7E
:1007E00080918000877FF5CF84B58F7784BD089591
:1007F00084B58F7DFBCF8091B0008F778093B00060
:1008000008958091B0008F7DF9CF809190008F770F
:10081000809390000895809190008F7DF9CF809112
:100820009000877FF5CF8091A0008F778093A00004
:1008300008958091A0008F7DF9CF8091A000877FDF
:10084000F5CF809120018F778093200108958091CA
:1008500020018F7DF9CF80912001877FF5CFCF9345
:10086000DF93282F30E0F901E952FA4F8491F90122
:10087000EF56FA4FD491F901E55BFA4FC491CC23BE
:10088000A1F081110E94C803EC2FF0E0EE0FFF1FD2
:10089000EF5CFA4FA591B491EC91ED2381E090E0EB
:1008A00009F480E0DF91CF91089580E090E0FACFE5
:1008B0001F93CF93DF93282F30E0F901E952FA4FCD
:1008C0008491F901EF56FA4FD491F901E55BFA4FA3
:1008D000C491CC23A9F0162F81110E94C803EC2FDC
:1008E000F0E0EE0FFF1FE95EFA4FA591B4918FB7CC
:1008F000F894EC91111108C0D095DE23DC938FBFE2
:10090000DF91CF911F910895DE2BF8CFCF93DF9326
:1009100090E0FC01EF56FA4F2491855B9A4FFC0161
:1009200084918823C9F090E0880F991FFC01E3505F
:10093000FB4FA591B491FC01E95EFA4FC591D491AA
:1009400061110DC09FB7F8948C91209582238C93F0
:100950008881282328839FBFDF91CF91089562303B
:1009600051F49FB7F8943C91822F809583238C9308
:10097000E8812E2BEFCF8FB7F894EC912E2B2C9390
:100980008FBFEACF1F93CF93DF93182FEB0161E066
:100990000E948604209739F460E0812FDF91CF9187
:1009A0001F910C945804CF3FD10511F461E0F5CFAD
:1009B000E12FF0E0E952FA4FE491E150E23108F022
:1009C000B3C0F0E08827E851FB4F8F4F0C941431EF
:1009D000FA040205070511051B05940525052D05DB
:1009E00035053F054905530562056C0594057605F7
:1009F00080058A0584B5806884BDC7BDDF91CF912D
:100A00001F91089584B5806284BDC8BDF7CF8091E1
:100A10008000806880938000D0938900C093880014
:100A2000EDCF80918000806280938000D0938B0016
:100A3000C0938A00E3CF809180008860809380001B
:100A4000D0938D00C0938C00D9CF8091B000806886
:100A50008093B000C093B300D1CF8091B00080628A
:100A60008093B000C093B400C9CF8091900080689B
:100A700080939000D0939900C0939800BFCF80914D
:100A80009000806280939000D0939B00C0939A0066
:100A9000B5CF80919000886080939000D0939D00A6
:100AA000C0939C00ABCF8091A00080688093A00091
:100AB0008091A0008F7B8093A000D093A900C09369
:100AC000A8009CCF8091A00080628093A000D0936A
:100AD000AB00C093AA0092CF8091A0008860809361
:100AE000A000D093AD00C093AC0088CF80912001CE
:100AF000806880932001D0932901C09328017ECF84
:100B000080912001806280932001D0932B01C093BB
:100B10002A0174CF80912001886080932001D093B6
:100B20002D01C0932C016ACFC038D1050CF03ECF07
:100B300033CF863308F0865320917B00982F98702E
:100B4000277F922B90937B008770806480937C003A
:100B500080917A00806480937A0080917A0086FD8B
:100B6000FCCF809178009091790008952FB7F89488
:100B700060910A0C70910B0C80910C0C90910D0CF3
:100B80002FBF0895DC01ED91FC910190F081E02DE3
:100B90001994AF92BF92CF92DF92EF92FF920F9390
:100BA0001F93CF93DF936C017B018B01040F151F03
:100BB000EB015E01AE18BF08C017D10759F069916B
:100BC000D601ED91FC910190F081E02DC6011995BF
:100BD000892B79F7C501DF91CF911F910F91FF907C
:100BE000EF90DF90CF90BF90AF900895FC01538DB0
:100BF000448D252F30E0842F90E0821B930B5417F7
:100C000010F0CF96089501970895FC01918D828D83
:100C1000981779F0A28DAE0FBF2FB11D5D962C9164
:100C2000828D8F5F60E60E94D230928F822F90E09B
:100C300008958FEF9FEF0895FC01918D828D981795
:100C400031F0828DE80FF11D858D90E008958FEFD2
:100C50009FEF0895FC01918D228D892F90E0805A9D
:100C60009F4F821B910960E670E00E94EC3008956E
:100C70008FEE91E10E942A0621E0892B09F420E001
:100C8000822F0895FC01A48DA80FB92FB11DA35880
:100C9000BF4F2C91848D90E001968F739927848F9C
:100CA000A689B7892C93A089B1898C9183708064BF
:100CB0008C93938D848D981306C00288F389E02D60
:100CC00080818F7D80830895EF92FF920F931F9311
:100CD000CF93DF93EC0181E0888F9B8D8C8D9813EF
:100CE0001AC0E889F989808185FF15C09FB7F894FB
:100CF000EE89FF896083E889F98980818370806447
:100D000080839FBF81E090E0DF91CF911F910F9191
:100D1000FF90EF900895F62E0B8D10E00F5F1F4FA0
:100D20000F731127E02E8C8D8E110CC00FB607FCAF
:100D3000FACFE889F989808185FFF5CFCE010E943D
:100D40004206F1CFEB8DEC0FFD2FF11DE358FF4F65
:100D5000F0829FB7F8940B8FEA89FB8980818062CB
:100D6000CFCFCF93DF93EC01888D8823B9F0AA8988
:100D7000BB89E889F9898C9185FD03C0808186FD56
:100D80000DC00FB607FCF7CF8C9185FFF2CF8081A5
:100D900085FFEDCFCE010E944206E9CFDF91CF91D2
:100DA000089580E090E0892B29F00E943806811197
:100DB0000E94000080E090E0892B49F080E090E004
:100DC000892B29F00E94000081110E94000080E020
:100DD00090E0892B49F080E090E0892B29F00E9477
:100DE000000081110E94000080E090E0892B49F012
:100DF00080E090E0892B29F00E94000081110C9482
:100E0000000008952091310B260F3327331F213224
:100E10003105ECF42091550BFC0190E080E024308A
:100E200069F082E00895A091310B2191AC014F5EF1
:100E3000544FA40FB52FB11D2C930196861798F32C
:100E40008091310B680F6093310B80E0089581E051
:100E5000089508958FEF9FEF08958FEF9FEF089506
:100E600080910A0B90E09195819591090895CF9317
:100E7000DF93CB01EA01642F0E940207CE01DF91CC
:100E8000CF910895CF93DF931F92CDB7DEB76983DB
:100E900061E0CE0101960E94020781E090E00F9090
:100EA000DF91CF91089590E080E00895CF93DF9394
:100EB000FC012381222359F1EC0161E084810E942D
:100EC000860461E08D810E9486048B81843011F05C
:100ED0008830B1F461E08E810E94860461E08F81E8
:100EE0000E9486048FA58F3F91F061E00E948604E6
:100EF0006EA581E068278FA5DF91CF910C945804EF
:100F0000833011F0863071F761E08E81E9CFDF9197
:100F1000CF910895CF93DF93FC0123812223A9F081
:100F2000EC010190F081E02D0480F581E02D60E07E
:100F300019958FA58F3F49F061E00E9486046EA548
:100F40008FA5DF91CF910C945804DF91CF91089534
:100F5000DC01ED91FC911197248135814770552773
:100F600066277727415051096109710947305105BA
:100F70006105710570F4FA018827EE53F84F8F4F21
:100F80000C941431CD07CF07D107D307D507D70766
:100F9000D90761E0CD01F901199465E0FBCF64E068
:100FA000F9CF66E0F7CF62E0F5CF6AE0F3CF68E013
:100FB000F1CF69E0EFCFCF93DF93EC01CB01BA0122
:100FC00026E030E040E050E00E945F306230710582
:100FD0008105910589F16CF4611571058105910513
:100FE000D1F06130710581059105F9F0DF91CF9164
:100FF0000895643071058105910561F124F1653032
:1010000071058105910591F7E881F9810480F581E9
:10101000E02D66E006C0E881F9810480F581E02DCD
:1010200064E0CE01DF91CF911994E881F9810480C9
:10103000F581E02D65E0F5CFE881F9810480F58147
:10104000E02D61E0EECFE881F9810480F581E02DAB
:1010500063E0E7CFE881F9810480F581E02D62E06B
:10106000E0CFDC01ED91FC910480F581E02D43702F
:10107000552766277727423051056105710571F0C4
:10108000433051056105710559F041305105610545
:10109000710511F065E0199466E0FDCF6AE0FBCFC1
:1010A00069E0F9CFCF93DF93EC01CB01BA0123E0E4
:1010B00030E040E050E00E945F3061307105810512
:1010C000910599F06230710581059105A9F0672BB2
:1010D000682B692BC1F4E881F9810480F581E02D4A
:1010E00064E0CE01DF91CF911994E881F981048009
:1010F000F581E02D61E0F5CFE881F9810480F5818B
:10110000E02D62E0EECFDF91CF910895DC01ED910B
:10111000FC910480F581E02D4370552766277727E1
:10112000423051056105710571F04330510561058B
:10113000710559F0413051056105710511F062E00A
:10114000199463E0FDCF61E0FBCF60E0F9CFCF936E
:10115000DF93EC01E881F9810480F581E02D8A813B
:1011600060E0811162E0CE011995E881F981048087
:10117000F581E02D8A8161E0811163E0CE0119954E
:101180008CA59DA58230910538F0880F991F880F96
:10119000991F05970197F1F7E881F9810480F5819E
:1011A000E02D8A8160E0811162E0CE01DF91CF9174
:1011B0001994CF93DF93EC0120E030E0A9016C8912
:1011C0007D898E899F890E94313218162CF4E8A9F6
:1011D000F9A9DF91CF911994EAA9FBA9FACFCF928F
:1011E000DF92EF92FF920F931F93CF93DF93DC0177
:1011F0001396CC91C43039F0C83059F1C33019F08E
:10120000C63049F1C2E08C010C5F1F4FF12CE12C7C
:10121000C62ED12CD1E0F8016481C6010E2C02C08B
:10122000959587950A94E2F780FD6D270F5F1F4F14
:1012300080810E945804BFEFEB1AFB0AEC1658F3AA
:10124000DF91CF911F910F91FF90EF90DF90CF90A2
:101250000895C4E0D8CFC3E0D6CFDC011396EC915B
:101260001397E93008F042C0F0E08827E55CF64FBC
:101270008F4F0C94143144094C0953095A096109E0
:101280007609680976096F09ED91FC911197008440
:10129000F185E02DCD011994ED91FC911197028417
:1012A000F385E02DF7CFED91FC9111970484F5853E
:1012B000E02DF0CFED91FC9111970684F785E02D9C
:1012C000E9CFED91FC9111970088F189E02DE2CFF3
:1012D000ED91FC9111970288F389E02DDBCFED9120
:1012E000FC9111970488F589E02DD4CF08954F9291
:1012F0005F926F927F928F929F92AF92BF92CF92A6
:10130000DF92EF92FF920F931F93CF93DF93EC0145
:10131000C888D988EA88FB888C859D85AE85BF857D
:10132000C81AD90AEA0AFB0A6C897D898E899F89C5
:101330009B01AC010E948B2F4B015C016C8D7D8D5C
:101340008E8D9F8D9B01AC010E941D319B01AC01D4
:10135000C501B4010E9489310E94FB31C114D1043E
:10136000E104F10409F0B1C0623071058105910515
:101370000CF0CBC01CA21DA21EA21FA21C8A1D8A9B
:101380001E8A1F8A1CAA1DAA1EAA1FAADF91CF911E
:101390001F910F91FF90EF90DF90CF90BF90AF9093
:1013A0009F908F907F906F905F904F900895101650
:1013B000110612061306B4F46C157D058E059F0503
:1013C0001CF42A812111A1C09B01AC018827992717
:1013D000DC01821B930BA40BB50B8CAB9DABAEABAE
:1013E000BFAB93C0011511052105310509F48DC06E
:1013F0006C157D058E059F050CF087C08A818823BA
:1014000009F483C030952095109501951F4F2F4FFB
:101410003F4F0CAB1DAB2EAB3FAB77C00115110599
:101420002105310509F471C08824992454018C18D0
:101430009D08AE08BF08681579058A059B050CF064
:1014400064C08A81811161C0DDCFCCACDDACEEAC73
:10145000FFACA7019601C701B6010E941D312B0107
:101460003C01C501B4010E942C2F20E030E040E88F
:1014700050E40E948B2F20E030E040E85FE30E94C0
:101480001D319B01AC01C301B2010E9489319B0156
:10149000AC01C701B6010E941C313B016C01FE0189
:1014A000E05CFF4FE080F180028113819701A80189
:1014B0000E943132181614F473018601C701D80155
:1014C0008CAF9DAFAEAFBFAF3AC00CA91DA92EA97E
:1014D0003FA91C141D041E041F040CF468CF101631
:1014E0001106120613060CF099CF00271127980158
:1014F0000C191D092E093F09601771078207930710
:101500000CF062CF2A8121115FCF8CA89DA8AEA8D4
:10151000BFA881149104A104B10409F096CF88AD4D
:1015200099ADAAADBBAD8CAF9DAFAEAFBFAF81E003
:101530001C141D041E041F040CF080E08A833FEF7E
:10154000831A930AA30AB30A8CAA9DAAAEAABFAAB9
:10155000CCACDDACEEACFFACC701B6010E940232F0
:101560006CA37DA38EA39FA3A701960160E074E204
:1015700084E799E40E9489316C8B7D8B8E8B9F8BE5
:101580002A81211103CF90586C8B7D8B8E8B9F8B82
:10159000FDCEAF92BF92CF92DF92EF92FF920F9368
:1015A0001F93CF93DF936B017A01EC01CA5FD44F95
:1015B00028813CE0389F8001399F100D1124A090B4
:1015C000050BB12C27FF1FC0FB01118210828881FF
:1015D0008F5F888388819801280F311D87FD3A9598
:1015E000F6012A153B051CF488818C30C4F18081FA
:1015F0009181049680349C4908F473C0F60180817F
:101600009181049670C088819801280F311D87FD53
:101610003A952A153B05DCF68881A801480F511D33
:1016200087FD5A95FA01EE0FFF1FE40FF51FEB58E7
:10163000F54F808186FFCBCF8881F801E80FF11D3F
:1016400087FDFA95CF01EE0FFF1FE80FF91FEB584A
:10165000F54F808160E08F730E945804B8CF80817D
:1016600091812881A801420F511D27FD5A959A01A9
:10167000FA01EE0FFF1FE20FF31FEB58F54F218128
:101680003281820F931FF7019183808388819801B3
:10169000280F311D87FD3A95F901EE0FFF1FE20F6C
:1016A000F31FEB58F54F808186FF22C08881080F19
:1016B000111D87FD1A95F801EE0FFF1FE00FF11FB6
:1016C000EB58F54F808161E08F73DF91CF911F91CF
:1016D0000F91FF90EF90DF90CF90BF90AF900C9460
:1016E000580480E49CE9F701918380838FEF88831D
:1016F000DF91CF911F910F91FF90EF90DF90CF90EE
:10170000BF90AF9008958F929F92AF92BF92EF9249
:10171000FF920F931F93CF937C018B01C42F0E94E4
:10172000B605F80180809180A280B380DC01CB01F6
:1017300088199909AA09BB094C2F50E070E060E0B4
:1017400084179507A607B70748F0F70119950E9477
:10175000B605F8016083718382839383CF911F91D3
:101760000F91FF90EF90BF90AF909F908F90089552
:101770002091730A3091740A280F311D81E02D3DAC
:10178000354008F080E00895FC0184818823E1F071
:101790008181811119C081E0818382819381FC0163
:1017A0004089518962897389403659476E4F7F4F0E
:1017B00059F040E659E76EEF7FEFFC01408B518B0B
:1017C000628B738B0C94770908954F925F926F929E
:1017D0007F928F929F92AF92BF92DF92EF92FF9291
:1017E0000F931F93CF93DF93D12C08E810E0B8E557
:1017F000EB2EB2E0FB2EC4EB4C2E512C612C712C45
:1018000080919604D81608F096C0ED2DF0E0EE0F0A
:10181000FF1FEE57FB4FC081D18189899A89AB891F
:10182000BC894D855E856F85788984179507A607E5
:10183000B70709F47AC0481759076A077B070CF005
:1018400076C00197A109B109898B9A8BAB8BBC8BB0
:10185000A989BA89A03282E0B807ACF52B85480186
:10186000821A910827FD9394880C991C880C991C66
:10187000092C000CAA08BB082C85C701821B910902
:1018800027FD93959C01220F331F220F331F032E38
:10189000000C440B550B281939094A095B09A53B73
:1018A000B10514F0A4EBB0E0B7FF02C0B0E0A0E0D7
:1018B0000E948930A30192010E945F30820E931E24
:1018C000A41EB51ED401EA85E03378F52B85C80146
:1018D000821B910927FD93959C01220F331F220F34
:1018E000331FA217B3077CF02C85C701821B910917
:1018F00027FD93959C01220F331F220F331FA21740
:10190000B3070CF49D0122503109220F331F4FB74A
:10191000F8948E2F90E0FC01EE0FFF1FE80FF91FE7
:10192000EB58F54F328321834FBFD39469CF019693
:10193000A11DB11D89CFDF91CF911F910F91FF9014
:10194000EF90DF90BF90AF909F908F907F906F90BF
:101950005F904F900895EF92FF921F93CF93DF9384
:10196000EC01162F8C8180FF10C0603170F46D8304
:101970007E0184E0E80EF11C612F617089910E9464
:1019800058041695EC16FD06B9F7DF91CF911F911B
:10199000FF90EF900895DF92EF92FF920F931F93C5
:1019A000CF93DF937C01D62FD42EC0E00BE410E060
:1019B00060E0F70182810E945804C8010197F1F7A5
:1019C0006D2F661F6627661FF70181810E945804EC
:1019D000C8010197F1F761E0F70182810E94580484
:1019E000C8010197F1F7CF5FDD0FDC12E1CFDF9186
:1019F000CF911F910F91FF90EF90DF9008951F936B
:101A0000CF93DF93EC01162F60E088810E94580489
:101A100044E060E8CE010E94CB0C48E0612FCE018B
:101A20000E94CB0C61E08881DF91CF911F910C94D3
:101A30005804AF92BF92CF92DF92EF92FF920F9332
:101A40001F93CF93DF93EC01162F69017A0160E0B9
:101A500088810E94580443E060EACE010E94CB0CCA
:101A6000612F660F660F46E0CE010E94CB0C10E09E
:101A70009BE4A92EB12C60E08A810E945804C50124
:101A80000197F1F76C2D617089810E945804C5019E
:101A90000197F1F761E08A810E945804C50101971E
:101AA000F1F71F5FF694E794D794C7940113E3CF3F
:101AB00061E08881DF91CF911F910F91FF90EF90AE
:101AC000DF90CF90BF90AF900C9458040F93FC011F
:101AD000E60FF11D23A130E050E040E0660F08E082
:101AE0000E94190D0F9108959C014D3008F04BE0B4
:101AF000D901A60FB11D93969C9193979170E42FF5
:101B0000F0E0E457FD4F8081982B93969C93C90198
:101B10000C94660DCF92DF92EF92FF920F931F937A
:101B2000CF93DF938C01EB01683E734010F0C7EE5A
:101B3000D3E08AE0E82EF12CCE01B7010E94EC3010
:101B40006B01482F62E0C8010E94740DC601B70105
:101B50000E94EC30482F61E0C8010E94740DCE0154
:101B600064E670E00E94EC30462F60E0C801DF912F
:101B7000CF911F910F91FF90EF90DF90CF900C9439
:101B8000740D0F93FC01E60FF11D23A130E050E02E
:101B900040E0660F08E00E94190D0F9108959C0126
:101BA000DC01A60FB11D93969C91939790714E30D6
:101BB00008F04DE0E42FF0E0E258FD4F8081982BD3
:101BC00093969C93C9010C94C10DCF93DF93EC01C4
:101BD0008DA18F7E90E1699FB0011124682B6DA3C8
:101BE0008CA180618CA361E0CE010E94C10D60E0F8
:101BF000CE010E94010E62E0CE01DF91CF910C94E4
:101C0000C10DCF93DF93EC018EA18F7E90E1699F90
:101C1000B0011124682B6EA38CA18F7E8CA361E090
:101C2000CE010E94C10D60E0CE010E94E50D63E08F
:101C3000CE01DF91CF910C94C10DCF92DF92EF9244
:101C4000FF920F931F93CF93DF93EC018B016031D1
:101C5000774210F00FE017E28AE0E82EF12CC8017D
:101C6000B7010E94EC306B01482F63E0CE010E9467
:101C7000CF0DC601B7010E94EC30482F62E0CE01C3
:101C80000E94CF0DC80164E670E00E94EC30CB01E9
:101C9000B7010E94EC30482F61E0CE010E94CF0DC9
:101CA000C80168EE73E00E94EC30462F60E0CE0180
:101CB0000E94CF0D61E0CE01DF91CF911F910F9176
:101CC000FF90EF90DF90CF900C94010ECF93DF93B5
:101CD000EC0161E089810E94860461E08A810E94B2
:101CE000860461E088810E94860461E088810E9408
:101CF000580461E08A810E94580461E089810E9451
:101D00005804FE013396A3961192EC17FD07E1F7F4
:101D1000DF91CF910895E0916304F09164043097CE
:101D200029F0DC014D915C9181E0199408954111F5
:101D30000BC0E0916304F0916404309729F0DC015A
:101D40004D915C9180E019940C948B0E4F925F92B0
:101D50006F927F928F929F92AF92BF92CF92DF92BB
:101D6000FF920F931F93CF93DF93F12C809159042F
:101D7000F81608F0EEC0EF2DF0E0EE0FFF1FEF5C5D
:101D8000FB4FC081D1818A81882309F4B3C0888147
:101D90000E942F048C0189810E942F046C010E94F3
:101DA000B6054B015C0181E090E0CD2811F090E098
:101DB00080E0880F991F21E0012B09F020E0922F8D
:101DC000982B4B8D5C8D6D8D7E8D95018401041B50
:101DD000150B260B370BB901A801453651056105D6
:101DE000710508F489C08885823008F485C08B8E1F
:101DF0009C8EAD8EBE8E81508887EE859E1709F42D
:101E000045C0888503E310E0873010F401E010E05E
:101E10006D8524E0E202F0011124492F092E000C07
:101E2000550BE42BF52BE259FD4F708170039001A7
:101E3000719F300D1124062E02C0220F331F0A9409
:101E4000E2F7EF85F8892E0F3F1F388B2F874C0F55
:101E50005D1FFA0141854423C1F04B885C886D8881
:101E60007E884F8A588E698E7A8E8B8A9C8AAD8A3C
:101E7000BE8A02C0359527956A95E2F73A8B298B81
:101E80008C3008F08BE08F5F88879E8709891A89DC
:101E90008D819E810817190769F19801281B390B5C
:101EA000C901E0912F04F09130046901CC0CDD1CD4
:101EB000309709F44BC04B815C812F5C3F4F233638
:101EC0003105E0F597FD30C0688180E01995C00EBE
:101ED000D11E31E4C3163FE1D30654F08F859889B3
:101EE00083709927988B8F871A8A198A10E000E0EF
:101EF0001E830D83F3943ACF4F89588D698D7A8D67
:101F000095018401041B150B260B370BB901A801A1
:101F1000453F51406105710508F46FCF8B8E9C8E53
:101F2000AD8EBE8E188669CF698182E01995C80191
:101F30008C199D09803C904E8CF2DACF97FD03C03E
:101F4000688181E0C3CF698183E0F0CF37FDEFCFB7
:101F5000BECFDF91CF911F910F91FF90DF90CF9077
:101F6000BF90AF909F908F907F906F905F904F90B9
:101F70000895DC01842F20912D0430912E04232B11
:101F800049F0E0912B04F0912C04309719F04D9119
:101F90005C91199408955F926F927F928F929F92B5
:101FA000AF92BF92CF92DF92EF92FF920F931F9367
:101FB000CF93DF931F92CDB7DEB7912CCC24C3947F
:101FC000D12C80912A04981608F096C0A0902D0478
:101FD000B0902E04A114B10409F487C0E92DF0E0FB
:101FE000EE0FFF1FEA5DFB4F00811181F801838135
:101FF00060E1862E81FF02C058E0852E82FD49C037
:10200000F50185818683F12CE12C8A94682DC50128
:102010000E94AB0CF80182810E942F048983F80191
:1020200082810E942F048983EE0CFF1C298181E0AC
:1020300090E0211102C090E080E0E82AF92A8110A6
:10204000E4CFF5016681C5010E94AB0CF801A480C4
:10205000B580EA14FB0409F448C0838138E0532EAC
:1020600081FD02C020E1522EAE24BF243701812C15
:10207000A0FE06C0462D4170682DC8010E94B90F10
:10208000B694A7947694679483945810F1CFF8018E
:102090002AC0F80182810E942F043C0141E0892B73
:1020A00009F440E0F5018581682D0E94D230692F46
:1020B000760102C0EE0CFF1C9A95E2F7F8018481CC
:1020C00095818E219F2121E0892B09F420E0421780
:1020D00019F0C8010E94B90FF80184819581672821
:1020E00031F0E82AF92AF582E48293946ACFE094E9
:1020F000F094E822F922CBCF0F90DF91CF911F917E
:102100000F91FF90EF90DF90CF90BF90AF909F9096
:102110008F907F906F905F900895DC01E091240490
:10212000F0912504309761F013968C9113978823D2
:1021300039F04D915C91119712966C9181E0199450
:102140000895DC01E0912404F0912504309759F0C2
:1021500013968C911397811106C04D915C91119744
:1021600012966C91199408951F93CF93DF9310E00A
:10217000809123041817F0F4E12FF0E0EE0FFF1F19
:10218000E556FC4FC081D1818A810E942F049B813A
:10219000891751F091E0811101C090E09B8381117A
:1021A00005C0CE010E94A1101F5FE2CFCE010E94A8
:1021B0008D10FACFDF91CF911F9108951F93CF9388
:1021C000DF9310E080919A031817D0F5E12FF0E02B
:1021D000EE0FFF1FE658FC4FC081D181E88DF0E083
:1021E0003396EE0FFF1FEC0FFD1F8E899F89208114
:1021F0003181821B930B9F8B8E8B8A810E94990564
:10220000E88DF0E03396EE0FFF1FEC0FFD1F91837A
:102210008083E88DF0E03396EE0FFF1FEC0FFD1F7B
:102220008E899F8920813181820F931F9F8B8E8B96
:10223000888D8F5F888F888D8770888F1F5FC2CF52
:10224000DF91CF911F910895CF93C0E080919A03C1
:10225000C817B8F5EC2FF0E0EE0FFF1FE658FC4F63
:10226000A081B18156968D919C91579723E09695C8
:1022700087952A95E1F713962D913C911497AC011F
:10228000421B530B9A0157FF03C031952195310929
:1022900015964C9115974217130609F084F414967D
:1022A0009C938E931397E0917803F0917903309784
:1022B00031F04D915C91119712966C911995CF5F09
:1022C000C5CFCF9108950E94B6056093CE0B709351
:1022D000CF0B8093D00B9093D10B0895FF920F9367
:1022E0001F93CF93DF93F82E062FC7E0D0E010E0C6
:1022F00061E0802F0E9458048F2D0E942F040C2E25
:1023000001C0880F0A94EAF7182B60E0802F0E9422
:102310005804219768F7812FDF91CF911F910F917A
:10232000FF9008959F92AF92BF92CF92DF92EF926B
:10233000FF920F931F93CF93DF9300E0809162048D
:10234000081708F041C0E02FF0E0EE0FFF1FE65A3B
:10235000FB4FC081D18161E08B810E94580461E014
:102360008A810E94580410E08D81181738F56B811E
:102370008C810E946E11C82E5E01A10EB11CF50168
:10238000D7808D15C9F0912E990C990C990CE82ED7
:10239000F12C8D2D8E2580FF07C04E2D4170692DAB
:1023A0006F0DCE010E94970ED694E694F394F8E058
:1023B000FF12EFCFF501C7821F5FD6CF60E08A81A1
:1023C0000E9458040F5FBACFDF91CF911F910F91F8
:1023D000FF90EF90DF90CF90BF90AF909F900895C7
:1023E0007F928F929F92AF92BF92CF92DF92EF92A5
:1023F000FF920F931F93CF93DF93C0E0809123044C
:10240000C81760F4EC2FF0E0EE0FFF1FE556FC4F0D
:10241000808191810E948D10CF5FF0CFC0E08091CC
:102420002304C81760F4EC2FF0E0EE0FFF1FE55611
:10243000FC4F808191810E94A110CF5FF0CF10E00E
:1024400080916204181708F071C0E12FF0E0EE0FE0
:10245000FF1FE65AFB4FC081D18161E08B810E9452
:10246000580461E08A810E9458047E0187E0E80EEA
:10247000F11C5701D12CC12C8D818C151D0461F0EC
:102480005CF06B818C810E946E11F50181935F017C
:10249000FFEFCF1ADF0AF0CF60E08A810E94580474
:1024A0004701712CD12CC12C8D818C151D04D1F0CC
:1024B000CCF0F40181914F0100E0A82EB12C80FFF7
:1024C00005C0672D600FCE010E948B0EB594A794B6
:1024D0008A2D0F5F083089F7FFEFCF1ADF0A88E0F7
:1024E000780EE2CFD12C912C812C8D818815190486
:1024F000D9F0D4F0F70181917F0100E0A82EB12C32
:1025000080FD06C040E06D2D600FCE010E94970E49
:10251000B594A7948A2D0F5F083081F7FFEF8F1ACB
:102520009F0A88E0D80EE1CF1F5F8ACFDF91CF915D
:102530001F910F91FF90EF90DF90CF90BF90AF90E1
:102540009F908F907F900C9463110F931F93CF9364
:10255000DF93082F162FD42FC8E06D2F661F662734
:10256000661F802F0E945804DD0F61E0812F0E94BA
:10257000580460E0812F0E945804C15071F7DF9128
:10258000CF911F910F910895EF92FF920F931F9398
:10259000CF93DF931F921F92CDB7DEB78C01498393
:1025A0002A83660F771FF801E688F788EE0CFF1C78
:1025B000CF01801B910B8E159F0514F41192F8CF5B
:1025C0008981F801E60FF71F81838A81808360E0AB
:1025D000F80184890E9458041E141F046CF4F1E071
:1025E000EF1AF108F801EE0DFF1D4081F801628934
:1025F00080890E94A512F0CF61E0F80184890F90D4
:102600000F90DF91CF911F910F91FF90EF900C945D
:10261000580477FD0DC0FC012689378962177307BE
:102620003CF420E0411101C021E04CE00C94C412C4
:102630000895FF920F931F93CF93DF93F82EC0E07E
:1026400080917904C817B8F4EC2FF0E0EE0FFF1F6B
:10265000E658FB4F00811181D0E0F801808D8D1785
:1026600041F06D2F70E04F2DC8010E940913DF5F0C
:10267000F4CFCF5FE5CFDF91CF911F910F91FF9006
:1026800008950F931F93CF93DF93FC01208D222396
:10269000F9F06217E8F4062F10E04423B1F0EC01E2
:1026A00086899789081719073CF42FEF240F4AE011
:1026B000B801CF010E94C41240E0B801CE01DF9101
:1026C000CF911F910F910C94091341E0B801F7CFFE
:1026D000DF91CF911F910F910895FF920F931F9358
:1026E000CF93DF93EC0160E088810E945804FB8067
:1026F0000F2D10E00C5F1F4F0C0F1D1FFF2049F026
:10270000F80142918F0169818A810E94A512FA9491
:10271000F5CF61E08881DF91CF911F910F91FF90FC
:102720000C9458040E946403882359F081E080933C
:1027300076138093771380917813909179130C948A
:10274000982E1092771390E080E008951F93CF9316
:10275000DF930E949213EC010E949213182F0E94A3
:102760009213CC0FDD1FC658DB4F482F612F888195
:1027700099810E944113DF91CF911F910C946311B5
:102780000C94A6137F928F929F92AF92BF92CF929A
:10279000DF92EF92FF920F931F93CF93DF930E94EC
:1027A0009213EC010E9492138C010E94B5034C011C
:1027B0000E9492135C010E949213CC0FDD1FC65839
:1027C000DB4FE880F980F701208D222381F1C7E0FB
:1027D000D0E0712C6C01DD241127BB244C2F4F5FFE
:1027E00096010C2E02C0359527950A94E2F720FF3A
:1027F0001CC0F7012689378902171307ACF4F401CE
:10280000E70DF11DE081F0E0E15FFB4F2491B501A0
:102810000C2E02C0759567950A94E2F760FD20685A
:10282000B801C7010E94C41273942197B8F6DF91D2
:10283000CF911F910F91FF90EF90DF90CF90BF90BD
:10284000AF909F908F907F900C946311CF930E94D4
:102850009213C82F0E949213BC018C2F0E94C204B5
:10286000CF910C9463110E9492132091E80B2817CA
:10287000190661F05CF0880F991FFC01EC52F44FCF
:10288000808191810E94C40B0C94631108950E9471
:1028900092132091E80B2817190611F10CF1880FFB
:1028A000991FFC01EC52F44F0190F081E02D028061
:1028B000F381E02D1486158616861786108A118AF4
:1028C000128A138A14AA15AA16AA17AA14A215A264
:1028D00016A217A2148A158A168A178A0C946311F5
:1028E00008958F929F92AF92BF92CF92DF92EF9214
:1028F000FF921F93CF93DF930E949213EC010E94EB
:102900009213BC01809196048C171D0609F00CF4FB
:10291000DCC0CC0FDD1FCE57DB4F0990D881C02D16
:10292000CD80DE800D2C000CEE08FF0889809A8097
:10293000092C000CAA08BB082F813885032E000C37
:10294000440B550B2C193D094E095F09072E000C4D
:10295000880B990B681979098A099B090E94C23072
:102960002B813C81032E000C440B550B281939098F
:102970004A095B090E945F30BA01A9014C0D5D1D37
:102980006E1D7F1D052E000C660B770B8D859E85B9
:10299000AF85B88984179507A607B70709F45CC007
:1029A0004D875E876F87788B8985811155C08A85B1
:1029B000803308F04FC0188161E0812F0E948604A7
:1029C0008A85282F30E0F901EE0FFF1FE20FF31F79
:1029D000EB58F54F1F739081907C912B90831B8651
:1029E0001C862CE0622F0E94D230829FB0011124FD
:1029F00030E020E0AB01420F531FFA01EE0FFF1F42
:102A0000E40FF51FEB58F54F908196FD16C02F5F30
:102A10003F4F2C30310571F7813059F5109280000D
:102A200082E0809381001092850010928400B19A18
:102A300080916F00826080936F00EA858E2F90E016
:102A4000FC01EE0FFF1FE80FF91FEB58F54F8081D7
:102A50008064808381E08987DF91CF911F91FF900F
:102A6000EF90DF90CF90BF90AF909F908F900C949D
:102A70006311823061F41092900080939100109263
:102A800095001092940088BB80937100D6CF83305C
:102A900069F41092A00082E08093A1001092A5003A
:102AA0001092A40089BB80937200C7CF8111C5CF5B
:102AB0001092200182E08093210110922501109252
:102AC00024018ABB80937300B8CFDF91CF911F910F
:102AD000FF90EF90DF90CF90BF90AF909F908F903E
:102AE00008952091ED113091EE118217930710F4A3
:102AF0000C94493080E008950F931F93CF93DF9398
:102B00008C01EB01F801808191819C012F5F3F4F87
:102B1000318320830E94711528813981A9014F5F7B
:102B20005F4F59834883225F334FF90180832881A7
:102B30003981283EF3E03F0760F48A3319F7235FB9
:102B4000334FF901108281E0DF91CF911F910F91F6
:102B5000089580E0F9CFEF92FF920F931F93CF93E8
:102B6000DF93EC01E090ED11F090EE1188819981F6
:102B70008C010F5F1F4F198308830E947115E016A7
:102B8000F10650F08A3391F781E0DF91CF911F91E8
:102B90000F91FF90EF90089580E0F7CFAF92BF9232
:102BA000CF92DF92EF92FF920F931F93CF93DF9319
:102BB00000D01F92CDB7DEB75C0119821A821B824A
:102BC0001C82CE0101967C0110E000E06C01F50151
:102BD000808191819C012F5F3F4F318320830E9430
:102BE0007115F7018083F8018E3241F00F5F1F4F9E
:102BF0008FEFE81AF80A0430110549F7EC0DFD1DB6
:102C00001082C6010E94982E0F900F900F900F9087
:102C1000DF91CF911F910F91FF90EF90DF90CF90B8
:102C2000BF90AF900895DF92EF92FF920F931F93A2
:102C3000CF93DF938C019C01240F351F8091ED1100
:102C40009091EE1182179307E0F0EB017B01E40E07
:102C5000F51ED990C8010E944930D81621F06D2D7B
:102C6000C8010E9451300F5F1F4FEC16FD0689F717
:102C700081E0DF91CF911F910F91FF90EF90DF9056
:102C8000089580E0F6CFFB0101900020E9F731972D
:102C9000AF01461B570BDC01ED91FC910280F381E3
:102CA000E02D19948091AC128823A1F060917F13DC
:102CB00080917D1390917E130E94C2058091B41281
:102CC000882341F065EC72E080917D1390917E1332
:102CD0000E9443161092B3121092AC1280E0089535
:102CE0008F929F92AF92BF92EF92FF920F931F939A
:102CF000CF93DF93CDB7DEB7A1970FB6F894DEBFC1
:102D00000FBECDBF7C01FA01CB0119A2223008F41D
:102D10002AE08E010F5D1F4F822E912CB12CA12C29
:102D2000BF01A50194010E949130F901CA016A30E6
:102D30000CF5605DD8016E938D01232B242B252B80
:102D400079F790E080E0109721F0BD01C7010E9463
:102D50004316A1960FB6F894DEBF0FBECDBFDF912C
:102D6000CF911F910F91FF90EF90BF90AF909F90E8
:102D70008F900895695CDECFCF939091AC12992328
:102D8000A9F0C82F6091801380917D1390917E13DC
:102D90000E94C2054C2F50E070E060E02AE0809174
:102DA0007D1390917E13CF910C947016CF9108955E
:102DB0009091AC12911110C091E09093AC1290934D
:102DC000B312482F50E070E060E02AE080917D135C
:102DD00090917E130C9470160895EF92FF920F93CA
:102DE0001F93CF93DF939091AC1291112BC08B0165
:102DF0000E94D8168091AC128823E1F06091801374
:102E000080917D1390917E130E94C205E0907D1306
:102E1000F0907E13E801FE016491662359F0D7011A
:102E2000ED91FC910190F081E02DC701199521965B
:102E3000892B89F7DF91CF911F910F91FF90EF9030
:102E40000C94521680E0DF91CF911F910F91FF906B
:102E5000EF9008950E94B6056093CE0B7093CF0B50
:102E60008093D00B9093D10B6CEA72E085E00C94C8
:102E7000ED161F93CF93DF93109223041092590401
:102E80001092CD0B90917904EAE7F4E080E0981776
:102E900031F0A191B19158961C928F5FF8CF1092AA
:102EA000790430919604C2E8D4E020E03217D1F0E2
:102EB000A991B99119968C911997882389F01A963E
:102EC000EC911A978E2F90E0FC01EE0FFF1FE80F98
:102ED000F91FEB58F54F80818F7B808319961C92E8
:102EE0002F5FE4CF109296049091E80BE4EDFBE0A5
:102EF00080E0981729F0A191B1911C928F5FF9CFD2
:102F00001092E80B2091760330E0A5E6B4E0CBE622
:102F1000D4E090E080E08217930784F4E991F9917E
:102F2000309719F044A9411114AAED91FD91309701
:102F300019F043A9411113AA0196EDCF109276031F
:102F400010929A0390917703E1E7F4E080E09817FC
:102F500059F0A191B19118962C911897222311F054
:102F600018961C928F5FF3CF1092770390916204B2
:102F7000EAE5F4E080E0981759F0A191B191169636
:102F80002C911697222311F016961C928F5FF3CF87
:102F90001092620410E0E0912A041E1798F4F0E009
:102FA000EE0FFF1FEA5DFB4FC081D1818B8180FF57
:102FB00007C062E08A810E9486048B818E7F8B83AA
:102FC0001F5FE9CF10922A0410927C0B10927B0BAA
:102FD0001092D30B1092740A1092730A60EB72E095
:102FE00085E0DF91CF911F910C94ED1663EB72E0B9
:102FF0008FE00C94ED162091730A3091740A820FC1
:10300000932F911D9093740A8093730A8C3D954081
:1030100040F060ED74E085E00E94ED1690E080E005
:103020000895C90189569B4F0895CF92DF92EF9280
:10303000FF920F931F93CF93DF9390915904943194
:1030400009F45EC07901142FC62ED82E8FE10E949C
:10305000B80B81110DC06FEE73E085E0DF91CF9169
:103060001F910F91FF90EF90DF90CF900C94ED1691
:103070008FE10E94FB17EC01892B09F01A82009165
:103080005904E02FF0E0EE0FFF1FEF5CFB4FD18300
:10309000C0831E821D82FC82EB82D882C98285E0B9
:1030A000819FF0011124EB5AFD4FDE01199601902A
:1030B0000D928A95E1F762E08D2D0E94860462E010
:1030C00089810E9486041E86188A1F861A8A198A98
:1030D00018861F8A188E198E1A8E84EF91E0A0E050
:1030E000B0E08B8B9C8BAD8BBE8B81E08A8382E9B9
:1030F00099E19093300480932F040F5F009359045B
:10310000DF91CF911F910F91FF90EF90DF90CF90C3
:10311000089581E08093D30B66EB72E081E10C941B
:10312000ED16CF93DF930E9463118AE00E94D816B8
:1031300080917B0B90917C0B892B91F18BE390E03C
:103140000E947115C82F8091AC12882379F060918C
:10315000801380917D1390917E130E94C2056C2F85
:1031600080917D1390917E130E94C205C1E0D0E052
:1031700080917B0B90917C0BC817D90788F4CE0106
:10318000CB960E9471159091AC12992339F0682F5B
:1031900080917D1390917E130E94C2052196E8CF05
:1031A000DF91CF910C945216CF93DF930E9463115D
:1031B0000E94B503BC01EC0109900020E9F72197BA
:1031C000C81BD90BDD2780917B0B90917C0B9C0158
:1031D0002F5F3F4F2C0F3D1F283D354088F5AE0136
:1031E0004F5F5F4FCB960E94131640917B0B50911F
:1031F0007C0BC40FD51FD0937C0BC0937B0B8091AD
:10320000AC1281113FC085E00E94D8168091AC12AB
:10321000882391F06091801380917D1390917E13AB
:103220000E94C205AE0170E060E02AE080917D134B
:1032300090917E130E947016DF91CF910C945216DC
:103240008091AC1281111EC085E00E94D816809139
:10325000AC12882389F36091801380917D13909143
:103260007E130E94C205C0917D13D0917E136DE242
:10327000CE010E94C2052AE041E050E060E070E02B
:10328000CE01D8CFDF91CF910895CF93DF932091D6
:10329000AC122223A1F0EC016091801380917D1388
:1032A00090917E130E94C205209749F0BE01809143
:1032B0007D1390917E13DF91CF910C944316DF9193
:1032C000CF9108950E9463118AE00E94D81685E488
:1032D00092E00E9445198BE092E00E94451980E03F
:1032E00092E00E94451988EC92E00E9445190C94E6
:1032F00052160F931F93CF93DF93C82FD62F8A01B7
:103300008DE10E94D816C8010E9445198D2F0E9498
:10331000BC168C2F0E94BC16DF91CF911F910F918C
:103320000C9452160F931F93CF93C82F8A0186E0F7
:103330000E94D816C8010E9445198C2F0E94BC1605
:10334000CF911F910F910C9452160F931F93CF930F
:10335000DF93C82FD62F8A018EE10E94D816C801AC
:103360000E9445198D2F0E94BC168C2F0E94BC16FE
:10337000DF91CF911F910F910C9452160F931F93D1
:10338000CF93C82F8A0187E00E94D816C8010E94F7
:1033900045198C2F0E94BC16CF911F910F910C9450
:1033A0005216CF92DF92EF92FF92CF93DF936C0190
:1033B000EA018CE10E94D816CE010E944519809145
:1033C000AC12882321F16091801380917D1390913C
:1033D0007E130E94C205C0917D13D0917E130D2CE7
:1033E000000CEE08FF082AE0B701A601F7FE0CC0AA
:1033F0006DE2CE010E94C20544275527BA014C193F
:103400005D096E097F092AE0CE010E947016DF91E6
:10341000CF91FF90EF90DF90CF900C945216CF9306
:10342000DF931F921F92CDB7DEB70E94B503FC0158
:1034300090E3ABE0B2E001900D929A95E1F783E260
:1034400090E09A83898341E050E0BE016F5F7F4F37
:1034500090E080E00E9413164FE250E06BE072E0D3
:1034600081E090E00E9413168091AC12811109C096
:1034700085E00E94D8168BE092E00E9445190E94D8
:1034800052160F900F90DF91CF9108951F93CF9315
:10349000DF9385ED8093BC0080910D0B90910E0B16
:1034A000A0910F0BB091100B0796A11DB11D23E049
:1034B000B695A795979587952A95D1F72091BC0049
:1034C00024FD03C01092550B52C040910D0B50913A
:1034D0000E0B60910F0B7091100B452B462B472B59
:1034E00069F30097A105B10541F025E32A95F1F7AD
:1034F00000000197A109B109E1CF80910C0BC1E057
:10350000C0930B0B882399F1D091B8001091BA00A9
:103510008091BC008A7B8093BC0060E084E10E94C3
:10352000580460E085E10E9458041092550BC09346
:10353000570B1092560B61E084E10E94580461E041
:1035400085E10E9458048091B9008E7F8093B90074
:103550008091B9008D7F8093B90088E48093B80092
:1035600085E48093BC001093BA00D093B800DF913B
:10357000CF911F9108954F925F926F927F928F9299
:103580009F92AF92BF92CF92DF92EF92FF92CF9332
:10359000DF93EC016A017B0120E030E0A901CB015F
:1035A000B6010E94252F87FF04C0F7FAF094F7F8C0
:1035B000F0948C8C9D8CAE8CBF8CA7019601C501BC
:1035C000B4010E94252F882309F449C06CA97DA964
:1035D0008EA99FA90E942C2F2B013C01A7019601C7
:1035E000C501B4010E9489319B01AC01C301B20144
:1035F0000E948B2F0E94FB316CAB7DAB8EAB9FABDF
:10360000A701960160E070E080E090E40E948931BB
:103610000E943C3226E53EE04DE25FE30E948B2FA4
:1036200020E034E244E759E40E948B2F68AF79AF81
:103630008AAF9BAFCC8EDD8EEE8EFF8ECE01DF91FA
:10364000CF91FF90EF90DF90CF90BF90AF909F9081
:103650008F907F906F905F904F900C947709DF91DF
:10366000CF91FF90EF90DF90CF90BF90AF909F9061
:103670008F907F906F905F904F9008958F929F9260
:10368000AF92BF92CF92DF92EF92FF920F931F9370
:10369000CF93DF939091E80B9A3009F49DC0C22E2E
:1036A000D42EA62EB82E8AE00E94B80B811111C02C
:1036B00060EB74E085E0DF91CF911F910F91FF9057
:1036C000EF90DF90CF90BF90AF909F908F900C9431
:1036D000ED168AE00E94FB177C01009711F0FC01B7
:1036E0001082E091E80BF0E0EE0FFF1FEC52F44F78
:1036F000F182E08284E40E94B80B81117AC06FE805
:1037000074E085E00E94ED16F090E80BEF2DF0E0FC
:10371000EE0FFF1FEC52F44FC080D180F601C28142
:10372000D38120E030E048EC53E4688D798D8A8DB8
:103730009B8D0E94252F8823E9F180E090E0A8EC82
:10374000B3E4888F998FAA8FBB8F80E090E4ACE1BF
:10375000B5E4FE01E05CFF4F80839183A283B383D5
:103760008CA99DA9AEA9BFA9181619061A061B0691
:103770000CF56C897D898E899F899B01AC010E9423
:103780008B2F4B015C016C8D7D8D8E8D9F8D9B01F0
:10379000AC010E941D319B01AC01C501B4010E9426
:1037A00089310E94FB316CAB7DAB8EAB9FABCE0100
:1037B0000E94770940E050E068E474E4F6018281F9
:1037C00093810E94BB1A101611061CF4C6010E94B8
:1037D000C40BF394F092E80BDF91CF911F910F91FE
:1037E000FF90EF90DF90CF90BF90AF909F908F9021
:1037F000089584E4CA1072C0DB1070C00E94FB17E9
:10380000EC01892B09F459C08DE992E099838883F2
:1038100081E08B831C861D861E861F86188A198A66
:103820001A8A1B8A1C8A1D8A1E8A1F8A80E090E0E1
:10383000A0E8BFE3888F998FAA8FBB8F1C8E1D8E47
:103840001E8E1F8E88A399A3AAA3BBA31CA21DA290
:103850001EA21FA221E030E03DA72CA72FEF2FA72B
:1038600018A619A61AA61BA6DC82CD8224E02E83F8
:1038700025E02F831EA61CAA1DAA1EAA1FAA18AEE9
:1038800019AE1AAE1BAE1CAE1DAE1EAE1FAEFE01B3
:10389000E05CFF4F80839183A283B3831A821886F2
:1038A00019861A861B86CE010E94560740E050E01A
:1038B00060E87FE3CE010E94BB1AF701D383C28385
:1038C000048381E08583002321F062E0802F0E9441
:1038D000860481E0F7018083118216CF0E94FB17D6
:1038E000EC01892B51F38DE992E09983888384E080
:1038F0008B831C861D861E861F86188A198A1A8A43
:103900001B8A1C8A1D8A1E8A1F8A80E090E0A0E81C
:10391000BFE3888F998FAA8FBB8F1C8E1D8E1E8E42
:103920001F8E88A399A3AAA3BBA31CA21DA21EA29B
:103930001FA221E030E03DA72CA72FEF2FA718A64C
:1039400019A61AA61BA6CC82AD82BE82DF8292CFB8
:103950000F931F93CF93DF930E949213EC010E9469
:1039600064038823F1F181E08093761380937713C9
:1039700080917813909179130E94B62E2091E80BD4
:103980002C171D06A1F19CF1CC0FDD1FCC52D44F9A
:10399000E881F981118206811781208531856017C0
:1039A000710782079307B9F06683778380879187D1
:1039B0000280F381E02D0089118922893389601703
:1039C00071078207930739F0608B718B828B938B21
:1039D000CF010E947709DF91CF911F910F910C9435
:1039E00063111092771360E070E0CB01C7CFDF91D5
:1039F000CF911F910F910895FF920F931F93CF9333
:103A0000DF930E949213EC010E94B5038C010E9487
:103A10009213F82ECC0FDD1FCF58DB4F0990D881C1
:103A2000C02D8885882369F16EEC72E0C8010E9480
:103A3000DD2E01E010E0009709F10E94982E988594
:103A4000992391F0982F9770980101C0220F9A95B1
:103A5000EAF7869586958695FE01E80FF11D84812B
:103A6000FF2049F0282B24836EEC72E090E080E088
:103A70000E94DD2EE0CF20952823F5CFCE010E94B5
:103A80006D13DF91CF911F910F91FF900C946311F3
:103A90002F923F924F925F926F927F928F929F925E
:103AA000AF92BF92CF92DF92EF92FF920F931F934C
:103AB000CF93DF9300D01F92CDB7DEB70E94921351
:103AC0000E94B5039A83898380916B0490916C0462
:103AD0009C838B83FC0184A9882309F404C360EDD3
:103AE00072E089819A810E94DD2E8C019AE0292E54
:103AF000312C2AE0822E912CA12CB12C011511051C
:103B000009F4F1C26DE370E0C8010E94B633C12C24
:103B1000D12C7601009749F0FC011192CF010E944F
:103B2000982E6C01990FEE08FF0862ED72E0C80153
:103B30000E94C133892B11F5EB81FC8182A9806839
:103B400082AB6FE0CF010E94660DEB81FC8182A900
:103B50008F7B82AB84A18E7F84A36FE0CF010E9414
:103B6000660DB6018B819C810E948A0D60ED72E02A
:103B700090E080E00E94DD2E8C01C0CF69ED72E004
:103B8000C8010E94C133892B89F4EB81FC8182A991
:103B90008F7782AB6FE0CF010E94660DEB81FC81D5
:103BA00082A9806482AB84A18160D6CF61EE72E08D
:103BB000C8010E94C133892B49F58601F8EECF1662
:103BC000F3E0DF0610F007EE13E0C801B1010E9438
:103BD000EC307B01482F65E08B819C810E94740D45
:103BE000C701B1010E94EC30482F64E08B819C81B9
:103BF0000E94740DC80164E670E00E94EC30462F0C
:103C000063E08B819C810E94740DB0CF68EE72E0FE
:103C1000C8010E94C133892B09F05CC030EAC31689
:103C200036E8D30631E0E306F10438F08FE9C82E18
:103C300086E8D82EEE24E394F12CC701B601A50145
:103C400094010E94913029013A01462F6AE08B814C
:103C50009C810E94740DC301B201A50194010E94D0
:103C60009130462F69E08B819C810E94740DC701C1
:103C7000B60124E630E040E050E00E949130CA01F5
:103C8000B901A50194010E949130462F68E08B8113
:103C90009C810E94740DC701B60128EE33E040E01C
:103CA00050E00E949130CA01B901A50194010E941F
:103CB0009130462F67E08B819C810E94740DC70173
:103CC000B60120E137E240E050E00E949130422FFF
:103CD00066E097CF6FEE72E0C8010E94C133892B76
:103CE00009F053C08601EB81FC8181A990A927A529
:103CF0002E7F9E7F8E7FF0E1CF16F7E2DF06E4F5A0
:103D000031EFC31638EDD30644F0D7FC08C0CD28F8
:103D1000A9F5EB81FC8190AB0AC001EF18ED11957C
:103D200001951109EB81FC8190AB93A9892B81ABA3
:103D300027A74CE06EE08B819C810E94740D4CE0C3
:103D40006DE08B819C810E94740DC80164E670E077
:103D50000E940031CB01B1010E940031482F6CE07C
:103D60008B819C810E94740DC80168EE73E00E94F3
:103D70000031462F6BE045CF0FE017E2EB81FC816D
:103D800033A9932B90AB832BD2CF65EF72E0C801A0
:103D90000E94C133892B09F03FC08C2DEB81FC813F
:103DA00091A920A937A543A98436A4F58D392CF013
:103DB000C7FC04C02E7F242B03C08DE981952E7F84
:103DC000EB81FC8120AB9E7F942B91AB316037A7B8
:103DD0006AE00E94DE30182F492F6CE08B819C81B5
:103DE0000E94740D412F6BE08B819C810E94740DA9
:103DF000EB81FC8180A9817080AB81A9817081AB4E
:103E00006DE0CF010E94660D6EE08B819C810E9467
:103E1000660DACCE83E6CECF6CEF72E0C8010E9497
:103E2000C133892BE9F41BE0C1101AE0412F60E097
:103E30008B819C810E94740D412F61E08B819C815C
:103E40000E94740D412F62E08B819C810E94740D51
:103E5000EB81FC8184A18E7F84A36FE0CF01D7CF5B
:103E600067E073E0C8010E94C133892B91F41BE025
:103E7000C1101AE0412F63E08B819C810E94740D78
:103E8000412F64E08B819C810E94740D412F65E07D
:103E9000B8CE62E173E0C8010E94C133892BF1F40E
:103EA0001BE0C1101AE0412F66E08B819C810E94CB
:103EB000740D412F67E08B819C810E94740D412F0E
:103EC00068E08B819C810E94740D412F69E08B8199
:103ED0009C810E94740D412F6AE093CE6DE173E0E6
:103EE000C8010E94C133892B31F5EB81FC8181A986
:103EF000C11018C08E7F81AB1BE0412F6BE08B811E
:103F00009C810E94740D412F6CE08B819C810E94EA
:103F1000740D412F6DE08B819C810E94740D412FA7
:103F20006EE06FCE8160EB81FC8181AB80A98E7FDA
:103F300080AB1AE0E2CF67E273E0C8010E94C133B0
:103F4000892B71F4EB81FC8186A18E7F91E0C110F9
:103F500001C090E0892BEB81FC8186A363E07ECFDA
:103F600061E373E0C8010E94C133892B71F4EB81D6
:103F7000FC8180A58E7F91E0C11001C090E0892B6B
:103F8000EB81FC8180A765E069CF6BE373E0C8013A
:103F90000E94C133892B71F4EB81FC8186A58E7F51
:103FA00091E0C11001C090E0892BEB81FC8186A7D4
:103FB0006BE054CF65E473E0C8010E94C133892BE4
:103FC00009F0D4CDEB81FC8192A99F7D84A58E7FE1
:103FD000C11044C0906292AB816084A76FE0CF01B2
:103FE0000E94660D69E08B819C810E94660DEB81C9
:103FF000FC8182A98F7E82AB83A58E7F83A76FE031
:10400000CF010E94660D68E08B819C810E94660D45
:10401000EB81FC8182A9846082AB82A5816082A74A
:104020006FE0CF010E94660D67E08B819C810E944A
:10403000660DEB81FC8182A9877F82AB81A58E7F93
:1040400081A76FE0CF010E94660D66E08B819C81A5
:104050000E94660DEB81FC8110AE88CDEB81FC8166
:1040600092AB84A76FE0CF010E94660D69E08B815F
:104070009C810E94660DEB81FC8182A9806182ABEC
:1040800083A5816083A76FE0CF010E94660D68E081
:104090008B819C810E94660DEB81FC8182A98B7FC4
:1040A00082AB82A58E7F82A76FE0CF010E94660D52
:1040B00067E08B819C810E94660DEB81FC8182A967
:1040C000886082AB81A5816081A76FE0CF010E94EB
:1040D000660D66E08B819C810E94660D31E0EB816C
:1040E000FC8130AF43CD80916704909168049C833C
:1040F0008B83FC0183A9882309F476C060ED72E00C
:1041000089819A810E94DD2E8C01009709F46CC090
:104110006DE370E00E94B633C12CD12C760100977C
:1041200049F0FC011192CF010E94982E6C01990F69
:10413000EE08FF0862E573E0C8010E94C133892BD5
:1041400051F4B6018B819C810E941D0E60ED72E0DE
:1041500090E080E0D7CF69E573E0C8010E94C133E9
:10416000892B91F4B601F0E1CF16F7E2DF0610F0EB
:104170006FE077E28B819C810E941D0E61E08B8154
:104180009C810E94E50DE2CF60E673E0C8010E94C9
:10419000C133892BD9F6CD28C9F44DE060E08B817D
:1041A0009C810E94CF0D4DE061E08B819C810E943B
:1041B000CF0D4DE062E08B819C810E94CF0D4DE0E0
:1041C00063E08B819C810E94CF0DC0CF45E060E011
:1041D0008B819C810E94CF0D4BE061E08B819C81A3
:1041E0000E94CF0D4CE0E6CF0F900F900F900F90F4
:1041F000DF91CF911F910F91FF90EF90DF90CF90C3
:10420000BF90AF909F908F907F906F905F904F90F6
:104210003F902F900C946311CF92DF92EF92FF9218
:104220001F93CF93DF93182F8091ED119091EE1192
:10423000CB9780F030E0E32E32E0F32EC0E3D0E005
:10424000CE010E947115F70181937F012196CB3336
:10425000D105B1F7111109C080910002833529F40D
:10426000809101028E3409F462C086E30E949905B0
:10427000BC01990F880B990B61157105810591059A
:1042800011F00E948F2E0E94402ECC24CA942FE061
:10429000D22EE12CF12CA70196010E945F307F9372
:1042A0006F9387E693E09F938F9380E092E09F93D4
:1042B0008F930E94CA330E94402EA70196010E944C
:1042C0005F307F936F9380E793E09F938F9387E0B6
:1042D00092E09F938F930E94CA334BE050E060E0DE
:1042E00072E080E390E00E9413168DB79EB70C96A3
:1042F0000FB6F8949EBF0FBE8DBF111118C08091EC
:10430000ED119091EE11CC9790F08BE390E00E942C
:104310004930882361F060E08BE390E0DF91CF913A
:104320001F91FF90EF90DF90CF900C945130DF9170
:10433000CF911F91FF90EF90DF90CF90089581E093
:104340000E940C218091AC12811109C08AE00E9468
:10435000D81680E092E00E9445190C9452160895F8
:104360002F923F924F925F926F927F928F929F9285
:10437000AF92BF92CF92DF92EF92FF920F931F9373
:10438000CF93DF9300D01F92CDB7DEB780917B0B28
:1043900090917C0B892B09F41DC58BE390E09A83E7
:1043A00089831C821B82CE0101960E94CE15882330
:1043B00009F410C520E1D22E34E0C32E48E0742E5B
:1043C00054EB852E912CEFEFE80FEE3008F09FC0F4
:1043D0000E2E000CFF0B8827EF50FE4D8F4F0C94D4
:1043E0001431FF210C2455228C226823BA23342453
:1043F0001F24912381252725F02587225D26CE01C4
:1044000001960E94CE15B82E809123048434A1F128
:1044100084E00E94B80B69EB72E0882309F400C4C1
:10442000EB80FC8084E00E94FB178C01009789F0F0
:10443000DC011296BC921297C701825F934F1196CE
:104440009C938E9381E013968C9362E08B2D0E9457
:10445000860480912304E82FF0E0EE0FFF1FE5565D
:10446000FC4F11830083EEEBF9E1F0932504E09318
:1044700024048F5F80932304BE016D5F7F4FCE01C4
:1044800001960E947C15182FCE0101960E94CE1530
:10449000882309F49CC4111196CF1092F50F65ED95
:1044A00073E085E00E94ED1695C4CE0101960E944E
:1044B000CE15F82E8091CD0B883249F182E00E9412
:1044C000B80B67ED72E0882309F44AC082E00E94CD
:1044D000FB178C01009771F0DC01FC9211961C9285
:1044E00061E08F2D0E948604F801618170E0808177
:1044F0000E94C2048091CD0BE82FF0E0EE0FFF1F69
:10450000E358F44F118300838F5F8093CD0BCE016E
:1045100001960E94AB15B7CFCE0101960E94CE1531
:10452000382ECE0101960E94CE15582ECE0101964E
:104530000E94CE15482ECE0101960E94CE15682EFF
:10454000CE0101960E94CE15A82E80917904843068
:10455000F1F289E10E94B80B811106C065EF72E0AB
:1045600085E00E94ED16D3CF89E10E94FB178C01F4
:10457000009719F0DC0158961C92E32C032C000CD8
:10458000FF08B0907904EB2DF0E0EE0FFF1FE65826
:10459000FB4F11830083F801F18AE08A842D440CDB
:1045A000990B938B828B852D550C990B958B848B56
:1045B0002A2D2150330B2830310508F45CC088E0E7
:1045C00090E0D80157969C938E93569761E0832D87
:1045D0000E94860461E0F80182890E94860461E0FD
:1045E000D80154968C910E94860461E0F801848978
:1045F0000E945804D8015196FC92EE925097F12CEB
:10460000E12CF80186899789E816F906B4F520E0CF
:104610004FE0B701C8010E94C412D80156968D918F
:104620009C91E816F90634F427E04BE0B701C80185
:104630000E94C41220E049E0B701C8010E94C412E0
:10464000F80186899789E816F90664F4552453948D
:1046500020E0452DB701C8010E94C4125394F9E02F
:104660005F12F6CF41E0B701C8010E9409132FEF96
:10467000E21AF20AC6CF8A2DA3CFA08EA12CF80190
:10468000808DA81608F5462D6A2DC8010E94411399
:10469000EA2CF12C40E0B701C8010E940913D801AF
:1046A00056968D919C91E816F90664F4552453941E
:1046B00020E0452DB701C8010E94C4125394B9E00F
:1046C0005B12F6CFA394DBCFB394B09279041FCFE3
:1046D000CE0101960E94CE15F82ECE0101960E94C1
:1046E000CE15182FCE0101960E94CE15082FCE01AF
:1046F00001960E94CE15E82ECE0101960E94CE159D
:104700002E2DEE0C330B402F000F550B612F110F88
:10471000770B10E000E08F2DFF0C990B0E943E1BE1
:10472000F6CECE0101960E94CE15E82ECE0101965E
:104730000E94CE15182FCE0101960E94CE15F82E9C
:10474000CE0101960E94CE15B82ECE0101960E9490
:10475000CE15082E000C990B2B2DBB0C330B4F2DB7
:10476000FF0C550B612F110F770B8C018E2DEE0C6A
:10477000990BD4CFCE0101960E94CE15182F8091AF
:1047800096048A3009F4C3CE87E10E94B80B66E133
:1047900073E0882309F4E4CE87E10E94FB17FC0153
:1047A000892BB9F08091050B803398F591E0980F33
:1047B0009093050B828790E0DC01AA0FBB1FA80F26
:1047C000B91FAB58B54F28EB3BE012963C932E93A4
:1047D000119780919604A82FB0E0AA0FBB1FAE5787
:1047E000BB4FED93FC931186158616861786108AAB
:1047F000118A128A138A148A128211829482838205
:10480000168215829086878210838F5F809396042C
:104810007ECE8FEF8287DDCFCE0101960E94CE152E
:10482000182FCE0101960E94CE152B813C81225F6C
:10483000334F40E0682F812F0E9415181DCECE0106
:1048400001960E94CE15182FCE0101960E94CE151A
:10485000082FCE0101960E94CE152B813C81225F4C
:10486000334F482F602FE7CFCE0101960E94CE151F
:10487000CE0101960E94CE15CE0101960E94CE1562
:10488000082F813009F084C010917603133009F4A9
:104890003ECE89E30E94B80B64E373E0882309F4F9
:1048A0005FCE89E390E00E9491327C01EDE0DC0173
:1048B000EC9311967C9211978CE012968C93129740
:1048C000D3960C93D397E12FF0E0EE0FFF1FE5593D
:1048D000FB4FF182E082FDE0D596FC93D597D6960A
:1048E0008C93D697D7967C92D797D4960C93C70182
:1048F0000E94660E60E3C7010E94FF0C62E5C701DB
:104900000E94FF0C62E0C7010E94FF0C66E0C70135
:104910000E94FF0CB12C04E020E030E0A9016B2DD7
:10492000C7010E94190DB39420E2B212F4CFF7012F
:10493000B396DF012D2D1D922A95E9F761E08AE0FB
:104940000E94860461E08AE00E945804D701D29652
:104950008C91D2978160D2968C936FE0C7010E94B0
:10496000660DF70182A9826082AB6FE0C7010E94E9
:10497000660DD70197968C919797816097968C9347
:1049800064E0C7010E94660D1F5F10937603BFCDE0
:10499000823009F0BCCD10917603133009F4B7CD05
:1049A00087E30E94B80B60E573E0882309F4D8CD53
:1049B00087E390E00E9491327C01FC010083C18278
:1049C00023E02283E12FF0E0EE0FFF1FEB59FB4FB6
:1049D00091838083DC01D4960C93D497D5962C9345
:1049E000D597D696CC92D69781E0D3968C93C70173
:1049F0000E94660E60E3C7010E94FF0C62E5C701DA
:104A00000E94FF0C62E0C7010E94FF0C66E0C70134
:104A10000E94FF0CB12C04E020E030E0A9016B2DD6
:104A2000C7010E94190DB394B0E2BB12F4CFF70195
:104A3000B396DF012D2D1D922A95E9F761E087E0FD
:104A40000E94860461E087E00E9458049DCFCE0159
:104A500001960E94CE15B82ECE0101960E94CE1569
:104A6000A82E80919A03803109F406CD8DE10E9431
:104A7000B80B6CE673E0882309F4D2C0EB80FC80AD
:104A80008DE10E94FB178C01009739F1FC013696ED
:104A9000DF012D2D1D922A95E9F7DC0157961C9216
:104AA0001E92569758961C9258971596AC92159749
:104AB0001296BC921297C701825F934F11969C93F6
:104AC0008E9314961C921E92139762E08B2D0E9477
:104AD0008604F80182810E94990580919A03E82F4B
:104AE000F0E0EE0FFF1FE658FC4F1183008321ED2D
:104AF00039E130937903209378038F5F80939A0391
:104B0000BBCCCE0101960E94CE15A82ECE010196F7
:104B10000E94CE15482ECE0101960E94CE15582E29
:104B2000CE0101960E94CE15682E809177038430C5
:104B300009F4EDCC89E00E94B80B6CE873E088239F
:104B400009F40ECD89E00E94FB178C01B090770329
:104B5000EB2CF12CEE0CFF1CF701EF58FB4F91836F
:104B6000808381E0D80118968C931897AC921196A7
:104B70004C92119712965C92129713966C9261E088
:104B80008A2D0E94860461E0F80181810E948604DA
:104B900061E0D80112968C910E948604F8019381FD
:104BA000349680E0981719F011928F5FFBCFC801FF
:104BB0000E946D13F701EF58FB4F80819181DC015A
:104BC00013963C91FC01349620E0321719F01192B3
:104BD0002F5FFBCF0E946D13B394B092770397CCF5
:104BE000CE0101960E94CE15582ECE0101960E944C
:104BF000CE15282ECE0101960E94CE15382ECE015C
:104C000001960E94CE15482E80916204843009F4EA
:104C100033CC8BE00E94B80B811106C061EB73E0CE
:104C200085E00E94ED1628CCAB80BC808BE00E9412
:104C3000FB178C01009731F0FC0116821782108659
:104C40001186128660906204E62CF12CEE0CFF1C9B
:104C50009701265A3B4F7901D9010D931C93F80116
:104C6000528223823482C501825F934F9183808375
:104C7000458261E0852D0E94860461E0D80113968B
:104C80008C910E94860460E0F80184810E94860471
:104C900081E0D80116968C93D701ED91FC91178293
:104CA000108611861286E9E7F9E1F0936404E09337
:104CB0006304639460926204DFCBCE0101960E948C
:104CC000CE15B82ECE0101960E94CE15F82ECE013B
:104CD00001960E94CE15082FCE0101960E94CE1596
:104CE000182FCE0101960E94CE15F092E611009386
:104CF000E7111093E8118093E9111092EA1106EE82
:104D000011E161E0D8018D918D010E948604B1E12D
:104D10000A3E1B07B1F78091EA1181608093EA1186
:104D200060E086EE91E10E94AB0CCE0101960E94FC
:104D3000CE15682E80912A04823009F49DCBEB8039
:104D4000FC8086E00E94FB178C01009759F0E6EE8C
:104D5000F1E1F0932E04E0932D04DC0115961C92F2
:104D60001E921497A0902A04EA2DF0E0EE0FFF1F88
:104D7000EA5DFB4F11830083F801B282C701825FB5
:104D8000934F91838083F1E06F16E9F0D801139679
:104D90001C9262E08B2D0E948604D80113968C91A0
:104DA000139715961C921E9214978B7F8160139611
:104DB0008C93E5EAF9E1F0932C04E0932B04A3949F
:104DC000A0922A0459CB82E0F8018383E2CF112319
:104DD00009F463CB0F900F900F900F90DF91CF915C
:104DE0001F910F91FF90EF90DF90CF90BF90AF9009
:104DF0009F908F907F906F905F904F903F902F90FB
:104E000008950E94B0210C9489181F920F920FB63A
:104E10000F9211242F933F938F939F93AF93BF9340
:104E200080910A0C90910B0CA0910C0CB0910D0C80
:104E30003091090C23E0230F2D3758F50196A11D61
:104E4000B11D2093090C80930A0C90930B0CA09336
:104E50000C0CB0930D0C8091050C9091060CA09158
:104E6000070CB091080C0196A11DB11D8093050C93
:104E70009093060CA093070CB093080CBF91AF91D0
:104E80009F918F913F912F910F900FBE0F901F9088
:104E9000189526E8230F0296A11DB11DD2CF1F92AF
:104EA0000F920FB60F9211240BB60F922F933F93D0
:104EB0004F935F936F937F938F939F93AF93BF9322
:104EC000EF93FF938FEE91E10E944206FF91EF91E5
:104ED000BF91AF919F918F917F916F915F914F9112
:104EE0003F912F910F900BBE0F900FBE0F901F9010
:104EF00018951F920F920FB60F9211240BB60F92B6
:104F00002F935F936F937F938F939F93AF93BF93F1
:104F1000EF93FF93E091FF11F09100128081E091F7
:104F20000512F091061282FD26C0208180910812A0
:104F300090E0019660E670E00E94EC3090910912DA
:104F4000981741F0E0910812F0E0E151FE4E258FF4
:104F500080930812FF91EF91BF91AF919F918F9134
:104F60007F916F915F912F910F900BBE0F900FBEAD
:104F70000F901F9018958081EDCF1F920F920FB662
:104F80000F9211240BB60F922F933F934F935F9381
:104F90006F937F938F939F93AF93BF93EF93FF9301
:104FA0008091B900887F803609F44DC008F040C078
:104FB000883209F4A7C028F5803109F49BC0C8F4F1
:104FC000882309F4F7C0883009F494C0FF91EF9169
:104FD000BF91AF919F918F917F916F915F914F9111
:104FE0003F912F910F900BBE0F900FBE0F901F900F
:104FF0001895883109F486C0803241F78093540BAC
:1050000014C0803409F49BC040F48033B9F3883372
:10501000E9F68093540B85ECAEC0803509F483C06B
:10502000883509F494C0883489F60E94461ACECF98
:10503000883909F48AC038F5883729F050F4883661
:1050400011F0803719F683E08093550B1092530BC3
:1050500055C0883809F479C0803919F0803809F0D2
:10506000B5CF8091530B803208F06FC0E091530BA5
:1050700081E08E0F8093530B8091BB00F0E0ED5CDC
:10508000F44F80833BC0803B39F0D0F4803A09F480
:1050900077C0883A09F09ACF84E08093550B10923C
:1050A000320B1092310BF0E0E0E019958091310B5A
:1050B00081110FC081E08093310B1092110B09C058
:1050C000803C09F4A8CF883C09F4A5CF883B09F0BF
:1050D0007DCFE091320B81E08E0F8093320BF0E0B8
:1050E000EF5EF44F80818093BB009091320B8091F2
:1050F000310B29C080917A0B8093BB0085EC8093A3
:10510000BC0064CF9091790B8091780B981758F57B
:10511000E091790B81E08E0F8093790BF0E0E85AF3
:10512000F44F8081E9CFE091790B81E08E0F80937D
:10513000790B8091BB00F0E0E85AF44F80839091A6
:10514000790B8091780B9817C8F285E8D8CFE09159
:10515000790B81E08E0F8093790B8091BB00F0E09A
:10516000E85AF44F80838091570B81115ECF81E024
:105170008093560B84EA8093BC001092550B26CF87
:1051800085EC8093BC001092550B8091530B8032BC
:1051900030F4E091530BF0E0ED5CF44F108260913D
:1051A000530B70E083E39BE0F0E0E0E01995109290
:1051B000530B0CCF1092540B38CF1F920F920FB697
:1051C0000F9211240BB60F922F933F934F935F933F
:1051D0006F937F938F939F93AF93BF93EF93FF93BF
:1051E00048E251E064E271E090E080E00E94C90A88
:1051F000FF91EF91BF91AF919F918F917F916F91AF
:105200005F914F913F912F910F900BBE0F900FBE6A
:105210000F901F9018951F920F920FB60F921124A6
:105220000BB60F922F933F934F935F936F937F93A0
:105230008F939F93AF93BF93EF93FF9348EA50E010
:1052400064EA70E083E090E00E94C90AFF91EF9168
:10525000BF91AF919F918F917F916F915F914F918E
:105260003F912F910F900BBE0F900FBE0F901F908C
:1052700018951F920F920FB60F9211240BB60F9232
:105280002F933F934F935F936F937F938F939F934E
:10529000AF93BF93EF93FF9348E950E064E970E068
:1052A00082E090E00E94C90AFF91EF91BF91AF9117
:1052B0009F918F917F916F915F914F913F912F912E
:1052C0000F900BBE0F900FBE0F901F9018951F925E
:1052D0000F920FB60F9211240BB60F922F933F939C
:1052E0004F935F936F937F938F939F93AF93BF93EE
:1052F000EF93FF9348E850E064E870E081E090E0CD
:105300000E94C90AFF91EF91BF91AF919F918F9138
:105310007F916F915F914F913F912F910F900BBEB5
:105320000F900FBE0F901F9018951092F2111092CF
:10533000F11188EE93E0A0E0B0E08093F311909338
:10534000F411A093F511B093F61187EB92E09093CE
:10535000F0118093EF1185EC90E09093FC11809315
:10536000FB1184EC90E09093FE118093FD1180EC92
:1053700090E0909300128093FF1181EC90E0909365
:1053800002128093011282EC90E0909304128093B9
:10539000031286EC90E0909306128093051210920F
:1053A00008121092091210920A1210920B12109207
:1053B000EA118FEF8093E6118093E7118093E81153
:1053C0008093E9111092EE111092ED111092831357
:1053D000109282138FEE91E190937E1380937D1350
:1053E0001092B4128CE2809380138BE380937F132E
:1053F0008FE28093811380E68093AF128FE58093D4
:10540000B0121092AE12109279131092781310927B
:105410007B1310927A1381E080937613E4E8F3E132
:1054200080EC93E1119211928E179F07D9F7109299
:10543000B3120895789484B5826084BD84B5816088
:1054400084BD85B5826085BD85B5816085BD80914F
:105450006E00816080936E001092810080918100C7
:1054600082608093810080918100816080938100BF
:10547000809180008160809380008091B100846081
:105480008093B1008091B00081608093B0008091E2
:10549000910082608093910080919100816080935F
:1054A0009100809190008160809390008091A10094
:1054B00082608093A1008091A10081608093A1000F
:1054C0008091A00081608093A00080912101826082
:1054D000809321018091210181608093210180913D
:1054E000200181608093200180917A008460809304
:1054F0007A0080917A00826080937A0080917A00AD
:10550000816080937A0080917A00806880937A002D
:105510001092C100E091FF11F091001282E08083AF
:10552000E091FB11F091FC111082E091FD11F091DE
:10553000FE1180E1808310920712E0910312F09136
:10554000041286E08083E0910112F09102128081C2
:1055500080618083E0910112F09102128081886065
:105560008083E0910112F091021280818068808333
:10557000E0910112F091021280818F7D808380E0A2
:1055800090E19093EE118093ED118AE297E1909370
:1055900083138093821386EA93E19093851380931B
:1055A000841382EC93E1909387138093861380ECAD
:1055B00093E19093B9138093B81386E294E19093AA
:1055C00089138093881388EA9CE190938B138093CE
:1055D0008A1383E394E19093AF138093AE1387E42F
:1055E00094E19093B1138093B01381E794E1909389
:1055F0008D1380938C1382E699E190939713809397
:10560000961381E998E190939D1380939C1384ED08
:1056100098E190939B1380939A1389E397E1909379
:105620009F1380939E1386EF97E19093A11380932D
:10563000A01381E097E29093A5138093A4138FE0C9
:105640009AE19093AB138093AA138FE991E2909320
:10565000AD138093AC1380EF91E19093B3138093DB
:10566000B21388E49DE19093B7138093B6138CEF47
:105670009CE19093BB138093BA1381E08093B412A2
:1056800080E00E940C210E9463110091ED111091A5
:10569000EE1101151105C9F090E080E00E9471152E
:1056A000833299F40033110580F0DBE0ED2ED2E077
:1056B000FD2ED0E0C0E02196CE010E947115D701E9
:1056C0008D937D01CF32D105B1F710927C0B1092F2
:1056D0007B0B8BE390E0EC0121960E947115482F23
:1056E00020917B0B30917C0BC901019690937C0B30
:1056F00080937B0B0C171D0708F0F6C067EE74E073
:1057000085E00E94ED160E94B6056093E90B709348
:10571000EA0B8093EB0B9093EC0B0E94B605609321
:10572000ED0B7093EE0B8093EF0B9093F00B0E94B8
:10573000B6056E5F7F4F8F4F9F4F6093F10B709355
:10574000F20B8093F30B9093F40B0E94B6056C5F01
:105750007F4F8F4F9F4F6093F50B7093F60B8093A5
:10576000F70B9093F80B0E94B6056C5F7F4F8F4F3D
:105770009F4F6093F90B7093FA0B8093FB0B909300
:10578000FC0B0E94B6056A5F7F4F8F4F9F4F60935F
:10579000FD0B7093FE0B8093FF0B9093000C0E9407
:1057A000B605685F7F4F8F4F9F4F6093010C7093DA
:1057B000020C8093030C9093040CAA24A394BB24A2
:1057C000B3948091B3128111D1C080917D139091D7
:1057D0007E13DC01ED91FC910084F185E02D19959B
:1057E000892B09F4C3C080917D1390917E13DC0155
:1057F000ED91FC910084F185E02D1995C0E6EC2E29
:10580000F12C8036910564F480917D1390917E1384
:10581000DC01ED91FC910084F185E02D19957C016E
:10582000C0917D13D0917E13B5E1CB2EB3E1DB2E79
:10583000460110E000E0E016F10609F061C0D0E09A
:10584000C0E0EC16FD0609F4BCCFF60191916F01A2
:1058500010927513309181132091B2129093B2126D
:10586000931304C0921302C01092B2128091AE1230
:10587000E82FF0E040917F13E455FD4E941363C090
:10588000321709F460C01186882321F0B092751395
:105890001092B2121092AE121092791310927813E5
:1058A00010927B1310927A13B09276138091751335
:1058B000813009F059C00E9492138093AD128E314D
:1058C00008F04BC020917713222309F446C0FC0155
:1058D000FF27EE0FFF1FEC57FC4E0190F081E02DEB
:1058E0003097D9F1199540C0CE014111F4CE3093D3
:1058F0007C0B20937B0B0E94B0210E94891803CF60
:105900000E94B605688779878A879B87E881F98135
:105910000284F385E02DCE01199597FF3BC10E94CB
:10592000B605488459846A847B846419750986099C
:1059300097094C805D806E807F80641575058605B3
:10594000970520F37CCF91878F5F8093AE12909163
:10595000B012891708F09ECFA9CFE0918213F09181
:105960008313309709F0BECF21966BCFC090CE0B3A
:10597000D090CF0BE090D00BF090D10B8091D20B58
:1059800081110EC10E94B6056C197D098E099F090F
:10599000613A7B4B8D409105D8F0A092D20BC0E0CC
:1059A0008091CD0BC81788F4EC2FF0E0EE0FFF1FAD
:1059B000E358F44F0190F081E02D118270E060E037
:1059C00080810E94C204CF5FEBCF81E00E94191357
:1059D0008091D30B882309F4DAC04AE069EE7BE0BA
:1059E00084EB90E10E94830B41E06DEE7BE086EA60
:1059F0009EE00E94830B912C8091E80B981608F092
:105A0000A3C0E92DF0E0EE0FFF1FEC52F44F008130
:105A10001181D8011296CD91DC918CA19DA1AEA1EE
:105A2000BFA1892B8A2B8B2B09F458C03FB7F89460
:105A30008091050C9091060CA091070CB091080C78
:105A400026B5A89B05C02F3F19F00196A11DB11DD9
:105A50003FBFBA2FA92F982F88276C017D01C20E56
:105A6000D11CE11CF11C42E0CC0CDD1CEE1CFF1C27
:105A70004A95D1F788A599A5AAA5BBA5B701A60106
:105A8000481B590B6A0B7B0B8CA19DA1AEA1BFA13A
:105A9000481759076A077B0708F18C859D85AE85F5
:105AA000BF852A81222309F44BC00196A11DB11D97
:105AB0008C879D87AE87BF874C855D856E857F858A
:105AC000E881F9810680F781E02DCE011995C8A6FD
:105AD000D9A6EAA6FBA6CE010E947709F801848127
