:100000000C943C030C946D030C946D030C946D03E1
:100010000C946D030C946D030C946D030C946D03A0
:100020000C946D030C946D030C946D030C946D0390
:100030000C946D030C946D030C946D030C946D0380
:100040000C946D030C94BF2A0C946D030C946D03F7
:100050000C946D030C946D030C946D030C947D292A
:100060000C946D030C94F1290C94C7290C946D0326
:100070000C946D030C946D030C946D030C946D0340
:100080000C94912A0C946D030C946D030C946D03E5
:100090000C946D030C946D030C946D030C94ED2A79
:1000A0000C946D030C946D030C94632A0C946D03F3
:1000B0000C946D030C946D030C946D030C94352A11
:1000C0000C946D030C946D030C946D030C946D03F0
:1000D0000C946D030C946D030C946D030C946D03E0
:1000E0000C946D030C94DC090C9420040C945304C0
:1000F0000C94550A0C9437100C94BC080C945105C0
:100100000C9498050C9479290C941C040C94672386
:100110000C9436180C9424040C94AC050C948D1398
:100120000C945C0A0C9477230C9478120C9426059A
:100130000C94EB250C945D060C94C0050C941804EB
:100140000C9477080C94C6080C941A0A0C94BE08F8
:100150000C94EE180C9412040C948E050C94470524
:100160000C94C8080C94FC050C9471130C94180C96
:100170000C9493270C9433050C9494090C945B24F1
:100180000C943F090C9452040C947F050C94821E2D
:100190000C94400A0C948B130C943D050C94C609E6
:1001A0000C94B0100C94DB180C94C2180C94831AA5
:1001B0000C94EF240C94490E0C94D4160C9438062D
:1001C0000C9496180C944D040C9463120C946B05CB
:1001D0000C94F6270C9449040C941E090C94750594
:1001E0000C944E0A0C9437040C9427040C9421228E
:1001F0000C94AF180C94390A0C94C8250C942E0555
:100200000C9408260C94C4080C94E3160C94CA2889
:100210000C94FE130C94E4060C949B170C94290682
:100220000C94A2050C9497060C94310A0C94570474
:100230000C94AF260C94BA080C94C0080C941114BA
:100240000C9459050C9435260C9443080C94C41056
:100250000C94E51C0C942D040C9495080C94630AE2
:100260000C9445040C940D2C0C94F1130C948726DB
:100270000C94C4220C9473090C9461050C94470AE5
:100280000C94EA240C94B6050C94C2080C949A269B
:100290000C9464140C943B040C9465280C94321C4C
:1002A0000C9431040C94B8240C94FB0F0C943F0470
:1002B0000C944F066E2F61004F4B004F4B004F4B7D
:1002C00000427574746F6E20646F6573206E6F7476
:1002D0002066697420696E204D656D6F7279004FDC
:1002E000757470757420646F6573206E6F7420660A
:1002F000697420696E204D656D6F727900375365A2
:10030000676D656E7420646F6573206E6F74206610
:10031000697420696E204D656D6F72792100536597
:1003200072766F20646F6573206E6F7420666974D7
:1003300020696E204D656D6F727921004C43442019
:10034000646F6573206E6F742066697420696E2017
:100350004D656D6F727921004C434420646F657365
:10036000206E6F742066697420696E204D656D6F14
:10037000727921004C434420646F6573206E6F7462
:100380002066697420696E204D656D6F7279210059
:10039000416E616C6F67496E20646F6573206E6F8C
:1003A000742066697420696E204D656D6F727900E6
:1003B0004F75747075745368696674657220646FE4
:1003C0006573206E6F742066697420696E204D65B8
:1003D0006D6F727900496E707574536869667465E3
:1003E0007220646F6573206E6F7420666974206973
:1003F0006E204D656D6F727900446967496E4D7569
:100400007820646F6573206E6F742066697420694C
:100410006E204D656D6F7279004661696C7572650D
:10042000206F6E2072656164696E6720636F6E660F
:100430006967004D6F6269466C69676874204D6535
:100440006761204B617600456E636F64657273204F
:10045000646F6573206E6F742066697420696E2006
:100460004D656D6F7279007E306D79335B5F707FA3
:100470007B771F0D3D4F470000000000000000008B
:10048000000000000000000000000000000000006C
:10049000000000800180257E306D79335B5F707FC6
:1004A0007B00000009000000777F4E7E4F475F37DA
:1004B000307C000E00767E677E775B463E00000053
:1004C000336D4E13780008007D1F0D3D4F477B377D
:1004D0003038000600151D6773055B0F1C00000017
:1004E000276D4E007800004D46537465707065723C
:1004F00020646F6573206E6F742066697420696E66
:10050000204D656D6F72790053746570706572204F
:10051000646F6573206E6F742066697420696E2045
:100520004D656D6F7279210044657669636542752A
:1005300066666572204F766572666C6F7721004C37
:100540006F6164696E6720636F6E666967206661BC
:10055000696C65640000002100240027002A002D3A
:10056000003000330001010000040107010A01000E
:10057000002200250028002B002E0031003400024C
:10058000010000050108010B0100002000230026E6
:100590000029002C002F003200000100000301069A
:1005A00001090105050505070508080808020202FA
:1005B000020A0A08080404040401010101010101FE
:1005C000010303030303030303040707070C0C0CD5
:1005D0000C0C0C0C0C0202020206060606060606AD
:1005E000060B0B0B0B0B0B0B0B010210202008084A
:1005F0001020401020408002010201080402010185
:10060000020408102040808040201008040201806D
:1006100004020180402010080402010804020101C4
:1006200002040810204080010204081020408000CD
:10063000000A0B02090C0D0E08070304010000005C
:1006400000000000000000000000000000000000AA
:100650000000000000000000000000121110000067
:10066000000000000000000000000000000000008A
:100670000000000000000D2C11241FBECFEFD1E2BE
:10068000DEBFCDBF00E00CBF13E0A0E0B2E0E4E5C8
:10069000F5E700E00BBF02C007900D92A837B10745
:1006A000D9F723E1A8E7B3E001C01D92A73EB20746
:1006B000E1F713E0CCE3D3E000E006C021970109A5
:1006C000802FFE010E940635CB33D10780E008075A
:1006D000A9F70E94AA2C0C94A83A0C940000AC0133
:1006E0001092C6129091961380919513FA01BF0152
:1006F000641B750B2091C61230813093C612931380
:1007000004C0921302C01092C6123081311104C08D
:10071000921721F0CB0108953817D1F33196E7CF26
:100720000F931F93CF93DF9380918A13882309F44B
:1007300046C0D0E0C0E0813029F482E080938A1383
:10074000CAECD2E180918B13882341F1209721F4E8
:10075000C0918F13D09190138E01CE010E946F0330
:10076000892B29F42196F80180818111F5CFF801B8
:100770008081882309F1C8010E946F03F801E80F06
:10078000F91F8081882311F010823196F093901325
:10079000E0938F1310938E1300938D1380918D131C
:1007A00090918E13892B59F081E080938B13DF9108
:1007B000CF911F910F91089510E000E0EBCF80E002
:1007C000F6CF0E949003882351F081E080938B1331
:1007D00080938C1380918D1390918E1308951092B5
:1007E0008C1390E080E008958150823108F05AC067
:1007F000E82FF0E08827E050FC4F8F4F0C9406352F
:1008000020042404120418041C04520427042D0498
:10081000310437043B043F044504490452044D04A9
:1008200053045704809180008F778093800008954F
:10083000809180008F7DF9CF80918000877FF5CFF8
:1008400084B58F7784BD089584B58F7DFBCF80916B
:10085000B0008F778093B00008958091B0008F7DB5
:10086000F9CF809190008F778093900008958091C8
:1008700090008F7DF9CF80919000877FF5CF809198
:10088000A0008F778093A00008958091A0008F7DB5
:10089000F9CF8091A000877FF5CF809120018F77DD
:1008A000809320010895809120018F7DF9CF809160
:1008B0002001877FF5CFCF93DF93282F30E0F90118
:1008C000E15DF94F8491F901E751FA4FD491F901B3
:1008D000ED55FA4FC491CC23A1F081110E94F4038D
:1008E000EC2FF0E0EE0FFF1FE757FA4FA591B49100
:1008F000EC91ED2381E090E009F480E0DF91CF916D
:10090000089580E090E0FACF1F93CF93DF93282FD4
:1009100030E0F901E15DF94F8491F901E751FA4FB7
:10092000D491F901ED55FA4FC491CC23A9F0162FBB
:1009300081110E94F403EC2FF0E0EE0FFF1FE1594C
:10094000FA4FA591B4918FB7F894EC91111108C0AA
:10095000D095DE23DC938FBFDF91CF911F91089557
:10096000DE2BF8CFCF93DF9390E0FC01E751FA4FF5
:1009700024918D559A4FFC0184918823C9F090E011
:10098000880F991FFC01EB5AFA4FA591B491FC0115
:10099000E159FA4FC591D49161110DC09FB7F894F8
:1009A0008C91209582238C938881282328839FBF54
:1009B000DF91CF910895623051F49FB7F8943C9144
:1009C000822F809583238C93E8812E2BEFCF8FB7D6
:1009D000F894EC912E2B2C938FBFEACF1F93CF93DB
:1009E000DF93182FEB0161E00E94B204209739F4E5
:1009F00060E0812FDF91CF911F910C948404CF3F51
:100A0000D10511F461E0F5CFE12FF0E0E15DF94FA0
:100A1000E491E150E23108F0B3C0F0E08827EC5EE9
:100A2000FA4F8F4F0C94063526052E0533053D05EC
:100A30004705C0055105590561056B0575057F051D
:100A40008E059805C005A205AC05B60584B580687D
:100A500084BDC7BDDF91CF911F91089584B5806299
:100A600084BDC8BDF7CF80918000806880938000EE
:100A7000D0938900C0938800EDCF80918000806280
:100A800080938000D0938B00C0938A00E3CF809145
:100A90008000886080938000D0938D00C0938C008C
:100AA000D9CF8091B00080688093B000C093B3002C
:100AB000D1CF8091B00080628093B000C093B40029
:100AC000C9CF80919000806880939000D093990066
:100AD000C0939800BFCF8091900080628093900077
:100AE000D0939B00C0939A00B5CF8091900088600E
:100AF00080939000D0939D00C0939C00ABCF8091D9
:100B0000A00080688093A0008091A0008F7B8093DC
:100B1000A000D093A900C093A8009CCF8091A00012
:100B200080628093A000D093AB00C093AA0092CFC4
:100B30008091A00088608093A000D093AD00C09306
:100B4000AC0088CF80912001806880932001D093F1
:100B50002901C09328017ECF80912001806280937B
:100B60002001D0932B01C0932A0174CF80912001E2
:100B7000886080932001D0932D01C0932C016ACF0F
:100B8000C038D1050CF03ECF33CF2FB7F894609129
:100B9000160C7091170C8091180C9091190C2FBFA6
:100BA0000895DC01ED91FC910190F081E02D199404
:100BB000EF92FF920F931F93CF93DF938C017B01F2
:100BC000D0E0C0E0F701EC0FFD1F6491662361F0F7
:100BD000D801ED91FC910190F081E02DC8011995AB
:100BE000892B11F02196EECFCE01DF91CF911F918D
:100BF0000F91FF90EF900895AF92BF92CF92DF9246
:100C0000EF92FF920F931F93CF93DF936C017B01C1
:100C10008B01040F151FEB015E01AE18BF08C01752
:100C2000D10759F06991D601ED91FC910190F081C5
:100C3000E02DC6011995892B79F7C501DF91CF9178
:100C40001F910F91FF90EF90DF90CF90BF90AF90EA
:100C50000895FC01538D448D252F30E0842F90E0C2
:100C6000821B930B541710F0CF96089501970895A7
:100C7000FC01918D828D981779F0A28DAE0FBF2F58
:100C8000B11D5D962C91828D8F5F60E60E94C43409
:100C9000928F822F90E008958FEF9FEF0895FC01CF
:100CA000918D828D981731F0828DE80FF11D858D21
:100CB00090E008958FEF9FEF0895FC01918D228DB4
:100CC000892F90E0805A9F4F821B910960E670E067
:100CD0000E94DE34089584E092E10E945D0621E0E6
:100CE000892B09F420E0822F0895FC01A48DA80F20
:100CF000B92FB11DA358BF4F2C91848D90E0019660
:100D00008F739927848FA689B7892C93A089B1897D
:100D10008C91837080648C93938D848D981306C01E
:100D20000288F389E02D80818F7D80830895EF9282
:100D3000FF920F931F93CF93DF93EC0181E0888F95
:100D40009B8D8C8D98131AC0E889F989808185FF65
:100D500015C09FB7F894EE89FF896083E889F98907
:100D600080818370806480839FBF81E090E0DF9109
:100D7000CF911F910F91FF90EF900895F62E0B8D5C
:100D800010E00F5F1F4F0F731127E02E8C8D8E1117
:100D90000CC00FB607FCFACFE889F989808185FF7E
:100DA000F5CFCE010E947506F1CFEB8DEC0FFD2F34
:100DB000F11DE358FF4FF0829FB7F8940B8FEA893B
:100DC000FB8980818062CFCFCF93DF93EC01888D48
:100DD0008823B9F0AA89BB89E889F9898C9185FDB6
:100DE00003C0808186FD0DC00FB607FCF7CF8C9144
:100DF00085FFF2CF808185FFEDCFCE010E94750681
:100E0000E9CFDF91CF91089580E090E0892B29F020
:100E10000E946B0681110E94000080E090E0892B07
:100E200049F080E090E0892B29F00E9400008111B8
:100E30000E94000080E090E0892B49F080E090E083
:100E4000892B29F00E94000081110E94000080E09F
:100E500090E0892B49F080E090E0892B29F00E94F6
:100E6000000081110C9400000895AF92BF92CF92C0
:100E7000DF92EF92FF920F931F93CF93DF936B015B
:100E80007A01EC01CD57D44F28813CE0389F800196
:100E9000399F100D1124A090820BB12C27FF1FC089
:100EA000FB011182108288818F5F8883888198017D
:100EB000280F311D87FD3A95F6012A153B051CF4D4
:100EC00088818C30C4F180819181049680349C4962
:100ED00008F473C0F60180819181049670C0888106
:100EE0009801280F311D87FD3A952A153B05DCF640
:100EF0008881A801480F511D87FD5A95FA01EE0F10
:100F0000FF1FE40FF51FEE50F54F808186FFCBCF1A
:100F10008881F801E80FF11D87FDFA95CF01EE0FEA
:100F2000FF1FE80FF91FEE50F54F808160E08F73CF
:100F30000E948404B8CF808191812881A801420F4A
:100F4000511D27FD5A959A01FA01EE0FFF1FE20F7E
:100F5000F31FEE50F54F21813281820F931FF7016D
:100F60009183808388819801280F311D87FD3A95F0
:100F7000F901EE0FFF1FE20FF31FEE50F54F8081D6
:100F800086FF22C08881080F111D87FD1A95F80180
:100F9000EE0FFF1FE00FF11FEE50F54F808161E073
:100FA0008F73DF91CF911F910F91FF90EF90DF90A2
:100FB000CF90BF90AF900C94840480E49CE9F7013B
:100FC000918380838FEF8883DF91CF911F910F9161
:100FD000FF90EF90DF90CF90BF90AF900895209159
:100FE000A80A260F3327331F21323105ECF4209154
:100FF000CC0AFC0190E080E0243069F082E00895A2
:10100000A091A80A2191AC014857554FA40FB52FC4
:10101000B11D2C930196861798F38091A80A680F4A
:101020006093A80A80E0089581E0089508958FEF05
:101030009FEF08958FEF9FEF08958091810A90E0D0
:101040009195819591090895CF93DF93CB01EA01A2
:10105000642F0E94EF07CE01DF91CF910895CF93C7
:10106000DF931F92CDB7DEB7698361E0CE010196B1
:101070000E94EF0781E090E00F90DF91CF910895FB
:1010800090E080E00895CF93DF93FC012381222339
:1010900059F1EC0161E084810E94B20461E08D812C
:1010A0000E94B2048B81843011F08830B1F461E089
:1010B0008E810E94B20461E08F810E94B2048FA5EC
:1010C0008F3F91F061E00E94B2046EA581E0682735
:1010D0008FA5DF91CF910C948404833011F086307A
:1010E00071F761E08E81E9CFDF91CF910895CF93C1
:1010F000DF93FC0123812223A9F0EC010190F08110
:10110000E02D0480F581E02D60E019958FA58F3FDB
:1011100049F061E00E94B2046EA58FA5DF91CF91E6
:101120000C948404DF91CF910895DC01ED91FC9142
:1011300011972481358147705527662777274150BD
:10114000510961097109473051056105710570F454
:10115000FA018827E155F74F8F4F0C940635BA08EE
:10116000BC08BE08C008C208C408C60861E0CD01BA
:10117000F901199465E0FBCF64E0F9CF66E0F7CFA1
:1011800062E0F5CF6AE0F3CF68E0F1CF69E0EFCF3E
:10119000CF93DF93EC01CB01BA0126E030E040E0D1
:1011A00050E00E948334623071058105910589F118
:1011B0006CF46115710581059105D1F061307105FF
:1011C00081059105F9F0DF91CF91089564307105A3
:1011D0008105910561F124F1653071058105910565
:1011E00091F7E881F9810480F581E02D66E006C081
:1011F000E881F9810480F581E02D64E0CE01DF9182
:10120000CF911994E881F9810480F581E02D65E0A2
:10121000F5CFE881F9810480F581E02D61E0EECF22
:10122000E881F9810480F581E02D63E0E7CFE88172
:10123000F9810480F581E02D62E0E0CFDC01ED91E1
:10124000FC910480F581E02D4370552766277727B0
:10125000423051056105710571F04330510561055A
:10126000710559F0413051056105710511F065E0D6
:10127000199466E0FDCF6AE0FBCF69E0F9CFCF9328
:10128000DF93EC01CB01BA0123E030E040E050E015
:101290000E948334613071058105910599F06230B7
:1012A000710581059105A9F0672B682B692BC1F4A5
:1012B000E881F9810480F581E02D64E0CE01DF91C1
:1012C000CF911994E881F9810480F581E02D61E0E6
:1012D000F5CFE881F9810480F581E02D62E0EECF61
:1012E000DF91CF910895DC01ED91FC910480F581AF
:1012F000E02D437055276627772742305105610559
:10130000710571F0433051056105710559F04130A7
:1013100051056105710511F062E0199463E0FDCF9C
:1013200061E0FBCF60E0F9CFCF93DF93EC01E88180
:10133000F9810480F581E02D8A8160E0811162E00D
:10134000CE011995E881F9810480F581E02D8A812B
:1013500061E0811163E0CE0119958CA59DA58230D5
:10136000910538F0880F991F880F991F05970197ED
:10137000F1F7E881F9810480F581E02D8A8160E050
:10138000811162E0CE01DF91CF911994CF93DF9369
:10139000EC0120E030E0A9016C897D898E899F896C
:1013A0000E94233618162CF4E8A9F9A9DF91CF91F1
:1013B0001994EAA9FBA9FACFCF92DF92EF92FF929C
:1013C0000F931F93CF93DF93DC011396CC91C4301E
:1013D00039F0C83059F1C33019F0C63049F1C2E0D4
:1013E0008C010C5F1F4FF12CE12CC62ED12CD1E0CB
:1013F000F8016481C6010E2C02C0959587950A9468
:10140000E2F780FD6D270F5F1F4F80810E948404EB
:10141000BFEFEB1AFB0AEC1658F3DF91CF911F9147
:101420000F91FF90EF90DF90CF900895C4E0D8CF58
:10143000C3E0D6CFDC011396EC911397E93008F0A6
:1014400042C0F0E08827E85DF54F8F4F0C940635D9
:10145000310A390A400A470A4E0A630A550A630AE2
:101460005C0AED91FC9111970084F185E02DCD018E
:101470001994ED91FC9111970284F385E02DF7CF3B
:10148000ED91FC9111970484F585E02DF0CFED915D
:10149000FC9111970684F785E02DE9CFED91FC9141
:1014A00011970088F189E02DE2CFED91FC91119721
:1014B0000288F389E02DDBCFED91FC911197048830
:1014C000F589E02DD4CF08954F925F926F927F926D
:1014D0008F929F92AF92BF92CF92DF92EF92FF9244
:1014E0000F931F93CF93DF93EC01C888D988EA88C4
:1014F000FB888C859D85AE85BF85C81AD90AEA0A06
:10150000FB0A6C897D898E899F899B01AC010E94B1
:101510007A334B015C016C8D7D8D8E8D9F8D9B018F
:10152000AC010E940F359B01AC01C501B4010E94C2
:101530007B350E94ED35C114D104E104F10409F0BA
:10154000B1C062307105810591050CF0CBC01CA2C1
:101550001DA21EA21FA21C8A1D8A1E8A1F8A1CAAE7
:101560001DAA1EAA1FAADF91CF911F910F91FF9074
:10157000EF90DF90CF90BF90AF909F908F907F9033
:101580006F905F904F900895101611061206130683
:10159000B4F46C157D058E059F051CF42A8121117C
:1015A000A1C09B01AC0188279927DC01821B930B0A
:1015B000A40BB50B8CAB9DABAEABBFAB93C0011511
:1015C00011052105310509F48DC06C157D058E05C9
:1015D0009F050CF087C08A81882309F483C0309569
:1015E0002095109501951F4F2F4F3F4F0CAB1DAB12
:1015F0002EAB3FAB77C0011511052105310509F46C
:1016000071C08824992454018C189D08AE08BF0825
:10161000681579058A059B050CF064C08A818111E3
:1016200061C0DDCFCCACDDACEEACFFACA701960168
:10163000C701B6010E940F352B013C01C501B40161
:101640000E941B3320E030E040E850E40E947A33EF
:1016500020E030E040E85FE30E940F359B01AC01E1
:10166000C301B2010E947B359B01AC01C701B601E9
:101670000E940E353B016C01FE01E05CFF4FE080F3
:10168000F180028113819701A8010E942336181668
:1016900014F473018601C701D8018CAF9DAFAEAFC2
:1016A000BFAF3AC00CA91DA92EA93FA91C141D0447
:1016B0001E041F040CF468CF101611061206130640
:1016C0000CF099CF0027112798010C191D092E093C
:1016D0003F0960177107820793070CF062CF2A81D8
:1016E00021115FCF8CA89DA8AEA8BFA8811491043A
:1016F000A104B10409F096CF88AD99ADAAADBBADF8
:101700008CAF9DAFAEAFBFAF81E01C141D041E04B3
:101710001F040CF080E08A833FEF831A930AA30A28
:10172000B30A8CAA9DAAAEAABFAACCACDDACEEAC23
:10173000FFACC701B6010E94F4356CA37DA38EA354
:101740009FA3A701960160E074E284E799E40E94F8
:101750007B356C8B7D8B8E8B9F8B2A81211103CFE8
:1017600090586C8B7D8B8E8B9F8BFDCE8F929F9232
:10177000AF92BF92EF92FF920F931F93CF937C0192
:101780008B01C42F0E94C505F80180809180A28042
:10179000B380DC01CB0188199909AA09BB094C2F38
:1017A00050E070E060E084179507A607B70748F09F
:1017B000F70119950E94C505F80160837183828342
:1017C0009383CF911F910F91FF90EF90BF90AF90B7
:1017D0009F908F90089520917F0A3091800A280F62
:1017E000311D81E02D3D354008F080E00895FC0179
:1017F00084818823E1F08181811119C081E0818396
:1018000082819381FC0140895189628973894036C4
:1018100059476E4F7F4F59F040E659E76EEF7FEF23
:10182000FC01408B518B628B738B0C94640A08957E
:101830004F925F926F927F928F929F92AF92BF92E0
:10184000DF92EF92FF920F931F93CF93DF93D12CF0
:1018500008E810E0B8E5EB2EB2E0FB2EC4EB4C2E0E
:10186000512C612C712C8091A204D81608F096C0DE
:10187000ED2DF0E0EE0FFF1FE257FB4FC081D1814D
:1018800089899A89AB89BC894D855E856F85788900
:1018900084179507A607B70709F47AC048175907B0
:1018A0006A077B070CF076C00197A109B109898B03
:1018B0009A8BAB8BBC8BA989BA89A03282E0B8071E
:1018C000ACF52B854801821A910827FD9394880C6A
:1018D000991C880C991C092C000CAA08BB082C85A3
:1018E000C701821B910927FD93959C01220F331F8D
:1018F000220F331F032E000C440B550B28193909F6
:101900004A095B09A53BB10514F0A4EBB0E0B7FFB1
:1019100002C0B0E0A0E00E94AD34A30192010E9499
:101920008334820E931EA41EB51ED401EA85E033D3
:1019300078F52B85C801821B910927FD93959C01A1
:10194000220F331F220F331FA217B3077CF02C8501
:10195000C701821B910927FD93959C01220F331F1C
:10196000220F331FA217B3070CF49D012250310937
:10197000220F331F4FB7F8948E2F90E0FC01EE0F2B
:10198000FF1FE80FF91FEE50F54F328321834FBF41
:10199000D39469CF0196A11DB11D89CFDF91CF915D
:1019A0001F910F91FF90EF90DF90BF90AF909F90AD
:1019B0008F907F906F905F904F900895EF92FF927D
:1019C0001F93CF93DF93EC01162F8C8180FF10C003
:1019D000603170F46D837E0184E0E80EF11C612FAC
:1019E000617089910E9484041695EC16FD06B9F782
:1019F000DF91CF911F91FF90EF900895DF92EF92CA
:101A0000FF920F931F93CF93DF937C01D62FD42E99
:101A1000C0E00BE410E060E0F70182810E948404E2
:101A2000C8010197F1F76D2F661F6627661FF70142
:101A300081810E948404C8010197F1F761E0F701F8
:101A400082810E948404C8010197F1F7CF5FDD0F06
:101A5000DC12E1CFDF91CF911F910F91FF90EF90BA
:101A6000DF9008951F93CF93DF93EC01162F60E072
:101A700088810E94840444E060E8CE010E94FE0C4C
:101A800048E0612FCE010E94FE0C61E08881DF9169
:101A9000CF911F910C948404AF92BF92CF92DF92AA
:101AA000EF92FF920F931F93CF93DF93EC01162FCA
:101AB00069017A0160E088810E94840443E060EA61
:101AC000CE010E94FE0C612F660F660F46E0CE012C
:101AD0000E94FE0C10E09BE4A92EB12C60E08A81EC
:101AE0000E948404C5010197F1F76C2D6170898112
:101AF0000E948404C5010197F1F761E08A810E9488
:101B00008404C5010197F1F71F5FF694E794D79419
:101B1000C7940113E3CF61E08881DF91CF911F91DA
:101B20000F91FF90EF90DF90CF90BF90AF900C940B
:101B300084040F93FC01E60FF11D23A130E050E077
:101B400040E0660F08E00E944C0D0F9108959C0143
:101B50004D3008F04BE0D901A60FB11D93969C9132
:101B600093979170E42FF0E0E957FD4F8081982B17
:101B700093969C93C9010C94990DCF92DF92EF92AA
:101B8000FF920F931F93CF93DF938C01EB01683E7D
:101B9000734010F0C7EED3E08AE0E82EF12CCE01BE
:101BA000B7010E94DE346B01482F62E0C8010E9439
:101BB000A70DC601B7010E94DE34482F61E0C801BD
:101BC0000E94A70DCE0164E670E00E94DE34462F2D
:101BD00060E0C801DF91CF911F910F91FF90EF90CE
:101BE000DF90CF900C94A70D0F93FC01E60FF11D31
:101BF00023A130E050E040E0660F08E00E944C0D69
:101C00000F9108959C01DC01A60FB11D93969C9144
:101C1000939790714E3008F04DE0E42FF0E0E758D4
:101C2000FD4F8081982B93969C93C9010C94F40DE1
:101C3000CF93DF93EC0161E089810E94B20461E0FF
:101C40008A810E94B20461E088810E94B20461E04E
:101C500088810E94840461E08A810E94840461E09A
:101C600089810E948404FE013396A3961192EC1799
:101C7000FD07E1F7DF91CF910895DC01842FE0911A
:101C80006904F0916A04309719F04D915C911994B0
:101C900008954F925F926F927F928F929F92AF9230
:101CA000BF92CF92DF92FF920F931F93CF93DF9358
:101CB000F12C80915F04F81608F0EEC0EF2DF0E0F3
:101CC000EE0FFF1FE95CFB4FC081D1818A81882321
:101CD00009F4B3C088810E945B048C0189810E9451
:101CE0005B046C010E94C5054B015C0181E090E042
:101CF000CD2811F090E080E0880F991F21E0012BA2
:101D000009F020E0922F982B4B8D5C8D6D8D7E8D90
:101D100095018401041B150B260B370BB901A80193
:101D2000453651056105710508F489C08885823002
:101D300008F485C08B8E9C8EAD8EBE8E81508887B8
:101D4000EE859E1709F445C0888503E310E08730CF
:101D500010F401E010E06D8524E0E202F0011124AE
:101D6000492F092E000C550BE42BF52BE759FD4F9D
:101D7000708170039001719F300D1124062E02C0F6
:101D8000220F331F0A94E2F7EF85F8892E0F3F1FC9
:101D9000388B2F874C0F5D1FFA0141854423C1F01A
:101DA0004B885C886D887E884F8A588E698E7A8EC3
:101DB0008B8A9C8AAD8ABE8A02C0359527956A9522
:101DC000E2F73A8B298B8C3008F08BE08F5F8887A5
:101DD0009E8709891A898D819E810817190769F1E3
:101DE0009801281B390BC901E0913504F0913604A4
:101DF0006901CC0CDD1C309709F44BC04B815C8130
:101E00002F5C3F4F23363105E0F597FD30C06881E8
:101E100080E01995C00ED11E31E4C3163FE1D30610
:101E200054F08F85988983709927988B8F871A8AA9
:101E3000198A10E000E01E830D83F3943ACF4F8996
:101E4000588D698D7A8D95018401041B150B260B25
:101E5000370BB901A801453F51406105710508F4F0
:101E60006FCF8B8E9C8EAD8EBE8E188669CF6981AA
:101E700082E01995C8018C199D09803C904E8CF226
:101E8000DACF97FD03C0688181E0C3CF698183E029
:101E9000F0CF37FDEFCFBECFDF91CF911F910F91E4
:101EA000FF90DF90CF90BF90AF909F908F907F90EA
:101EB0006F905F904F900895CF92DF92EF92FF92D4
:101EC0000F931F93CF93DF936C017A0180913304BA
:101ED00090913404892B31F1D60113968C9100E155
:101EE00081FD08E0EB01CE25DF2510E0C0FF13C027
:101EF0008091330490913404892B69F0E09131048E
:101F0000F0913204309739F0D6014D915C91612FF8
:101F10008E2D81701995D695C795F694E7941F5F1D
:101F20000113E4CFDF91CF911F910F91FF90EF90BC
:101F3000DF90CF900895AF92BF92CF92DF92EF9251
:101F4000FF920F931F93CF93DF931F92CDB7DEB70E
:101F5000C0903304D0903404C114D10409F43FC0BC
:101F6000FC01238130E1B32E21FF02C028E0B22E14
:101F7000A62E8C01F60185818683F12CE12CBA9482
:101F80006B2DC6010E94DE0CF80182810E945B0469
:101F90008983F80182810E945B048983EE0CFF1C17
:101FA000298181E090E0211102C090E080E0E82AE0
:101FB000F92AB110E4CFF6016681C6010E94DE0C59
:101FC000F801648175816E157F0549F0AA2021F022
:101FD000A701C8010E945C0FF801F582E4820F900E
:101FE000DF91CF911F910F91FF90EF90DF90CF90F5
:101FF000BF90AF900895CF93C0E080913004C81790
:1020000068F4EC2FF0E0EE0FFF1FE85DFB4F61E09E
:10201000808191810E949B0FCF5FEFCFCF91089578
:10202000DC01E0912604F0912704309761F01396CB
:102030008C911397882339F04D915C9111971296EA
:102040006C9181E019940895DC01E0912604F091EF
:102050002704309759F013968C911397811106C07D
:102060004D915C91119712966C91199408951F935C
:10207000CF93DF9310E0809125041817F0F4E12F3F
:10208000F0E0EE0FFF1FE356FC4FC081D1818A8143
:102090000E945B049B81891751F091E0811101C07E
:1020A00090E09B83811105C0CE010E9424101F5F28
:1020B000E2CFCE010E941010FACFDF91CF911F9195
:1020C0000895FC01A08DB0E01396AA0FBB1FA80FC6
:1020D000B91F868997892D913C91821B930B978B11
:1020E000868B8281863308F0865320917B00982F5F
:1020F0009870277F922B90937B00877080648093E9
:102100007C0080917A00806480937A0080917A00CC
:1021100086FDFCCF9091780080917900A08DB0E091
:102120001396AA0FBB1FAE0FBF1F892798278927B9
:102130008D939C93A08DB0E01396AA0FBB1FAE0F9A
:10214000BF1F868997892D913C91820F931F978B92
:10215000868B808D8F5F808F808D8770808F0895B4
:10216000CF93C0E080919C03C81760F4EC2FF0E09F
:10217000EE0FFF1FE458FC4F808191810E94611097
:10218000CF5FF0CFCF910895CF93C0E080919C03B3
:10219000C817B8F5EC2FF0E0EE0FFF1FE458FC4F26
:1021A000A081B18156968D919C91579723E0969589
:1021B00087952A95E1F713962D913C911497AC01E0
:1021C000421B530B9A0157FF03C0319521953109EA
:1021D00015964C9115974217130609F084F414963E
:1021E0009C938E931397E0917A03F0917B03309741
:1021F00031F04D915C91119712966C911995CF5FCA
:10220000C5CFCF9108950E94C5056093DA0B7093F6
:10221000DB0B8093DC0B9093DD0B08950F931F93E2
:10222000CF93DF93082F162FD42FC8E06D2F661F92
:102230006627661F802F0E948404DD0F61E0812FD6
:102240000E94840460E0812F0E948404C15071F7D1
:10225000DF91CF911F910F910895EF92FF920F930D
:102260001F93CF93DF931F921F92CDB7DEB78C01E0
:1022700049832A83660F771FF801E688F788EE0CFA
:10228000FF1CCF01801B910B8E159F0514F411923A
:10229000F8CF8981F801E60FF71F81838A81808357
:1022A00060E0F80184890E9484041E141F046CF409
:1022B000F1E0EF1AF108F801EE0DFF1D4081F80181
:1022C000628980890E940E11F0CF61E0F801848953
:1022D0000F900F90DF91CF911F910F91FF90EF9092
:1022E0000C94840477FD0DC0FC01268937896217A0
:1022F00073073CF420E0411101C021E04CE00C9454
:102300002D110895FF920F931F93CF93DF93F82E13
:10231000C0E080918504C817B8F4EC2FF0E0EE0F10
:10232000FF1FEA57FB4F00811181D0E0F801808D3B
:102330008D1741F06D2F70E04F2DC8010E94721172
:10234000DF5FF4CFCF5FE5CFDF91CF911F910F918A
:10235000FF9008950F931F93CF93DF93FC01208D7F
:102360002223F9F06217E8F4062F10E04423B1F0BD
:10237000EC0186899789081719073CF42FEF240F81
:102380004AE0B801CF010E942D1140E0B801CE0112
:10239000DF91CF911F910F910C94721141E0B80120
:1023A000F7CFDF91CF911F910F910895FF920F9377
:1023B0001F93CF93DF93EC0160E088810E94840437
:1023C000FB800F2D10E00C5F1F4F0C0F1D1FFF2017
:1023D00049F0F80142918F0169818A810E940E11B2
:1023E000FA94F5CF61E08881DF91CF911F910F9131
:1023F000FF900C9484049F92AF92BF92CF92DF9291
:10240000EF92FF920F931F93CF93DF93EC01C62EB1
:1024100061E08B810E94840461E08A810E948404CF
:1024200010E08D81181708F03FC0DB80BC8087E08A
:10243000E82EF12C00E061E08D2D0E9484048B2DAC
:102440000E945B040E2C01C0880F0A94EAF7082B47
:1024500060E08D2D0E94840481E0E81AF10858F7AD
:102460005E01A10EB11CF501D780D016D9F0CC20A9
:10247000B9F0912E990C990C990CE02EF12C8D2D20
:102480008E2580FF07C04E2D4170692D6F0DCE0146
:102490000E943D0ED694E694F394F8E0FF12EFCF3D
:1024A000F50107831F5FBDCF60E08A81DF91CF9187
:1024B0001F910F91FF90EF90DF90CF90BF90AF9062
:1024C0009F900C948404CF93C0E080916804C81757
:1024D00068F4EC2FF0E0EE0FFF1FE05AFB4F61E0D5
:1024E000808191810E94FB11CF5FEFCFCF91089542
:1024F0007F928F929F92AF92BF92CF92DF92EF9294
:10250000FF920F931F93CF93DF93C0E08091250438
:10251000C81760F4EC2FF0E0EE0FFF1FE356FC4FFE
:10252000808191810E941010CF5FF0CFC0E0809138
:102530002504C81760F4EC2FF0E0EE0FFF1FE35600
:10254000FC4F808191810E942410CF5FF0CF10E07A
:1025500080916804181708F057C0E12FF0E0EE0FE3
:10256000FF1FE05AFB4FC081D18160E0CE010E9485
:10257000FB116E0187E0C80ED11C4601712CF12CB5
:10258000E12C8D818E151F04D9F0D4F0F4018191D6
:102590004F0100E0A82EB12C80FF06C041E0672D5E
:1025A000600FCE010E943D0EB594A7948A2D0F5F57
:1025B000083081F7FFEFEF1AFF0A88E0780EE1CFCD
:1025C000F12C912C812C8D8188151904D9F0D4F02F
:1025D000F60181916F0100E0A82EB12C80FD06C0AC
:1025E00040E06F2D600FCE010E943D0EB594A79480
:1025F0008A2D0F5F083081F7FFEF8F1A9F0A88E05E
:10260000F80EE1CF1F5FA4CF0E94031110E080916C
:1026100030041817E0F4E12FF0E0EE0FFF1FE85D43
:10262000FB4FC081D18160E0CE010E949B0F4C81A5
:102630005D8170E060E0CE010E945C0F4C815D81A5
:102640006FEF7FEFCE010E945C0F1F5FE0CFC0E015
:1026500080919C03C81718F5EC2FF0E0EE0FFF1FD8
:10266000E458FC4FA081B18156968D919C9157976B
:1026700023E0969587952A95E1F714969C938E937F
:102680001397E0917A03F0917B03309731F04D91ED
:102690005C91119712966C911995CF5FD9CFDF910C
:1026A000CF911F910F91FF90EF90DF90CF90BF904F
:1026B000AF909F908F907F9008950E949003882301
:1026C00059F081E080938B1380938C1380918D134C
:1026D00090918E130C947E3210928C1390E080E0D7
:1026E00008951F93CF93DF930E945D13EC010E9426
:1026F0005D13182F0E945D13CC0FDD1FCA57DB4FEF
:10270000482F612F888199810E94AA11DF91CF9172
:102710001F910C9403110C9471137F928F929F92CE
:10272000AF92BF92CF92DF92EF92FF920F931F93DF
:10273000CF93DF930E945D13EC010E945D138C0127
:102740000E94E1034C010E945D135C010E945D1335
:10275000CC0FDD1FCA57DB4FE880F980F701208DD1
:10276000222381F1C7E0D0E0712C6C01DD24112718
:10277000BB244C2F4F5F96010C2E02C03595279538
:102780000A94E2F720FF1CC0F70126893789021757
:102790001307ACF4F401E70DF11DE081F0E0E95915
:1027A000FB4F2491B5010C2E02C0759567950A94D4
:1027B000E2F760FD2068B801C7010E942D117394F3
:1027C0002197B8F6DF91CF911F910F91FF90EF9075
:1027D000DF90CF90BF90AF909F908F907F900C94A0
:1027E0000311CF930E945D13C82F0E945D13BC019B
:1027F0008C2F0E94EE04CF910C9403110E945D1364
:102800002091F40B821760F4FC01FF27EE0FFF1FED
:10281000E052F44F808191810E94F70B0C940311D8
:1028200008950F931F930E945D132091F40B82175C
:1028300008F047C0FC01FF27EE0FFF1FE052F44FE6
:10284000A081B1811296ED91FC91139714861586A3
:1028500016861786108A118A128A138A14AA15AA54
:1028600016AA17AA14A215A216A217A2148A158ACC
:10287000168A178A1C968C911C978823F1F0129661
:102880008D919C9113971A964C9150E051954195DA
:102890005109052E000C660B770BFC01008911898C
:1028A00022893389401751076207730731F0408B43
:1028B000518B628B738B0E94640A1F910F910C9451
:1028C00003111F910F9108958F929F92AF92BF9223
:1028D000CF92DF92EF92FF921F93CF93DF930E94EC
:1028E0005D13EC010E945D13BC018091A2048C1762
:1028F0001D0609F00CF4DCC0CC0FDD1FC257DB4F06
:102900000990D881C02DCD80DE800D2C000CEE0802
:10291000FF0889809A80092C000CAA08BB082F8127
:102920003885032E000C440B550B2C193D094E091C
:102930005F09072E000C880B990B681979098A0921
:102940009B090E9451342B813C81032E000C440BC7
:10295000550B281939094A095B090E948334BA01C9
:10296000A9014C0D5D1D6E1D7F1D052E000C660B13
:10297000770B8D859E85AF85B88984179507A60747
:10298000B70709F45CC04D875E876F87788B8985B0
:10299000811155C08A85803308F04FC0188161E0ED
:1029A000812F0E94B2048A85282F30E0F901EE0FB2
:1029B000FF1FE20FF31FEE50F54F1F739081907CC5
:1029C000912B90831B861C862CE0622F0E94C434BE
:1029D000829FB001112430E020E0AB01420F531F71
:1029E000FA01EE0FFF1FE40FF51FEE50F54F908137
:1029F00096FD16C02F5F3F4F2C30310571F78130A7
:102A000059F51092800082E0809381001092850039
:102A100010928400B19A80916F00826080936F0061
:102A2000EA858E2F90E0FC01EE0FFF1FE80FF91FE3
:102A3000EE50F54F80818064808381E08987DF914B
:102A4000CF911F91FF90EF90DF90CF90BF90AF900C
:102A50009F908F900C940311823061F4109290003B
:102A600080939100109295001092940088BB8093FF
:102A70007100D6CF833069F41092A00082E0809379
:102A8000A1001092A5001092A40089BB809372004F
:102A9000C7CF8111C5CF1092200182E08093210120
:102AA00010922501109224018ABB80937300B8CF45
:102AB000DF91CF911F91FF90EF90DF90CF90BF906B
:102AC000AF909F908F900895209102123091031241
:102AD0008217930710F40C943B3480E008950F9311
:102AE0001F93CF93DF938C01EB01F80180819181DB
:102AF0009C012F5F3F4F318320830E946415288102
:102B00003981A9014F5F5F4F59834883265E334F58
:102B1000F901808328813981283EF3E03F0760F482
:102B20008A3319F7275E334FF901108281E0DF9174
:102B3000CF911F910F91089580E0F9CFEF92FF920E
:102B40000F931F93CF93DF93EC01E0900212F0906C
:102B50000312888199818C010F5F1F4F19830883AD
:102B60000E946415E016F10650F08A3391F781E077
:102B7000DF91CF911F910F91FF90EF90089580E02A
:102B8000F7CFAF92BF92CF92DF92EF92FF920F9367
:102B90001F93CF93DF9300D01F92CDB7DEB75C01B8
:102BA00019821A821B821C82CE0101967C0110E0E0
:102BB00000E06C01F501808191819C012F5F3F4F06
:102BC000318320830E946415F7018083F8018E32DF
:102BD00041F00F5F1F4F8FEFE81AF80A043011051C
:102BE00049F7EC0DFD1D1082C6010E947E320F9048
:102BF0000F900F900F90DF91CF911F910F91FF9049
:102C0000EF90DF90CF90BF90AF900895FB010190BF
:102C10000020E9F73197AF01461B570BDC01ED911E
:102C2000FC910280F381E02D19948091C1128823D8
:102C3000A1F06091941380919213909193130E944C
:102C4000D1058091C912882341F060EC72E0809137
:102C50009213909193130E9406161092C81210922C
:102C6000C11280E008958F929F92AF92BF92EF922F
:102C7000FF920F931F93CF93DF93CDB7DEB7A1974A
:102C80000FB6F894DEBF0FBECDBF7C01FA01CB01B9
:102C900019A2223008F42AE08E010F5D1F4F822E08
:102CA000912CB12CA12CBF01A50194010E9461348B
:102CB000F901CA016A300CF5605DD8016E938D018F
:102CC000232B242B252B79F790E080E0109721F01F
:102CD000BD01C7010E940616A1960FB6F894DEBF8B
:102CE0000FBECDBFDF91CF911F910F91FF90EF905D
:102CF000BF90AF909F908F900895695CDECFCF9387
:102D00009091C1129923A9F0C82F609195138091D9
:102D10009213909193130E94D1054C2F50E070E0D4
:102D200060E02AE08091921390919313CF910C94DC
:102D30003316CF9108959091C112911110C091E076
:102D40009093C1129093C812482F50E070E060E059
:102D50002AE080919213909193130C943316089566
:102D6000CF93DF939091C11291111AC0EB010E9491
:102D70009B168091C112882379F060919513809100
:102D80009213909193130E94D105BE0180919213EA
:102D9000909193130E94D805DF91CF910C94151652
:102DA00080E0DF91CF9108950E94C5056093DA0B12
:102DB0007093DB0B8093DC0B9093DD0B64EB72E084
:102DC00085E00C94B0161F93CF93DF9310922504E7
:102DD00010925F041092D90B90918504E6E8F4E01C
:102DE00080E0981731F0A191B19158961C928F5FB5
:102DF000F8CF109285043091A204CEE8D4E020E010
:102E00003217D1F0A991B99119968C91199788230D
:102E100089F01A96EC911A978E2F90E0FC01EE0F34
:102E2000FF1FE80FF91FEE50F54F80818F7B8083E5
:102E300019961C922F5FE4CF1092A2049091F40B8C
:102E4000E0EEFBE080E0981729F0A191B1911C928F
:102E50008F5FF9CF1092F40B2091780330E0A1E757
:102E6000B4E0C7E7D4E090E080E08217930784F4F1
:102E7000E991F991309719F044A9411114AAED9103
:102E8000FD91309719F043A9411113AA0196EDCF96
:102E90001092780310929C0390917903EDE7F4E08F
:102EA00080E0981759F0A191B19118962C9118973C
:102EB000222311F018961C928F5FF3CF10927903A2
:102EC00090916804E0E6F4E080E0981731F0A19179
:102ED000B19116961C928F5FF8CF1092680410E0A3
:102EE000E09130041E1798F4F0E0EE0FFF1FE85D4C
:102EF000FB4FC081D1818B8180FF07C062E08A8156
:102F00000E94B2048B818E7F8B831F5FE9CF10926A
:102F100030041092880B1092870B1092DF0B1092E6
:102F2000800A10927F0A68EB72E085E0DF91CF9112
:102F30001F910C94B0166BEB72E08FE00C94B016FE
:102F400020917F0A3091800A820F932F911D9093D8
:102F5000800A80937F0A8C3D954040F068E275E0DE
:102F600085E00E94B01690E080E00895C9018D557B
:102F70009B4F0895CF92DF92EF92FF920F931F9392
:102F8000CF93DF9390915F04943109F45EC079018F
:102F9000142FC62ED82E8FE10E94EB0B81110DC08D
:102FA00067E474E085E0DF91CF911F910F91FF906E
:102FB000EF90DF90CF900C94B0168FE10E94A01795
:102FC000EC01892B09F01A8200915F04E02FF0E0F8
:102FD000EE0FFF1FE95CFB4FD183C0831E821D8271
:102FE000FC82EB82D882C98285E0819FF0011124A6
:102FF000E05BFD4FDE01199601900D928A95E1F795
:1030000062E08D2D0E94B20462E089810E94B204C8
:103010001E86188A1F861A8A198A18861F8A188E91
:10302000198E1A8E84EF91E0A0E0B0E08B8B9C8B20
:10303000AD8BBE8B81E08A838FEA98E19093360452
:10304000809335040F5F00935F04DF91CF911F9150
:103050000F91FF90EF90DF90CF90089581E08093E3
:10306000DF0B6EEB72E081E10C94B016CF93DF932F
:103070000E9403118AE00E949B168091870B909119
:10308000880B892B91F18BE390E00E946415C82F87
:103090008091C112882379F06091951380919213E9
:1030A000909193130E94D1056C2F8091921390916F
:1030B00093130E94D105C1E0D0E08091870B9091DD
:1030C000880BC817D90788F4CE01CB960E946415E7
:1030D0009091C112992339F0682F809192139091A9
:1030E00093130E94D1052196E8CFDF91CF910C94E4
:1030F0001516CF93DF932091C1122223A1F0EC018A
:103100006091951380919213909193130E94D10531
:10311000209749F0BE018091921390919313DF9113
:10312000CF910C940616DF91CF9108950F931F93C2
:10313000CF93DF93C82FD62F8A018DE10E949B1673
:10314000C8010E9479188D2F0E947F168C2F0E9433
:103150007F16DF91CF911F910F910C9415160F934D
:103160001F93CF93C82F8A0186E00E949B16C80147
:103170000E9479188C2F0E947F16CF911F910F917A
:103180000C9415160F931F93CF93DF93C82FD62F50
:103190008A018EE10E949B16C8010E9479188D2F2A
:1031A0000E947F168C2F0E947F16DF91CF911F9176
:1031B0000F910C9415160F931F93CF93C82F8A016C
:1031C00087E00E949B16C8010E9479188C2F0E94EC
:1031D0007F16CF911F910F910C941516CF92DF920D
:1031E000EF92FF92CF93DF936C01EA018CE10E9492
:1031F0009B16CE010E9479188091C112882321F17B
:103200006091951380919213909193130E94D10530
:10321000C0919213D09193130D2C000CEE08FF086F
:103220002AE0B701A601F7FE0CC06DE2CE010E94B4
:10323000D10544275527BA014C195D096E097F094C
:103240002AE0CE010E943316DF91CF91FF90EF90DC
:10325000DF90CF900C9415161F93CF93DF9385EDDD
:103260008093BC008091840A9091850AA091860A7F
:10327000B091870A0796A11DB11D23E0B695A795C9
:10328000979587952A95D1F72091BC0024FD03C01E
:103290001092CC0A52C04091840A5091850A6091E4
:1032A000860A7091870A452B462B472B69F30097B6
:1032B000A105B10541F025E32A95F1F7000001973A
:1032C000A109B109E1CF8091830AC1E0C093820ACC
:1032D000882399F1D091B8001091BA008091BC0078
:1032E0008A7B8093BC0060E084E10E94840460E0FB
:1032F00085E10E9484041092CC0AC093CE0A1092F9
:10330000CD0A61E084E10E94840461E085E10E94CD
:1033100084048091B9008E7F8093B9008091B900B8
:103320008D7F8093B90088E48093B80085E4809312
:10333000BC001093BA00D093B800DF91CF911F91D9
:1033400008954F925F926F927F928F929F92AF9269
:10335000BF92CF92DF92EF92FF92CF93DF93EC0177
:103360006A017B0120E030E0A901CB01B6010E9497
:10337000143387FF04C0F7FAF094F7F8F0948C8CBC
:103380009D8CAE8CBF8CA7019601C501B4010E9433
:103390001433882309F449C06CA97DA98EA99FA97B
:1033A0000E941B332B013C01A7019601C501B4010A
:1033B0000E947B359B01AC01C301B2010E947A33AC
:1033C0000E94ED356CAB7DAB8EAB9FABA701960138
:1033D00060E070E080E090E40E947B350E942E3631
:1033E00026E53EE04DE25FE30E947A3320E034E2DE
:1033F00044E759E40E947A3368AF79AF8AAF9BAF54
:10340000CC8EDD8EEE8EFF8ECE01DF91CF91FF90C0
:10341000EF90DF90CF90BF90AF909F908F907F9074
:103420006F905F904F900C94640ADF91CF91FF9062
:10343000EF90DF90CF90BF90AF909F908F907F9054
:103440006F905F904F900895EF920F93CF93DF931B
:10345000EC0188E992E0998388836B831C861D8642
:103460001E861F86188A198A1A8A1B8A1C8A1D8A38
:103470001E8A1F8A80E090E0A0E8BFE3888F998FC2
:10348000AA8FBB8F1C8E1D8E1E8E1F8E88A399A3A4
:10349000AAA3BBA31CA21DA21EA21FA261E070E0F2
:1034A0007DA76CA73FEF3FA718A619A61AA61BA6D3
:1034B0004C832D830E83EF821EA61CAA1DAA1EAA72
:1034C0001FAA18AE19AE1AAE1BAE1CAE1DAE1EAEB4
:1034D0001FAEFE01E05CFF4F80839183A283B38324
:1034E0001A82188619861A861B86CE010E94430806
:1034F00040E050E060E87FE3CE01DF91CF910F9193
:10350000EF900C94A1198F929F92AF92BF92CF929D
:10351000DF92EF92FF920F931F93CF93DF930E945E
:103520005D13EC010E945D138C010E945D137C0110
:103530008091F40BC81708F078C0DD27CC0FDD1F91
:10354000C052D44FC880D980F601C281D381B8015E
:1035500090E080E00E9419334B015C01288D398D89
:103560004A8D5B8D0E9414338823F1F1888E998EE9
:10357000AA8EBB8E8E01005C1F4FA501940160E0F6
:1035800074E284E799E40E947B35F80160837183DB
:10359000828393838CA99DA9AEA9BFA91816190689
:1035A0001A061B060CF56C897D898E899F899B0103
:1035B000AC010E947A334B015C016C8D7D8D8E8D48
:1035C0009F8D9B01AC010E940F359B01AC01C50191
:1035D000B4010E947B350E94ED356CAB7DAB8EABA8
:1035E0009FABCE010E94640AB70190E080E00E9488
:1035F00019334B015C0120E030E0A9010E94143333
:10360000882399F0B501A401F60182819381DF91AD
:10361000CF911F910F91FF90EF90DF90CF90BF90CF
:10362000AF909F908F900C94A119DF91CF911F9133
:103630000F91FF90EF90DF90CF90BF90AF909F9051
:103640008F9008954F925F926F927F928F929F9288
:10365000AF92BF92CF92DF92EF92FF920F931F93A0
:10366000CF93DF93D02E9091F40B9A3009F44AC097
:103670000E2DB22EE42E162FF82E8EE00E94EB0BAC
:10368000811115C068E075E085E0DF91CF911F9151
:103690000F91FF90EF90DF90CF90BF90AF909F90F1
:1036A0008F907F906F905F904F900C94B0168EE04B
:1036B0000E94A017EC01892B09F01882E091F40B0D
:1036C000F0E0EE0FFF1FE052F44FD183C08384E49B
:1036D0000E94EB0B811127C067EE74E085E00E9429
:1036E000B016C091F40BDD2051F0EC2FF0E0EE0F9E
:1036F000FF1FE052F44F808191810E94F70BCF5F52
:10370000C093F40BDF91CF911F910F91FF90EF9039
:10371000DF90CF90BF90AF909F908F907F906F90F1
:103720005F904F900895013009F48EC028F0023068
:1037300009F496C01882D5CF84E4FE100EC01B1188
:103740000CC00E94A0174C01892B99F095E0E92E3E
:1037500004E0212F4F2D61E009C00E94A0174C0109
:10376000892B39F00F2D212F4B2D64E0C4010E94CD
:10377000241A9B828A82EA80FB8020E030E048ECB9
:1037800053E4F701608D718D828D938D0E94143307
:10379000882309F440C080E090E0A8ECB3E4F7018E
:1037A000808F918FA28FB38F80E090E4ACE1B5E47D
:1037B000E05CFF4F80839183A283B383F70184A9E8
:1037C00095A9A6A9B7A9181619061A061B061CF56D
:1037D00064897589868997899B01AC010E947A3337
:1037E0002B013C01F701648D758D868D978D9B01B2
:1037F000AC010E940F359B01AC01C301B2010E94D4
:103800007B350E94ED35F70164AB75AB86AB97ABAA
:10381000C7010E94640A40E050E068E474E48A81D1
:103820009B810E94A119DC8281E08D83DD2021F043
:1038300062E08D2D0E94B204CA86AB8681E0888347
:1038400019828D878C874DCF84E40E94A0174C018C
:10385000892B09F48ECF0F2D212F4B2D68E086CFB9
:1038600084E46FCF8F929F92AF92BF92CF92DF92FC
:10387000EF92FF92CF93DF930E945D13EC01B82E7D
:103880000E949003882309F48FC081E080938B13FA
:1038900080938C1380918D1390918E130E949C3293
:1038A0006B017C018091F40BB81608F083C0DD2712
:1038B000CC0FDD1FC052D44F0990D881C02D198282
:1038C0008E819F81A885B985C816D906EA06FB06B0
:1038D00009F45EC08A819B81DC011C968D909D90CD
:1038E000AD90BC901F972B85222351F02D8522236C
:1038F00039F0ED91FC910280F381E02D19951D8640
:103900008C85882379F0C814D904EA04FB0454F4A4
:103910008E819F81A885B985C816D906EA06FB065F
:103920000CF41C868C85811110C08C149D04AE048F
:10393000BF045CF48E819F81A885B9858C159D0597
:10394000AE05BF0514F481E08C878A819B814A858E
:103950002C85429FA0011124052E000C660B770BCD
:103960004C0D5D1D6E1D7F1DFC0180889188A28815
:10397000B388481559056A057B0531F0408B518B9A
:10398000628B738B0E94640ACE82DF82E886F9869E
:10399000DF91CF91FF90EF90DF90CF90BF90AF90ED
:1039A0009F908F900C94031110928C13C12CD12CEA
:1039B000760178CFDF91CF91FF90EF90DF90CF909D
:1039C000BF90AF909F908F900895FF920F931F9399
:1039D000CF93DF930E945D13EC010E94E1038C0101
:1039E0000E945D13F82ECC0FDD1FC358DB4F0990EA
:1039F000D881C02D8885882369F163EC72E0C80105
:103A00000E94CC3201E010E0009709F10E947E3262
:103A10009885992391F0982F9770980101C0220FF3
:103A20009A95EAF7869586958695FE01E80FF11D31
:103A30008481FF2049F0282B248363EC72E090E01E
:103A400080E00E94CC32E0CF20952823F5CFCE0134
:103A50000E94D611DF91CF911F910F91FF900C948E
:103A600003116F927F928F929F92AF92BF92CF92EB
:103A7000DF92EF92FF920F931F93CF93DF93EC01AE
:103A8000CB0165EC72E00E94CC328C012AE0E22E80
:103A9000F12C34E6632E712C48EEC42E43E0D42E74
:103AA0000115110509F4EAC06DE370E0C8010E9438
:103AB000A837812C912C5401009749F0FC011192F8
:103AC000CF010E947E324C01990FAA08BB0867EC17
:103AD00072E0C8010E94B337892B09F04FC0F0E1B2
:103AE0008F16F7E29F0620F09FE0892E97E2992E2D
:103AF000C401B7010E94DE348B01482F63E0CE0180
:103B00000E94020EC801B7010E94DE34482F62E015
:103B1000CE010E94020EC401B3010E94DE34CB012B
:103B2000B7010E94DE34482F61E0CE010E94020EF0
:103B3000C401B6010E94DE34462F60E0CE010E942F
:103B4000020E8CA18F7E8CA361E0CE010E94F40D49
:103B50008DA18F7E8DA362E0CE010E94F40D8EA117
:103B600080618EA363E0CE010E94F40D65EC72E0EB
:103B700090E080E00E94CC328C0192CF6EEC72E03B
:103B8000C8010E94B337892B09F043C080E1881631
:103B900087E2980620F08FE0882E87E2982EC401F5
:103BA000B7010E94DE348B01482F63E0CE010E94F2
:103BB000020EC801B7010E94DE34482F62E0CE0138
:103BC0000E94020EC401B3010E94DE34CB01B70192
:103BD0000E94DE34482F61E0CE010E94020EC40133
:103BE000B6010E94DE34462F60E0CE010E94020E34
:103BF0008CA180618CA361E0CE010E94F40D8DA1A7
:103C000080618DA362E0CE010E94F40D8EA18F7EB3
:103C1000A8CF65ED72E0C8010E94B337892B09F087
:103C2000A5CF8A948928F1F445E060E0CE010E9496
:103C3000020E4BE061E0CE010E94020E4CE062E019
:103C4000CE010E94020E4DE063E0CE010E94020E02
:103C50008CA18F7E8CA361E0CE010E94F40D8DA11A
:103C60008F7ECFCF4DE060E0CE010E94020E4DE08E
:103C700061E0CE010E94020E4DE0E1CFDF91CF91D5
:103C80001F910F91FF90EF90DF90CF90BF90AF907A
:103C90009F908F907F906F9008950F931F93CF9375
:103CA000DF93EC010E94180E60E3CE010E94320DFA
:103CB00062E5CE010E94320D62E0CE010E94320D1B
:103CC00066E0CE010E94320D10E004E020E030E01A
:103CD000A901612FCE010E944C0D1F5F1032A9F780
:103CE000A39680E1FE0111928A95E9F761E085E2F1
:103CF0000E94B20461E085E2DF91CF911F910F91A4
:103D00000C9484042F923F924F925F926F927F9215
:103D10008F929F92AF92BF92CF92DF92EF92FF92DB
:103D20000F931F93CF93DF93CDB7DEB7C854D1095C
:103D30000FB6F894DEBF0FBECDBF0E945D1327966D
:103D40009FAF8EAF27970E94E1037C0180E29E0126
:103D50002F5F3F4F25963FAF2EAF2597F901282FB4
:103D600011922A95E9F71E0131E2230E311CF1016F
:103D700011928A95E9F74FE150E0B701CE01019623
:103D80000E94C3374FE150E0B701C1010E94C33721
:103D90000091770410917804F80184A9882309F42C
:103DA000F9C265EC72E0C7010E94CC326C019AE066
:103DB000492E512C612C712CC114D10409F4EAC292
:103DC0006DE370E0C6010E94A83723969FAF8EAFC7
:103DD00023970097E9F1FC011192CF012396FFAFE1
:103DE000EEAF23974AE050E0BE016F5B7F4F0E9429
:103DF0007B31F62EE72E28968FAF289729969FAF16
:103E000029976CED72E0C6010E94B337892B49F502
:103E1000F80182A9806882AB6FE0C8010E94990D09
:103E2000F80182A98F7B82AB84A18E7F84A36FE08F
:103E3000C8010E94990D6F2D7E2DC8010E94BD0DF5
:103E400065EC72E090E080E00E94CC326C01B4CF6F
:103E5000F12CE12C28961FAE289729961FAE2997A2
:103E6000D0CF63EE72E0C6010E94B337892B79F49C
:103E7000F80182A98F7782AB6FE0C8010E94990D8B
:103E8000F80182A9806482AB84A18160CFCF6BEE00
:103E900072E0C6010E94B337892B69F5C701C92EAC
:103EA000DE2CF8EECF16F3E0DF0620F087EEC82E0A
:103EB00083E0D82EBAE0EB2EF12CC601B7010E94A8
:103EC000DE345B01482F65E0C8010E94A70DC501E3
:103ED000B7010E94DE34482F64E0C8010E94A70D9C
:103EE000C60164E670E00E94DE34462F63E0C8013C
:103EF0000E94A70DA5CF62EF72E0C6010E94B33702
:103F0000892B09F060C08F2C9E2C2896AFAC289787
:103F10002996BFAC299720EA821626E8920621E06E
:103F2000A206B10438F0AFE98A2EA6E89A2EAA2498
:103F3000A394B12CC501B401A30192010E94613484
:103F400069017A01462F6AE0C8010E94A70DC701E6
:103F5000B601A30192010E946134462F69E0C801B5
:103F60000E94A70DC501B40124E630E040E050E016
:103F70000E946134CA01B901A30192010E94613417
:103F8000462F68E0C8010E94A70DC501B40128EEC4
:103F900033E040E050E00E946134CA01B901A3015E
:103FA00092010E946134462F67E0C8010E94A70D6C
:103FB000C501B40120E137E240E050E00E946134E5
:103FC000422F66E094CF69EF72E0C6010E94B337DA
:103FD000892B09F054C0C701E92EF82EF80181A9F8
:103FE00090A927A52E7F9E7F8E7FF0E1EF16F7E246
:103FF000FF06DCF531EFE31638EDF30644F0F7FC8D
:104000000AC0E114F104A9F5F80190AB0BC0F1EF7F
:10401000EF2EF8EDFF2EF194E194F108F80190AB4A
:1040200093A9892B81AB27A74CE06EE0C8010E94C1
:10403000A70D4CE06DE0C8010E94A70DC70164E622
:1040400070E00E94F234CB016AE070E00E94F2342A
:10405000482F6CE0C8010E94A70DC70168EE73E00D
:104060000E94F234462F6BE042CFEFE0EE2EE7E203
:10407000FE2EF80133A9932B90AB832BD3CF6FEF98
:1040800072E0C6010E94B337892BC9F58F2DF80164
:1040900091A920A937A543A984367CF58D392CF048
:1040A000F7FC04C02E7F242B03C08DE981952E7F61
:1040B000F80120AB9E7F942B91AB316037A76AE06B
:1040C0000E94D034F82E492F6CE0C8010E94A70D41
:1040D0004F2D6BE0C8010E94A70DF80180A98170E7
:1040E00080AB81A9817081AB6DE0C8010E94990D00
:1040F0006EE0C8010E94990DA3CE83E6D3CF66E09F
:1041000073E0C6010E94B337892BE1F4F11017C0A8
:104110007BE0F72E4F2D60E0C8010E94A70D4F2DC8
:1041200061E0C8010E94A70D4F2D62E0C8010E9406
:10413000A70DF80184A18E7F84A36FE0DACF6AE037
:10414000F62EE8CF61E173E0C6010E94B337892BF8
:10415000A1F4F1100FC05BE0F52E4F2D63E0C80114
:104160000E94A70D4F2D64E0C8010E94A70D4F2D9E
:1041700065E0BDCE4AE0F42EF0CF6CE173E0C601FD
:104180000E94B337892BF1F4F11019C03BE0F32EF4
:104190004F2D66E0C8010E94A70D4F2D67E0C801B2
:1041A0000E94A70D4F2D68E0C8010E94A70D4F2D5A
:1041B00069E0C8010E94A70D4F2D6AE098CE2AE061
:1041C000F22EE6CF67E273E0C6010E94B337892B77
:1041D00011F5F80181A9F11016C08E7F81AB9BE02B
:1041E000F92E4F2D6BE0C8010E94A70D4F2D6CE0FA
:1041F000C8010E94A70D4F2D6DE0C8010E94A70DB8
:104200004F2D6EE074CE816081AB80A98E7F80AB34
:104210008AE0F82EE6CF61E373E0C6010E94B3376F
:10422000892B61F4F80186A18E7F91E0F11001C025
:1042300090E0892BF80186A363E05BCF6BE373E02A
:10424000C6010E94B337892B61F4F80180A58E7FE7
:1042500091E0F11001C090E0892BF80180A765E0A2
:1042600048CF65E473E0C6010E94B337892B61F43F
:10427000F80186A58E7F91E0F11001C090E0892BB6
:10428000F80186A76BE035CF6FE473E0C6010E94AA
:10429000B337892B09F0D4CDF80192A99F7D84A56D
:1042A0008E7FF1103CC0906292AB816084A76FE07A
:1042B000C8010E94990D69E0C8010E94990DF8019A
:1042C00082A98F7E82AB83A58E7F83A76FE0C80112
:1042D0000E94990D68E0C8010E94990DF80182A919
:1042E000846082AB82A5816082A76FE0C8010E94D2
:1042F000990D67E0C8010E94990DF80182A9877F96
:1043000082AB81A58E7F81A76FE0C8010E94990DC5
:1043100066E0C8010E94990DF80110AE91CD92ABF4
:1043200084A76FE0C8010E94990D69E0C8010E944E
:10433000990DF80182A9806182AB83A5816083A772
:104340006FE0C8010E94990D68E0C8010E94990DB4
:10435000F80182A98B7F82AB82A58E7F82A76FE056
:10436000C8010E94990D67E0C8010E94990DF801EB
:1043700082A9886082AB81A5816081A76FE0C801B6
:104380000E94990D66E0C8010E94990D21E0F80194
:1043900020AF56CD27968EAD9FAD2797019739F563
:1043A0008091730490917404FC0123A9BE016F5F96
:1043B0007F4F21112CC00E940311C85BDF4F0FB645
:1043C000F894DEBF0FBECDBFDF91CF911F910F914B
:1043D000FF90EF90DF90CF90BF90AF909F908F9025
:1043E0007F906F905F904F903F902F900895279609
:1043F0002EAD3FAD279722303105E9F680916F044D
:1044000090917004FC0123A92223A9F2B1010E941A
:10441000311DD1CFFF920F931F93CF93DF938C0168
:10442000EB01F8800E943B34F81621F06F2DC80193
:104430000E944334CE01DF91CF911F910F91FF90E5
:104440000895AF92BF92CF92DF92EF92FF920F93B7
:104450001F93CF93DF930E9403110E94E1036C012D
:10446000EC0109900020E9F72197C81BD90BDD2743
:10447000E090870BF090880BC70101968C0F9D1F71
:10448000883D954008F053C05E018FEFA81AB80A26
:104490002BE3E20EF11C95012E0D3F1D80910212BF
:1044A000909103128217930778F010E000E0B601B4
:1044B000600F711FC701800F911F0E940A220F5FBA
:1044C0001F4F0A151B0598F34091870B5091880BDD
:1044D000C40FD51FD093880BC093870B8091C11256
:1044E000811147C085E00E949B168091C1128823EC
:1044F00091F06091951380919213909193130E9483
:10450000D105AE0170E060E02AE0809192139091B5
:1045100093130E943316DF91CF911F910F91FF905B
:10452000EF90DF90CF90BF90AF900C9415168091D4
:10453000C11281111EC085E00E949B168091C1129C
:10454000882349F36091951380919213909193136E
:104550000E94D105C0919213D09193136DE2CE01C8
:104560000E94D1052AE041E050E060E070E0CE0119
:10457000D0CFDF91CF911F910F91FF90EF90DF90FF
:10458000CF90BF90AF900895CF93DF930E94E10347
:10459000FC0190E3A6E1B2E001900D929A95E1F75B
:1045A0008091021290910312892B29F063E290E02E
:1045B00080E00E9443348091021290910312C097D0
:1045C00060F0D0E0C0E0BE016A5E7D4F2196CE0172
:1045D0000E940A22CF32D105B1F78091C112811118
:1045E0000BC085E00E949B1686E192E00E9479183C
:1045F000DF91CF910C941516DF91CF9108954F92D2
:104600005F926F927F928F929F92AF92BF92CF9262
:10461000DF92EF92FF92CF93DF930E94C505611561
:1046200071058105910511F00E9472310E942331BC
:104630002B013C010E9423314B015C01CC24CA9424
:104640008FE0D82EE12CF12CC301B201A701960115
:104650000E9483347F936F93C501B401A701960133
:104660000E9483347F936F938CE593E09F938F93A5
:1046700080E092E09F938F930E94D2378DB79EB7D0
:1046800008960FB6F8949EBF0FBE8DBF80910212A0
:1046900090910312CB9760F0C0E3D0E0BE0160536D
:1046A0007E4FCE010E940A222196CB33D105B1F76D
:1046B000DF91CF91FF90EF90DF90CF90BF90AF90C0
:1046C0009F908F907F906F905F904F9008950E9481
:1046D000FF228091C112811109C08AE00E949B16BD
:1046E00080E092E00E9479180C9415160895EF92DC
:1046F000FF920F931F93CF93DF9380E390E00E948C
:104700006415833509F048C081E390E00E94641588
:104710008E3409F049C08091021290910312CB9718
:1047200070F000E012E0C0E3D0E0CE010E943B3424
:10473000F80181938F012196CB33D105B1F70E9407
:1047400003118AE00E949B168091C112882381F098
:104750006091951380919213909193130E94D105CB
:1047600063E374E080919213909193130E94D805B3
:1047700086E192E00E94791880E092E00E94791828
:1047800082E793E00E947918DF91CF911F910F91FA
:10479000FF90EF900C941516893431F481E390E08A
:1047A0000E946415843471F00E94FF2280910212ED
:1047B00090910312CC9718F260E08BE390E00E9496
:1047C0004334BDCF69E673E080E092E00E94BC37DD
:1047D00082EFE82E81E1F82ED0E0C0E00DE613E094
:1047E000F70181917F011F928F931F930F93CE0149
:1047F0008D5F9D4F9F938F930E94D23722960F908B
:104800000F900F900F900F900F90C231D10541F78C
:1048100096CF2F923F924F925F926F927F928F929C
:104820009F92AF92BF92CF92DF92EF92FF920F933F
:104830001F93CF93DF9300D01F92CDB7DEB7809147
:10484000870B9091880B892B09F43CC58BE390E092
:104850009A8389831C821B82CE0101960E94C11516
:10486000882309F42FC5B3E2DB2E15E2B12E04E252
:10487000902E90E2892E24EB222E312CEFEFE80FC0
:10488000EF3008F0A7C00E2E000CFF0B8827E45B6A
:10489000FB4D8F4F0C9406355B248726B824EF24FC
:1048A000C8253526AF269A26EB25F62793276528B7
:1048B000EA24CA280826CE0101960E94C115E82ED6
:1048C000809125048434D9F184E00E94EB0B61ECE3
:1048D00072E0882309F4A7C46B807C8084E00E9486
:1048E000A0178C010097C1F0DC011296EC92129790
:1048F000C301865E934F8D939C9362E08E2D0E9440
:10490000B204F80182810E945B0421E0892B09F442
:1049100020E0D80113962C9380912504E82FF0E035
:10492000EE0FFF1FE356FC4F11830083EBEDF8E120
:10493000F0932704E09326048F5F80932504BE0143
:104940006D5F7F4FCE0101960E946F15182FCE012B
:1049500001960E94C115882309F4B1C411118ECFAC
:104960001092011069E174E085E00E94B016AAC4BB
:10497000CE0101960E94C115E82E8091D90B883294
:1049800049F182E00E94EB0B6FED72E0882309F49D
:10499000B2C282E00E94A0178C01009771F0DC0186
:1049A000EC9211961C9261E08E2D0E94B204F801E7
:1049B000618170E080810E94EE048091D90BE82F24
:1049C000F0E0EE0FFF1FE757F44F118300838F5F76
:1049D0008093D90BCE0101960E949E15B7CFCE01D0
:1049E00001960E94C115F82ECE0101960E94C115B4
:1049F000582ECE0101960E94C115482ECE01019677
:104A00000E94C115A82ECE0101960E94C115C82E84
:104A1000809185048430F1F289E10E94EB0B6DEF07
:104A200072E0882309F467C289E10E94A0178C0113
:104A3000009719F0DC0158961C926F2C0F2C000C7B
:104A40007708E0908504EE2DF0E0EE0FFF1FEA57A7
:104A5000FB4F11830083F801718A608A842D440C16
:104A6000990B938B828B852D550C990B958B848B91
:104A70002C2D2150330B2830310508F45CC088E020
:104A800090E0D80157969C938E93569761E08F2DB6
:104A90000E94B20461E0F80182890E94B20461E0E0
:104AA000D80154968C910E94B20461E0F801848987
:104AB0000E948404D80151967C926E925097712C7A
:104AC000612CF8018689978968167906B4F520E08B
:104AD0004FE0B301C8010E942D11D80156968D9167
:104AE0009C916816790634F427E04BE0B301C801C5
:104AF0000E942D1120E049E0B301C8010E942D1150
:104B0000F801868997896816790664F455245394C8
:104B100020E0452DB301C8010E942D115394F9E006
:104B20005F12F6CF41E0B301C8010E9472112FEF6E
:104B3000621A720AC6CF8C2DA3CFC08EC12CF80189
:104B4000808DC81608F54A2D6C2DC8010E94AA1147
:104B50006C2C712C40E0B301C8010E947211D80185
:104B600056968D919C916816790664F45524539459
:104B700020E0452DB301C8010E942D115394B9E0E6
:104B80005B12F6CFC394DBCFE394E092850422CF8F
:104B9000CE0101960E94C115182FCE0101960E94E8
:104BA000C115782ECE0101960E94C115682ECE0146
:104BB00001960E94C115582ECE0101960E94C11582
:104BC000A12CC12CE12C00E0252D462D672D812F35
:104BD0000E94221BFFCECE0101960E94C115182F04
:104BE000CE0101960E94C115782ECE0101960E9439
:104BF000C115682ECE0101960E94C115582ECE0116
:104C000001960E94C115A12CC12CE12C082FDCCFEC
:104C1000CE0101960E94C115182FCE0101960E9467
:104C2000C115782ECE0101960E94C115682ECE01C5
:104C300001960E94C115582ECE0101960E94C11501
:104C4000082FCE0101960E94C115E82ECE010196D3
:104C50000E94C115C82ECE0101960E94C115AA243A
:104C6000A3948111B1CFA12CAFCFCE0101960E94A8
:104C7000C115182F8091A2048A3009F4ABCE87E1C8
:104C80000E94EB0B6EE173E0882309F434C187E1E5
:104C90000E94A017FC01892BB9F08091820B803310
:104CA00098F591E0980F9093820B828790E0DC0159
:104CB000AA0FBB1FA80FB91FAE50B54F28EB3BE0A2
:104CC00012963C932E9311978091A204A82FB0E0E6
:104CD000AA0FBB1FA257BB4FED93FC9311861586FD
:104CE00016861786108A118A128A138A148A1282EB
:104CF00011823482238216821582308627821083A5
:104D00008F5F8093A20466CE8FEF8287DDCFCE01C6
:104D100001960E94C115182FCE0101960E94C1155F
:104D20002B813C81265E334F40E0682F812F0E940B
:104D3000BA1705CECE0101960E94C115182FCE01DB
:104D400001960E94C115082FCE0101960E94C1153F
:104D50002B813C81265E334F482F602FE7CFCE0159
:104D600001960E94C115CE0101960E94C115CE0187
:104D700001960E94C115082F813009F084C010915E
:104D80007803133009F426CE89E30E94EB0B6CE321
:104D900073E0882309F4AFC089E390E00E94833672
:104DA0003C012CE0DC012C9388E011968C93119748
:104DB0009BE012969C931297D3960C93D397E12F76
:104DC000F0E0EE0FFF1FE958FB4F71826082D5962D
:104DD0002C93D597D6969C93D697D7968C93D797A6
:104DE000D4960C93C3010E94180E60E3C3010E9485
:104DF000320D62E5C3010E94320D62E0C3010E94E0
:104E0000320D66E0C3010E94320DE12C04E020E087
:104E100030E0A9016E2DC3010E944C0DE394B0E275
:104E2000EB12F4CFF301B396DF0120E11D922A9536
:104E3000E9F761E08AE00E94B20461E08AE00E9442
:104E40008404D301D2968C91D2978160D2968C93B0
:104E50006FE0C3010E94990DF30182A9826082ABC9
:104E60006FE0C3010E94990DD30197968C9197979B
:104E7000816097968C9364E0C3010E94990D1F5F37
:104E800010937803A7CD823039F510917803133051
:104E900009F4A0CD87E30E94EB0B68E573E088235B
:104EA00051F187E390E00E948336FC01808282E228
:104EB000818391E29283A12FB0E0AA0FBB1FAF586C
:104EC000BB4FED93FC9384AA95AB86AB81E083AB9B
:104ED000CF010E944D1ED3CF833009F07BCD1091BE
:104EE0007803133009F476CD87E30E94EB0B811130
:104EF00006C064E773E085E00E94B0166BCD87E3DF
:104F000090E00E948336FC01D082B1829282A12F70
:104F1000B0E0AA0FBB1FA559BB4F8D939C93D4AA99
:104F200095AAB6AAD3CFCE0101960E94C115E82E4C
:104F3000CE0101960E94C115C82E80919C0380313C
:104F400009F4FDCC8DE10E94EB0B60E973E088234E
:104F500009F469C16B807C808DE10E94A0178C01EF
:104F6000009781F1FC013696DF0120E11D922A9520
:104F7000E9F7DC0157961C921E92569758961C92A0
:104F800058971596CC9215971296EC921297C301EA
:104F9000865E934F8D939C9362E08E2D0E94B204A7
:104FA00058E0E52EC8010E946110EA94E110FACFA2
:104FB000F8018689978943E0969587954A95E1F7A8
:104FC0009483838380919C03E82FF0E0EE0FFF1F12
:104FD000E458FC4F118300832EEE38E130937B03BD
:104FE00020937A038F5F80939C03A9CCCE01019616
:104FF0000E94C115C82ECE0101960E94C115482EEF
:10500000CE0101960E94C115582ECE0101960E9434
:10501000C115A82E80917903843009F4DBCC89E096
:105020000E94EB0B60EB73E0882309F464CF89E006
:105030000E94A0178C01E09079036E2C712C660CF5
:10504000771CF301E358FB4F9183808381E0D80103
:1050500018968C931897CC9211964C9211971296A1
:105060005C9212971396AC9261E08C2D0E94B20470
:1050700061E0F80181810E94B20461E0D8011296DA
:105080008C910E94B204F8019381349680E09817C5
:1050900019F011928F5FFBCFC8010E94D611F30166
:1050A000E358FB4F80819181DC0113963C91FC0118
:1050B000349620E0321719F011922F5FFBCF0E9437
:1050C000D611E394E092790385CCCE0101960E943B
:1050D000C115E82ECE0101960E94C115582ECE01B1
:1050E00001960E94C115A82ECE0101960E94C115FD
:1050F000C82E80916804843009F421CC8BE00E9492
:10510000EB0B65ED73E0882309F48DC06B807C8028
:105110008BE00E94A0178C01009731F0FC011682F1
:105120001782108611861286E0916804F0E0EE0F77
:10513000FF1FE05AFB4F11830083F801E282538284
:10514000A482C301865E934F91838083C58261E010
:105150008E2D0E94B20461E0D80113968C910E94BA
:10516000B20460E0F80184810E94B20481E0D801B9
:1051700016968C9360E0C8010E94FB11E6E9F8E105
:10518000F0936A04E0936904809168048F5F8093D0
:105190006804D5CBCE0101960E94C115E82ECE0140
:1051A00001960E94C115C82ECE0101960E94C1151C
:1051B000082FCE0101960E94C115182FCE0101962D
:1051C0000E94C115C092FB110093FC111093FD11B8
:1051D0008093FE111092FF110BEF11E161E0D801F5
:1051E0008D918D010E94B204B1E10F3F1B07B1F711
:1051F0008091FF1181608093FF1160E08BEF91E15E
:105200000E94DE0CCE0101960E94C115C82E80912D
:105210003004843009F493CB86E00E94EB0B8111BB
:1052200006C069EF73E085E00E94B01688CB6B8002
:105230007C8086E00E94A0178C01009759F0EBEF6C
:10524000F1E1F0933404E0933304DC0115961C92F1
:105250001E921497E0913004F0E0EE0FFF1FE85D1E
:10526000FB4F11830083F801E282C301865E934FF6
:1052700091838083F1E0CF16F1F0D80113961C9250
:1052800062E08E2D0E94B204D80113968C91139780
:10529000816013968C9360E0C8010E949B0FE2EC42
:1052A000F8E1F0933204E0933104809130048F5F91
:1052B0008093300444CB82E0F8018383E1CF112353
:1052C00009F44ECB0F900F900F900F90DF91CF917C
:1052D0001F910F91FF90EF90DF90CF90BF90AF9014
:1052E0009F908F907F906F905F904F903F902F9006
:1052F00008950E9409240C942E181F920F920FB645
:105300000F9211242F933F938F939F93AF93BF934B
:105310008091160C9091170CA091180CB091190C5B
:105320003091150C23E0230F2D3758F50196A11D60
:10533000B11D2093150C8093160C9093170CA0931D
:10534000180CB093190C8091110C9091120CA09133
:10535000130CB091140C0196A11DB11D8093110C7A
:105360009093120CA093130CB093140CBF91AF91B7
:105370009F918F913F912F910F900FBE0F901F9093
:10538000189526E8230F0296A11DB11DD2CF1F92BA
:105390000F920FB60F9211240BB60F922F933F93DB
:1053A0004F935F936F937F938F939F93AF93BF932D
:1053B000EF93FF9384E092E10E947506FF91EF91D5
:1053C000BF91AF919F918F917F916F915F914F911D
:1053D0003F912F910F900BBE0F900FBE0F901F901B
:1053E00018951F920F920FB60F9211240BB60F92C1
:1053F0002F935F936F937F938F939F93AF93BF93FD
:10540000EF93FF93E0911412F09115128081E091D7
:105410001A12F0911B1282FD26C0208180911D126C
:1054200090E0019660E670E00E94DE3490911E12DA
:10543000981741F0E0911D12F0E0EC5FFD4E258FD2
:1054400080931D12FF91EF91BF91AF919F918F912A
:105450007F916F915F912F910F900BBE0F900FBEB8
:105460000F901F9018958081EDCF1F920F920FB66D
:105470000F9211240BB60F922F933F934F935F938C
:105480006F937F938F939F93AF93BF93EF93FF930C
:1054900048E251E064E271E090E080E00E9435076C
:1054A000FF91EF91BF91AF919F918F917F916F91FC
:1054B0005F914F913F912F910F900BBE0F900FBEB8
:1054C0000F901F9018951F920F920FB60F921124F4
:1054D0000BB60F922F933F934F935F936F937F93EE
:1054E0008F939F93AF93BF93EF93FF9348EA50E05E
:1054F00064EA70E083E090E00E943507FF91EF914D
:10550000BF91AF919F918F917F916F915F914F91DB
:105510003F912F910F900BBE0F900FBE0F901F90D9
:1055200018951F920F920FB60F9211240BB60F927F
:105530002F933F934F935F936F937F938F939F939B
:10554000AF93BF93EF93FF9348E950E064E970E0B5
:1055500082E090E00E943507FF91EF91BF91AF91FB
:105560009F918F917F916F915F914F913F912F917B
:105570000F900BBE0F900FBE0F901F9018951F92AB
:105580000F920FB60F9211240BB60F922F933F93E9
:105590004F935F936F937F938F939F93AF93BF933B
:1055A000EF93FF9348E850E064E870E081E090E01A
:1055B0000E943507FF91EF91BF91AF919F918F911D
:1055C0007F916F915F914F913F912F910F900BBE03
:1055D0000F900FBE0F901F9018951F920F920FB64D
:1055E0000F9211240BB60F922F933F934F935F931B
:1055F0006F937F938F939F93AF93BF93EF93FF939B
:105600008091B900887F803609F44DC008F040C011
:10561000883209F4A7C028F5803109F49BC0C8F48A
:10562000882309F4F7C0883009F494C0FF91EF9102
:10563000BF91AF919F918F917F916F915F914F91AA
:105640003F912F910F900BBE0F900FBE0F901F90A8
:105650001895883109F486C0803241F78093CB0ACF
:1056600014C0803409F49BC040F48033B9F388330C
:10567000E9F68093CB0A85ECAEC0803509F483C08F
:10568000883509F494C0883489F60E942C19CECF4D
:10569000883909F48AC038F5883729F050F48836FB
:1056A00011F0803719F683E08093CC0A1092CA0A71
:1056B00055C0883809F479C0803919F0803809F06C
:1056C000B5CF8091CA0A803208F06FC0E091CA0A53
:1056D00081E08E0F8093CA0A8091BB00F0E0E6550E
:1056E000F54F80833BC0803B39F0D0F4803A09F419
:1056F00077C0883A09F09ACF84E08093CC0A109260
:10570000A90A1092A80AF0E0E0E019958091A80A91
:1057100081110FC081E08093A80A1092880A09C005
:10572000803C09F4A8CF883C09F4A5CF883B09F058
:105730007DCFE091A90A81E08E0F8093A90AF0E065
:10574000E857F54F80818093BB009091A90A809122
:10575000A80A29C08091F10A8093BB0085EC809350
:10576000BC0064CF9091F00A8091EF0A981758F529
:10577000E091F00A81E08E0F8093F00AF0E0E153AF
:10578000F54F8081E9CFE091F00A81E08E0F8093A0
:10579000F00A8091BB00F0E0E153F54F80839091D7
:1057A000F00A8091EF0A9817C8F285E8D8CFE09107
:1057B000F00A81E08E0F8093F00A8091BB00F0E048
:1057C000E153F54F80838091CE0A81115ECF81E055
:1057D0008093CD0A84EA8093BC001092CC0A26CF35
:1057E00085EC8093BC001092CC0A8091CA0A80326A
:1057F00030F4E091CA0AF0E0E655F54F108260916E
:10580000CA0A70E08AEA9AE0F0E0E0E019951092A6
:10581000CA0A0CCF1092CB0A38CF109207121092FE
:10582000061288EE93E0A0E0B0E080930812909317
:105830000912A0930A12B0930B1282EB92E090939C
:1058400005128093041285EC90E0909311128093DE
:10585000101284EC90E0909313128093121280EC5B
:1058600090E0909315128093141281EC90E0909345
:1058700017128093161282EC90E090931912809385
:10588000181286EC90E090931B1280931A121092DB
:105890001D1210921E1210921F1210922012A2EFCF
:1058A000B1E190E080E041E2FC013E9621E030E091
:1058B0008630910510F430E020E0E20FF31F4093B2
:1058C0005700E491ED9301968930910569F71092A4
:1058D000FF118FEF8093FB118093FC118093FD11DA
:1058E0008093FE11109203121092021210929813DC
:1058F0001092971384E092E1909393138093921304
:105900001092C9128CE2809395138BE380939413C9
:105910008FE28093961380E68093C4128FE5809384
:10592000C5121092C31210928E1310928D13109202
:10593000901310928F1381E080938B13E9E9F3E1C8
:105940008FED93E1119211928E179F07D9F7109264
:10595000C8120895789484B5826084BD84B581604E
:1059600084BD85B5826085BD85B5816085BD80912A
:105970006E00816080936E001092810080918100A2
:10598000826080938100809181008160809381009A
:10599000809180008160809380008091B10084605C
:1059A0008093B1008091B00081608093B0008091BD
:1059B000910082608093910080919100816080933A
:1059C0009100809190008160809390008091A1006F
:1059D00082608093A1008091A10081608093A100EA
:1059E0008091A00081608093A0008091210182605D
:1059F0008093210180912101816080932101809118
:105A0000200181608093200180917A0084608093DE
:105A10007A0080917A00826080937A0080917A0087
:105A2000816080937A0080917A00806880937A0008
:105A30001092C100E0911412F091151282E080835F
:105A4000E0911012F09111121082E0911212F09177
:105A5000131280E1808310921C12E0911812F091D1
:105A6000191286E08083E0911612F091171280815E
:105A700080618083E0911612F09117128081886016
:105A80008083E0911612F0911712808180688083E4
:105A9000E0911612F091171280818F7D808380E053
:105AA00090E1909303128093021284ED96E190931B
:105AB00098138093971381E793E190939A138093BF
:105AC00099138DE893E190939C1380939B138BE83B
:105AD00093E19093CE138093CD1381EF93E1909354
