:100000000C94FC020C942D030C942D030C942D03E2
:100010000C942D030C942D030C942D030C942D03A0
:100020000C942D030C942D030C942D030C942D0390
:100030000C942D030C942D030C942D030C942D0380
:100040000C942D030C94B0240C942D030C942D03CC
:100050000C942D030C942D030C942D030C944E2220
:100060000C942D030C94C2220C9498220C942D0312
:100070000C942D030C942D030C942D030C942D0340
:100080000C9482240C942D030C942D030C942D03BA
:100090000C942D030C942D030C942D030C94062327
:1000A0000C942D030C942D030C9454240C942D03C8
:1000B0000C942D030C942D030C942D030C942624E6
:1000C0000C942D030C942D030C942D030C942D03F0
:1000D0000C942D030C942D030C942D030C942D03E0
:1000E0000C942D030C94C1070C940E100C94350540
:1000F0000C9409040C9413040C9450060C94DE2404
:100100000C944E050C9476070C9438090C942B052E
:100110000C94CC140C9494070C9493080C94D31D59
:100120000C94B5140C94D9100C94C7070C948E1031
:100130000C94B5050C946C050C94FB030C94671F90
:100140000C944A220C94C3070C94E0030C94EE0424
:100150000C94321C0C94FF170C9405040C94C508E5
:100160000C94470E0C94F7030C943E1F0C943E081D
:100170000C9462050C94D2030C9408060C9442076C
:100180000C94ED030C94BD070C94F21F0C94F30433
:100190000C9405130C9446090C94291E0C94F1033D
:1001A0000C94BF070C94601E0C94BA130C942A1084
:1001B0000C94BB070C94E7030C94FD040C945B09AE
:1001C0000C94AB170C94FA200C9419050C94E514BC
:1001D0000C9430090C949D060C9407200C94AF10DD
:1001E0000C94DF1F0C94F1050C94AD1C0C941413AB
:1001F0000C94DC030C9454210C94D8030C94F81444
:100200000C9476050C9472080C94751D0C94FF03E5
:100210000C9417040C9407050C94E4030C9412043A
:100220000C9411050C9428100C941D080C944B1878
:100230000C94B9070C9421050C9416060C949B1091
:100240000C9480050C94C3210C943F050C940D0470
:100250000C94E6040C943F090C9454090C940B156F
:100260000C9462090C94C5070C94E2050C94580593
:100270000C9419090C94DB080C944D090C948D1FF7
:100280000C9455146E2F61004F4B004F4B004F4B99
:1002900000427574746F6E20646F6573206E6F74A6
:1002A0002066697420696E204D656D6F7279004F0C
:1002B000757470757420646F6573206E6F7420663A
:1002C000697420696E204D656D6F727900375365D2
:1002D000676D656E7420646F6573206E6F74206641
:1002E000697420696E204D656D6F727921005365C8
:1002F00072766F20646F6573206E6F742066697408
:1003000020696E204D656D6F727921004C43442049
:10031000646F6573206E6F742066697420696E2047
:100320004D656D6F727921004C434420646F657395
:10033000206E6F742066697420696E204D656D6F44
:1003400072792100416E616C6F67496E20646F6540
:1003500073206E6F742066697420696E204D656D20
:100360006F7279004F75747075745368696674653F
:100370007220646F6573206E6F74206669742069E3
:100380006E204D656D6F727900496E70757453689B
:10039000696674657220646F6573206E6F74206681
:1003A000697420696E204D656D6F727900466169D0
:1003B0006C757265206F6E2072656164696E67206E
:1003C000636F6E66696700456E636F646572732064
:1003D000646F6573206E6F742066697420696E2087
:1003E0004D656D6F7279007E306D79335B5F707F24
:1003F0007B771F0D3D4F470000000000000000000C
:1004000000000000000000000000000000000000EC
:10041000000000800180257E306D79335B5F707F46
:100420007B00000009000000777F4E7E4F475F375A
:10043000307C000E00767E677E775B463E000000D3
:10044000336D4E13780008007D1F0D3D4F477B37FD
:100450003038000600151D6773055B0F1C00000097
:10046000276D4E007800004D4653746570706572BC
:1004700020646F6573206E6F742066697420696EE6
:10048000204D656D6F7279005374657070657220D0
:10049000646F6573206E6F742066697420696E20C6
:1004A0004D656D6F727921004465766963654275AB
:1004B00066666572204F766572666C6F7721004CB8
:1004C0006F6164696E6720636F6E6669672066613D
:1004D000696C65640000002100240027002A002DBB
:1004E000003000330001010000040107010A01008F
:1004F000002200250028002B002E003100340002CD
:10050000010000050108010B010000200023002666
:100510000029002C002F003200000100000301061A
:10052000010901050505050705080808080202027A
:10053000020A0A080804040404010101010101017E
:10054000010303030303030303040707070C0C0C55
:100550000C0C0C0C0C02020202060606060606062D
:10056000060B0B0B0B0B0B0B0B01021020200808CA
:100570001020401020408002010201080402010105
:1005800002040810204080804020100804020180EE
:100590000402018040201008040201080402010145
:1005A000020408102040800102040810204080004E
:1005B000000A0B02090C0D0E0807030401000000DD
:1005C000000000000000000000000000000000002B
:1005D00000000000000000000000001211100000E8
:1005E000000000000000000000000000000000000B
:1005F000000000000000DE2411241FBECFEFD1E276
:10060000DEBFCDBF00E00CBF13E0A0E0B2E0E0ED44
:10061000FAE600E00BBF02C007900D92A637B107C3
:10062000D9F723E1A6E7B3E001C01D92A23BB207D0
:10063000E1F712E0CCEFD2E000E006C0219701091B
:10064000802FFE010E94DA2FCB3FD10780E0080700
:10065000A9F70E9459250C9466350C940000AC0152
:1006600010929D1290916D1380916C13FA01BF014D
:10067000641B750B20919D12308130939D12931352
:1006800004C0921302C010929D123081311104C037
:10069000921721F0CB0108953817D1F33196E7CFA7
:1006A0000F931F93CF93DF9380916113882309F4F5
:1006B00046C0D0E0C0E0813029F482E0809361132D
:1006C000C1EAD2E180916213882341F1209721F49D
:1006D000C0916613D09167138E01CE010E942F0343
:1006E000892B29F42196F80180818111F5CFF80139
:1006F0008081882309F1C8010E942F03F801E80FC7
:10070000F91F8081882311F010823196F0936713CE
:10071000E093661310936513009364138091641340
:1007200090916513892B59F081E080936213DF91DA
:10073000CF911F910F91089510E000E0EBCF80E082
:10074000F6CF0E945003882351F081E0809362131A
:1007500080936313809164139091651308951092B0
:10076000631390E080E008958150823108F05AC010
:10077000E82FF0E08827E054FC4F8F4F0C94DA2FDD
:10078000E003E403D203D803DC031204E703ED0320
:10079000F103F703FB03FF030504090412040D042E
:1007A00013041704809180008F7780938000089550
:1007B000809180008F7DF9CF80918000877FF5CF79
:1007C00084B58F7784BD089584B58F7DFBCF8091EC
:1007D000B0008F778093B00008958091B0008F7D36
:1007E000F9CF809190008F77809390000895809149
:1007F00090008F7DF9CF80919000877FF5CF809119
:10080000A0008F778093A00008958091A0008F7D35
:10081000F9CF8091A000877FF5CF809120018F775D
:10082000809320010895809120018F7DF9CF8091E0
:100830002001877FF5CFCF93DF93282F30E0F90198
:10084000E155FA4F8491F901E759FA4FD491F90132
:10085000ED5DFA4FC491CC23A1F081110E94B40345
:10086000EC2FF0E0EE0FFF1FE75FFA4FA591B49178
:10087000EC91ED2381E090E009F480E0DF91CF91ED
:10088000089580E090E0FACF1F93CF93DF93282F55
:1008900030E0F901E155FA4F8491F901E759FA4F37
:1008A000D491F901ED5DFA4FC491CC23A9F0162F34
:1008B00081110E94B403EC2FF0E0EE0FFF1FE15115
:1008C000FB4FA591B4918FB7F894EC91111108C02A
:1008D000D095DE23DC938FBFDF91CF911F910895D8
:1008E000DE2BF8CFCF93DF9390E0FC01E759FA4F6E
:1008F00024918D5D9A4FFC0184918823C9F090E08A
:10090000880F991FFC01EB52FB4FA591B491FC019C
:10091000E151FB4FC591D49161110DC09FB7F8947F
:100920008C91209582238C938881282328839FBFD4
:10093000DF91CF910895623051F49FB7F8943C91C4
:10094000822F809583238C93E8812E2BEFCF8FB756
:10095000F894EC912E2B2C938FBFEACF1F93CF935B
:10096000DF93182FEB0161E00E947204209739F4A5
:1009700060E0812FDF91CF911F910C944404CF3F11
:10098000D10511F461E0F5CFE12FF0E0E155FA4F28
:10099000E491E150E23108F0B3C0F0E08827EC5276
:1009A000FB4F8F4F0C94DA2FE604EE04F304FD04A2
:1009B000070580051105190521052B0535053F059E
:1009C0004E055805800562056C05760584B580687E
:1009D00084BDC7BDDF91CF911F91089584B580621A
:1009E00084BDC8BDF7CF809180008068809380006F
:1009F000D0938900C0938800EDCF80918000806201
:100A000080938000D0938B00C0938A00E3CF8091C5
:100A10008000886080938000D0938D00C0938C000C
:100A2000D9CF8091B00080688093B000C093B300AC
:100A3000D1CF8091B00080628093B000C093B400A9
:100A4000C9CF80919000806880939000D0939900E6
:100A5000C0939800BFCF80919000806280939000F7
:100A6000D0939B00C0939A00B5CF8091900088608E
:100A700080939000D0939D00C0939C00ABCF809159
:100A8000A00080688093A0008091A0008F7B80935D
:100A9000A000D093A900C093A8009CCF8091A00093
:100AA00080628093A000D093AB00C093AA0092CF45
:100AB0008091A00088608093A000D093AD00C09387
:100AC000AC0088CF80912001806880932001D09372
:100AD0002901C09328017ECF8091200180628093FC
:100AE0002001D0932B01C0932A0174CF8091200163
:100AF000886080932001D0932D01C0932C016ACF90
:100B0000C038D1050CF03ECF33CF863308F0865382
:100B100020917B00982F9870277F922B90937B00D9
:100B20008770806480937C0080917A0080648093D9
:100B30007A0080917A0086FDFCCF809178009091B8
:100B4000790008952FB7F8946091FD0B7091FE0B1A
:100B50008091FF0B9091000C2FBF0895DC01ED9167
:100B6000FC910190F081E02D1994AF92BF92CF9249
:100B7000DF92EF92FF920F931F93CF93DF936C015D
:100B80007B018B01040F151FEB015E01AE18BF083E
:100B9000C017D10759F06991D601ED91FC910190F0
:100BA000F081E02DC6011995892B79F7C501DF91F8
:100BB000CF911F910F91FF90EF90DF90CF90BF905A
:100BC000AF900895FC01538D448D252F30E0842F84
:100BD00090E0821B930B541710F0CF960895019765
:100BE0000895FC01918D828D981779F0A28DAE0F3A
:100BF000BF2FB11D5D962C91828D8F5F60E60E94A4
:100C0000982F928F822F90E008958FEF9FEF089595
:100C1000FC01918D828D981731F0828DE80FF11DC6
:100C2000858D90E008958FEF9FEF0895FC01918DE1
:100C3000228D892F90E0805A9F4F821B910960E698
:100C400070E00E94B22F08958BED91E10E9416068C
:100C500021E0892B09F420E0822F0895FC01A48D66
:100C6000A80FB92FB11DA358BF4F2C91848D90E0D0
:100C700001968F739927848FA689B7892C93A089B1
:100C8000B1898C91837080648C93938D848D98133B
:100C900006C00288F389E02D80818F7D80830895CE
:100CA000EF92FF920F931F93CF93DF93EC0181E0BC
:100CB000888F9B8D8C8D98131AC0E889F989808163
:100CC00085FF15C09FB7F894EE89FF896083E88996
:100CD000F98980818370806480839FBF81E090E088
:100CE000DF91CF911F910F91FF90EF900895F62E15
:100CF0000B8D10E00F5F1F4F0F731127E02E8C8DAF
:100D00008E110CC00FB607FCFACFE889F9898081F3
:100D100085FFF5CFCE010E942E06F1CFEB8DEC0FB3
:100D2000FD2FF11DE358FF4FF0829FB7F8940B8F12
:100D3000EA89FB8980818062CFCFCF93DF93EC017A
:100D4000888D8823B9F0AA89BB89E889F9898C91B3
:100D500085FD03C0808186FD0DC00FB607FCF7CF6F
:100D60008C9185FFF2CF808185FFEDCFCE010E946F
:100D70002E06E9CFDF91CF91089580E090E0892B96
:100D800029F00E94240681110E94000080E090E07A
:100D9000892B49F080E090E0892B29F00E94000027
:100DA00081110E94000080E090E0892B49F080E0F2
:100DB00090E0892B29F00E94000081110E94000020
:100DC00080E090E0892B49F080E090E0892B29F0C9
:100DD0000E94000081110C94000008952091A30945
:100DE000260F3327331F21323105ECF42091C70938
:100DF000FC0190E080E0243069F082E00895A09149
:100E0000A3092191AC014D57564FA40FB52FB11D29
:100E10002C930196861798F38091A309680F60932D
:100E2000A30980E0089581E0089508958FEF9FEF72
:100E300008958FEF9FEF089580917C0990E0919540
:100E4000819591090895CF93DF93CB01EA01642F37
:100E50000E94EE06CE01DF91CF910895CF93DF93EC
:100E60001F92CDB7DEB7698361E0CE0101960E9483
:100E7000EE0681E090E00F90DF91CF91089590E031
:100E800080E00895CF93DF93FC012381222359F161
:100E9000EC0161E084810E94720461E08D810E9416
:100EA00072048B81843011F08830B1F461E08E815E
:100EB0000E94720461E08F810E9472048FA58F3FAF
:100EC00091F061E00E9472046EA581E068278FA511
:100ED000DF91CF910C944404833011F0863071F788
:100EE00061E08E81E9CFDF91CF910895CF93DF93B9
:100EF000FC0123812223A9F0EC010190F081E02D77
:100F00000480F581E02D60E019958FA58F3F49F0B1
:100F100061E00E9472046EA58FA5DF91CF910C94C1
:100F20004404DF91CF910895DC01ED91FC9111977C
:100F3000248135814770552766277727415051090D
:100F400061097109473051056105710570F4FA01B5
:100F50008827E255F84F8F4F0C94DA2FB907BB075B
:100F6000BD07BF07C107C307C50761E0CD01F90190
:100F7000199465E0FBCF64E0F9CF66E0F7CF62E05B
:100F8000F5CF6AE0F3CF68E0F1CF69E0EFCFCF9320
:100F9000DF93EC01CB01BA0126E030E040E050E005
:100FA0000E94252F623071058105910589F16CF44D
:100FB0006115710581059105D1F0613071058105DB
:100FC0009105F9F0DF91CF910895643071058105A5
:100FD000910561F124F1653071058105910591F765
:100FE000E881F9810480F581E02D66E006C0E881A2
:100FF000F9810480F581E02D64E0CE01DF91CF918D
:101000001994E881F9810480F581E02D65E0F5CF40
:10101000E881F9810480F581E02D61E0EECFE8817F
:10102000F9810480F581E02D63E0E7CFE881F98163
:101030000480F581E02D62E0E0CFDC01ED91FC91D0
:101040000480F581E02D43705527662777274230CD
:1010500051056105710571F0433051056105710558
:1010600059F0413051056105710511F065E01994A1
:1010700066E0FDCF6AE0FBCF69E0F9CFCF93DF9365
:10108000EC01CB01BA0123E030E040E050E00E94E7
:10109000252F613071058105910599F06230710548
:1010A00081059105A9F0672B682B692BC1F4E881B4
:1010B000F9810480F581E02D64E0CE01DF91CF91CC
:1010C0001994E881F9810480F581E02D61E0F5CF84
:1010D000E881F9810480F581E02D62E0EECFDF91B7
:1010E000CF910895DC01ED91FC910480F581E02D14
:1010F00043705527662777274230510561057105F2
:1011000071F0433051056105710559F041305105C9
:101110006105710511F062E0199463E0FDCF61E0B3
:10112000FBCF60E0F9CFCF93DF93EC01E881F98149
:101130000480F581E02D8A8160E0811162E0CE01BA
:101140001995E881F9810480F581E02D8A8161E0BB
:10115000811163E0CE0119958CA59DA58230910582
:1011600038F0880F991F880F991F05970197F1F79D
:10117000E881F9810480F581E02D8A8160E08111A8
:1011800062E0CE01DF91CF911994CF93DF93EC0110
:1011900020E030E0A9016C897D898E899F890E94B9
:1011A000F73018162CF4E8A9F9A9DF91CF9119941A
:1011B000EAA9FBA9FACFCF92DF92EF92FF920F93A9
:1011C0001F93CF93DF93DC011396CC91C43039F099
:1011D000C83059F1C33019F0C63049F1C2E08C0172
:1011E0000C5F1F4FF12CE12CC62ED12CD1E0F80161
:1011F0006481C6010E2C02C0959587950A94E2F78A
:1012000080FD6D270F5F1F4F80810E944404BFEF58
:10121000EB1AFB0AEC1658F3DF91CF911F910F9157
:10122000FF90EF90DF90CF900895C4E0D8CFC3E057
:10123000D6CFDC011396EC911397E93008F042C049
:10124000F0E08827E95DF64F8F4F0C94DA2F3009D4
:1012500038093F0946094D096209540962095B09C9
:10126000ED91FC9111970084F185E02DCD01199449
:10127000ED91FC9111970284F385E02DF7CFED916C
:10128000FC9111970484F585E02DF0CFED91FC9150
:1012900011970684F785E02DE9CFED91FC91119728
:1012A0000088F189E02DE2CFED91FC911197028841
:1012B000F389E02DDBCFED91FC9111970488F5893E
:1012C000E02DD4CF08954F925F926F927F928F92CC
:1012D0009F92AF92BF92CF92DF92EF92FF920F93C5
:1012E0001F93CF93DF93EC01C888D988EA88FB88E5
:1012F0008C859D85AE85BF85C81AD90AEA0AFB0A86
:101300006C897D898E899F899B01AC010E94512E39
:101310004B015C016C8D7D8D8E8D9F8D9B01AC0191
:101320000E94E32F9B01AC01C501B4010E944F3024
:101330000E94C130C114D104E104F10409F0B1C02C
:1013400062307105810591050CF0CBC01CA21DA275
:101350001EA21FA21C8A1D8A1E8A1F8A1CAA1DAAE1
:101360001EAA1FAADF91CF911F910F91FF90EF90BE
:10137000DF90CF90BF90AF909F908F907F906F90B5
:101380005F904F9008951016110612061306B4F4DC
:101390006C157D058E059F051CF42A812111A1C0C5
:1013A0009B01AC0188279927DC01821B930BA40BBE
:1013B000B50B8CAB9DABAEABBFAB93C001151105AC
:1013C0002105310509F48DC06C157D058E059F053D
:1013D0000CF087C08A81882309F483C0309520955A
:1013E000109501951F4F2F4F3F4F0CAB1DAB2EABF0
:1013F0003FAB77C0011511052105310509F471C016
:101400008824992454018C189D08AE08BF086815DB
:1014100079058A059B050CF064C08A81811161C041
:10142000DDCFCCACDDACEEACFFACA7019601C701C3
:10143000B6010E94E32F2B013C01C501B4010E94BB
:10144000F22D20E030E040E850E40E94512E20E0F0
:1014500030E040E85FE30E94E32F9B01AC01C30151
:10146000B2010E944F309B01AC01C701B6010E943E
:10147000E22F3B016C01FE01E05CFF4FE080F18058
:10148000028113819701A8010E94F730181614F405
:1014900073018601C701D8018CAF9DAFAEAFBFAF5E
:1014A0003AC00CA91DA92EA93FA91C141D041E0495
:1014B0001F040CF468CF10161106120613060CF068
:1014C00099CF0027112798010C191D092E093F09F2
:1014D00060177107820793070CF062CF2A812111F0
:1014E0005FCF8CA89DA8AEA8BFA881149104A104C9
:1014F000B10409F096CF88AD99ADAAADBBAD8CAF64
:101500009DAFAEAFBFAF81E01C141D041E041F04CD
:101510000CF080E08A833FEF831A930AA30AB30A90
:101520008CAA9DAAAEAABFAACCACDDACEEACFFAC37
:10153000C701B6010E94C8306CA37DA38EA39FA3F0
:10154000A701960160E074E284E799E40E944F30BD
:101550006C8B7D8B8E8B9F8B2A81211103CF9058B2
:101560006C8B7D8B8E8B9F8BFDCEAF92BF92CF927B
:10157000DF92EF92FF920F931F93CF93DF936B0154
:101580007A01EC01C858D64F28813CE0389F800191
:10159000399F100D1124A0907709B12C27FF1FC08F
:1015A000FB011182108288818F5F88838881980176
:1015B000280F311D87FD3A95F6012A153B051CF4CD
:1015C00088818C30C4F180819181049680349C495B
:1015D00008F473C0F60180819181049670C08881FF
:1015E0009801280F311D87FD3A952A153B05DCF639
:1015F0008881A801480F511D87FD5A95FA01EE0F09
:10160000FF1FE40FF51FEE58F54F808186FFCBCF0B
:101610008881F801E80FF11D87FDFA95CF01EE0FE3
:10162000FF1FE80FF91FEE58F54F808160E08F73C0
:101630000E944404B8CF808191812881A801420F83
:10164000511D27FD5A959A01FA01EE0FFF1FE20F77
:10165000F31FEE58F54F21813281820F931FF7015E
:101660009183808388819801280F311D87FD3A95E9
:10167000F901EE0FFF1FE20FF31FEE58F54F8081C7
:1016800086FF22C08881080F111D87FD1A95F80179
:10169000EE0FFF1FE00FF11FEE58F54F808161E064
:1016A0008F73DF91CF911F910F91FF90EF90DF909B
:1016B000CF90BF90AF900C94440480E49CE9F70174
:1016C000918380838FEF8883DF91CF911F910F915A
:1016D000FF90EF90DF90CF90BF90AF900895209152
:1016E000750930917609280F311D81E02D3D354077
:1016F00008F080E00895FC0184818823E1F0818175
:10170000811119C081E0818382819381FC0140892C
:10171000518962897389403659476E4F7F4F59F01E
:1017200040E659E76EEF7FEFFC01408B518B628BF7
:10173000738B0C9463090895DF92EF92FF920F93DD
:101740001F93CF93DF937C01D62FD42EC0E00BE400
:1017500010E060E0F70182810E944404C801019713
:10176000F1F76D2F661F6627661FF70181810E94C2
:101770004404C8010197F1F761E0F70182810E94FA
:101780004404C8010197F1F7CF5FDD0FDC12E1CF10
:10179000DF91CF911F910F91FF90EF90DF9008950F
:1017A0001F93CF93DF93EC01162F60E088810E9496
:1017B000440444E060E8CE010E949C0B48E0612FA5
:1017C000CE010E949C0B61E08881DF91CF911F9137
:1017D0000C944404AF92BF92CF92DF92EF92FF92AB
:1017E0000F931F93CF93DF93EC01162F69017A01BA
:1017F00060E088810E94440443E060EACE010E94D8
:101800009C0B612F660F660F46E0CE010E949C0B79
:1018100010E09BE4A92EB12C60E08A810E94440470
:10182000C5010197F1F76C2D617089810E94440414
:10183000C5010197F1F761E08A810E944404C50166
:101840000197F1F71F5FF694E794D794C7940113BB
:10185000E3CF61E08881DF91CF911F910F91FF90DD
:10186000EF90DF90CF90BF90AF900C9444040F9313
:10187000FC01E60FF11D23A130E050E040E0660FCF
:1018800008E00E94EA0B0F9108959C014D3008F08A
:101890004BE0D901A60FB11D93969C91939791703F
:1018A000E42FF0E0E458FD4F8081982B93969C93B1
:1018B000C9010C94370CCF92DF92EF92FF920F93F5
:1018C0001F93CF93DF938C01EB01683E734010F0C0
:1018D000C7EED3E08AE0E82EF12CCE01B7010E94DA
:1018E000B22F6B01482F62E0C8010E94450CC6016F
:1018F000B7010E94B22F482F61E0C8010E94450C39
:10190000CE0164E670E00E94B22F462F60E0C8016D
:10191000DF91CF911F910F91FF90EF90DF90CF90CB
:101920000C94450C0F93FC01E60FF11D23A130E050
:1019300050E040E0660F08E00E94EA0B0F91089526
:101940009C01DC01A60FB11D93969C919397907119
:101950004F3008F04EE0E42FF0E0E259FD4F808177
:10196000982B93969C93C9010C94920CCF93DF9380
:10197000EC018DA18F7E90E1699FB0011124682B4D
:101980006DA38CA180618CA361E0CE010E94920CBA
:1019900060E0CE010E94D20C62E0CE01DF91CF91D7
:1019A0000C94920CCF93DF93EC018EA18F7E90E18B
:1019B000699FB0011124682B6EA38CA18F7E8CA32C
:1019C00061E0CE010E94920C60E0CE010E94B60C54
:1019D00063E0CE01DF91CF910C94920CCF92DF9215
:1019E000EF92FF920F931F93CF93DF93EC018B0144
:1019F0006031774214F00FE017E28AE0E82EF12C14
:101A0000C801B7010E94C62F6B01482F63E0CE01C9
:101A10000E94A00CC601B7010E94C62F482F62E0A9
:101A2000CE010E94A00CC80164E670E00E94C62F9F
:101A3000CB01B7010E94C62F482F61E0CE010E9462
:101A4000A00CC80168EE73E00E94C62F462F60E02C
:101A5000CE010E94A00C61E0CE01DF91CF911F91D9
:101A60000F91FF90EF90DF90CF900C94D20CCF931A
:101A7000DF93EC0161E089810E94720461E08A8158
:101A80000E94720461E088810E94720461E0888192
:101A90000E94440461E08A810E94440461E08981DB
:101AA0000E944404FE013396A3961192EC17FD07A1
:101AB000E1F7DF91CF910895E0917A03F0917B03F4
:101AC000309729F0DC014D915C9181E019940895E3
:101AD00041110BC0E0917A03F0917B03309729F01C
:101AE000DC014D915C9180E019940C945C0DDC015B
:101AF000E0917803F0917903309761F013968C911F
:101B00001397882339F04D915C91119712966C913F
:101B100081E019940895DC01E0917803F091790354
:101B2000309759F013968C911397811106C04D91FF
:101B30005C91119712966C91199408950E94A205D8
:101B40006093400A7093410A8093420A9093430A3B
:101B500008952091D9113091DA118217930710F46A
:101B60000C940F2F80E00895EF92FF920F931F9334
:101B7000CF93DF938B01040F151FEB017C01E61A55
:101B8000F70AC7018C0F9D1F0E94A90D8993C017EA
:101B9000D107B9F7DF91CF911F910F91FF90EF908F
:101BA00008950F931F93CF93DF938C01EB01F801FE
:101BB000808191819C012F5F3F4F318320830E9460
:101BC000A90D28813981A9014F5F5F4F598348834F
:101BD0002F5F334FF901808328813981283EF3E05C
:101BE0003F0760F48A3319F72050344FF90110820F
:101BF00081E0DF91CF911F910F91089580E0F9CF9F
:101C0000EF92FF920F931F93CF93DF93EC01E0903D
:101C1000D911F090DA11888199818C010F5F1F4FE3
:101C2000198308830E94A90DE016F10650F08A334B
:101C300091F781E0DF91CF911F910F91FF90EF908D
:101C4000089580E0F7CFFF920F931F93CF93DF9318
:101C5000F82E062FC7E0D0E010E061E0802F0E9450
:101C600044048F2D0E941B040C2E01C0880F0A947F
:101C7000EAF7182B60E0802F0E944404219768F750
:101C8000812FDF91CF911F910F91FF9008954F9277
:101C90005F926F927F928F929F92AF92BF92CF92FC
:101CA000DF92EF92FF920F931F93CF93DF9307E59D
:101CB0001BE07801D0E0C0E08091DF0B8C171D069F
:101CC00041F0F701819191917F010E94770D21965A
:101CD000F3CFD0E0C0E08091DF0B8C171D0671F5CB
:101CE00026E4A22E2AE0B22EF12CE12C80914E0A9D
:101CF0008E151F0409F476C0F501C191D1915F01E1
:101D000061E08B810E94440461E08A810E94440466
:101D10008E01095F1F4F4801D12CC12C8D818C157C
:101D20001D04A1F09CF06B818C810E94230EF401B4
:101D300081934F01FFEFCF1ADF0AF0CFF8018191B5
:101D400091918F010E948B0D2196C5CF60E08A8111
:101D50000E9444044801412CD12CC12C8D818C154A
:101D60001D04D1F0CCF0F40181914F01512C682E6B
:101D7000712C80FF05C0642D650DCE010E945C0DA5
:101D800075946794862D5394F8E05F12F0CF8FEF2F
:101D9000C81AD80A4F0EE2CF612C912C812C8D816C
:101DA00088151904D9F0D4F0F80181918F01712CB4
:101DB000C82ED12C80FD06C040E0672D660DCE01F7
:101DC0000E94680DD594C7948C2D7394F8E07F120F
:101DD000EFCF8FEF881A980A6F0EE1CF9FEFE91AC5
:101DE000F90A84CFDF91CF911F910F91FF90EF906F
:101DF000DF90CF90BF90AF909F908F907F906F902B
:101E00005F904F900C949E0D0F931F93CF93DF9391
:101E1000082F162FD42FC8E06D2F661F6627661F68
:101E2000802F0E944404DD0F61E0812F0E94440452
:101E300060E0812F0E944404C15071F7DF91CF917F
:101E40001F910F910895EF92FF920F931F93CF93DD
:101E5000DF931F921F92CDB7DEB78C0149832A838F
:101E6000660F771FF801E688F788EE0CFF1CCF019C
:101E7000801B910B8E159F0514F41192F8CF898168
:101E8000F801E60FF71F81838A81808360E0F80103
:101E900084890E9444041E141F046CF4F1E0EF1ABC
:101EA000F108F801EE0DFF1D4081F801628980897B
:101EB0000E94040FF0CF61E0F80184890F900F9029
:101EC000DF91CF911F910F91FF90EF900C944404FC
:101ED00077FD0DC0FC0126893789621773073CF432
:101EE00020E0411101C021E04CE00C94230F089543
:101EF000CF92DF92EF92FF920F931F93CF93DF93D6
:101F0000D82F81E9E82E83E0F82E10E000E08091E0
:101F1000900380171106A1F0F701C190D1907F01C5
:101F2000C0E0F601808D8C1741F06C2F70E04D2FD2
:101F3000C6010E94680FCF5FF4CF0F5F1F4FE7CF3E
:101F4000DF91CF911F910F91FF90EF90DF90CF9095
:101F500008950F931F93CF93DF93FC01208D2223CD
:101F6000F9F06217E8F4062F10E04423B1F0EC0119
:101F700086899789081719073CF42FEF240F4AE048
:101F8000B801CF010E94230F40E0B801CE01DF91DC
:101F9000CF911F910F910C94680F41E0B801F7CFDA
:101FA000DF91CF911F910F910895FF920F931F938F
:101FB000CF93DF93EC0160E088810E944404FB80B2
:101FC0000F2D10E00C5F1F4F0C0F1D1FFF2049F05D
:101FD000F80142918F0169818A810E94040FFA946D
:101FE000F5CF61E08881DF91CF911F910F91FF9034
:101FF0000C9444040E945003882359F081E080939C
:1020000062138093631380916413909165130C9411
:102010005E2D1092631390E080E008951F93CF939C
:10202000DF930E94FA0FEC010E94FA0F182F0E9412
:10203000FA0FCC0FDD1FCF56DC4F482F612F888160
:1020400099810E94A90FDF91CF911F910C949E0D51
:102050000C940E108F929F92AF92BF92CF92DF920C
:10206000EF92FF920F931F93CF93DF930E94FA0F8B
:102070008C010E94FA0FEC010E94A1035C010E94F6
:10208000FA0F6C010E94FA0F000F111FF801EF56B2
:10209000FC4F00811181F801208D222389F1912CC0
:1020A00048E07C01FF24DD27DD2488248A94840E07
:1020B000C701082C02C0959587950A94E2F780FF26
:1020C0001CC0F80186899789C817D907ACF4F501B7
:1020D000E90DF11DE081F0E0E951FC4F2491C601CA
:1020E000082C02C0959587950A94E2F780FD206838
:1020F000BE01C8010E94230F9394482D8110D5CFB3
:10210000DF91CF911F910F91FF90EF90DF90CF90D3
:10211000BF90AF909F908F900C949E0DCF930E9494
:10212000FA0FC82F0E94FA0FBC018C2F0E94AE0438
:10213000CF910C949E0D0E94FA0F20912B0B281723
:10214000190661F05CF0880F991FFC01E95EF44FFD
:10215000808191810E947B0B0C949E0D08950E94BA
:10216000FA0F20912B0B2817190611F10CF1880F8B
:10217000991FFC01E95EF44F0190F081E02D02808F
:10218000F381E02D1486158616861786108A118A2B
:10219000128A138A14AA15AA16AA17AA14A215A29B
:1021A00016A217A2148A158A168A178A0C949E0DF5
:1021B00008958F929F92AF92BF92CF92DF92EF924B
:1021C000FF921F93CF93DF930E94FA0FEC010E94BE
:1021D000FA0FBC018091160B8C171D0609F00CF448
:1021E000DCC0CC0FDD1FCE5FD44F0990D881C02D4D
:1021F000CD80DE800D2C000CEE08FF0889809A80CF
:10220000092C000CAA08BB082F813885032E000C6E
:10221000440B550B2C193D094E095F09072E000C84
:10222000880B990B681979098A099B090E94882FE4
:102230002B813C81032E000C440B550B28193909C6
:102240004A095B090E94252FBA01A9014C0D5D1DA9
:102250006E1D7F1D052E000C660B770B8D859E85F0
:10226000AF85B88984179507A607B70709F45CC03E
:102270004D875E876F87788B8985811155C08A85E8
:10228000803308F04FC0188161E0812F0E947204F2
:102290008A85282F30E0F901EE0FFF1FE20FF31FB0
:1022A000EE58F54F1F739081907C912B90831B8685
:1022B0001C862CE0622F0E94982F829FB00111246F
:1022C00030E020E0AB01420F531FFA01EE0FFF1F79
:1022D000E40FF51FEE58F54F908196FD16C02F5F65
:1022E0003F4F2C30310571F7813059F51092800045
:1022F00082E0809381001092850010928400B19A50
:1023000080916F00826080936F00EA858E2F90E04D
:10231000FC01EE0FFF1FE80FF91FEE58F54F80810B
:102320008064808381E08987DF91CF911F91FF9046
:10233000EF90DF90CF90BF90AF909F908F900C94D4
:102340009E0D823061F41092900080939100109263
:1023500095001092940088BB80937100D6CF833093
:1023600069F41092A00082E08093A1001092A50071
:102370001092A40089BB80937200C7CF8111C5CF92
:102380001092200182E08093210110922501109289
:1023900024018ABB80937300B8CFDF91CF911F9146
:1023A000FF90EF90DF90CF90BF90AF909F908F9075
:1023B0000895AF92BF92CF92DF92EF92FF920F9368
:1023C0001F93CF93DF9300D01F92CDB7DEB75C0190
:1023D00019821A821B821C82CE0101967C0110E0B8
:1023E00000E06C01F501808191819C012F5F3F4FDE
:1023F000318320830E94A90DF7018083F8018E327A
:1024000041F00F5F1F4F8FEFE81AF80A04301105F3
:1024100049F7EC0DFD1D1082C6010E945E2D0F9044
:102420000F900F900F90DF91CF911F910F91FF9020
:10243000EF90DF90CF90BF90AF900895FB01019097
:102440000020E9F73197AF01461B570BDC01ED91F6
:10245000FC910280F381E02D1994809198128823D9
:10246000A1F060916B138091691390916A130E949F
:10247000AE058091A012882341F065EC72E0809156
:10248000691390916A130E941E1210929F1210926B
:10249000981280E008958F929F92AF92BF92EF9230
:1024A000FF920F931F93CF93DF93CDB7DEB7A19722
:1024B0000FB6F894DEBF0FBECDBF7C01FA01CB0191
:1024C00019A2223008F42AE08E010F5D1F4F822EE0
:1024D000912CB12CA12CBF01A50194010E94572F72
:1024E000F901CA016A300CF5605DD8016E938D0167
:1024F000232B242B252B79F790E080E0109721F0F7
:10250000BD01C7010E941E12A1960FB6F894DEBF4E
:102510000FBECDBFDF91CF911F910F91FF90EF9034
:10252000BF90AF909F908F900895695CDECFCF935E
:10253000909198129923A9F0C82F60916C13809103
:10254000691390916A130E94AE054C2F50E070E021
:1025500060E02AE08091691390916A13CF910C9406
:102560004B12CF91089590919812911110C091E063
:102570009093981290939F12482F50E070E060E083
:102580002AE08091691390916A130C944B1208957C
:10259000EF92FF920F931F93CF93DF939091981236
:1025A00091112BC08B010E94B31280919812882345
:1025B000E1F060916C138091691390916A130E940D
:1025C000AE05E0906913F0906A13E801FE01649192
:1025D000662359F0D701ED91FC910190F081E02D37
:1025E000C70119952196892B89F7DF91CF911F910A
:1025F0000F91FF90EF900C942D1280E0DF91CF911E
:102600001F910F91FF90EF9008950E94A205609393
:10261000400A7093410A8093420A9093430A64E807
:1026200072E085E00C94C812CF93DF931092DF0B19
:102630001092560B10923F0A2091900330E0E1E98E
:10264000F3E090E080E02817390731F0A191B191D3
:1026500058961C920196F7CF109290034091160B5A
:1026600050E0C2E0DBE030E020E042175307D9F051
:10267000A991B99119968C911997882389F01A9686
:10268000EC911A978E2F90E0FC01EE0FFF1FE80FE0
:10269000F91FEE58F54F80818F7B808319961C922D
:1026A0002F5F3F4FE2CF1092160B20912B0B30E0A3
:1026B000E7E1FBE090E080E02817390729F0A191DD
:1026C000B1911C920196F8CF10922B0B20917603BA
:1026D00030E0E2E8F3E090E080E02817390759F0B5
:1026E000A191B191D4964C91D497442311F0D496F2
:1026F0001C920196F2CF109276031092710A2091EB
:10270000770330E0E8E8F3E090E080E0281739074D
:1027100059F0A191B19118964C911897442311F05A
:1027200018961C920196F2CF1092770320914E0AD0
:1027300030E0E6E4FAE090E080E0821793075CF492
:10274000A191B19116964C911697442311F01696CB
:102750001C920196F2CF10924E0A1092EE0910923E
:10276000ED091092450A68E872E085E0DF91CF91AB
:102770000C94C8126BE872E08FE00C94C8122091A0
:10278000750930917609820F932F911D90937609E8
:10279000809375098C3D954040F068EA74E085E0CF
:1027A0000E94C81290E080E00895C90187569C4FAE
:1027B0000895CF92DF92EF92FF920F931F93CF93E2
:1027C000DF939091560B943109F45EC07901142F78
:1027D000C62ED82E8FE10E946F0B81110DC067ECC1
:1027E00073E085E0DF91CF911F910F91FF90EF9003
:1027F000DF90CF900C94C8128FE10E94BF13EC01C0
:10280000892B09F01A820091560BE02FF0E0EE0FB1
:10281000FF1FE25DF44FD183C0831E821D82FC82C4
:10282000EB82D882C98285E0819FF0011124EB5AA6
:10283000FD4FDE01199601900D928A95E1F762E055
:102840008D2D0E94720462E089810E9472041E86AE
:10285000188A1F861A8A198A18861F8A188E198E56
:102860001A8E84EF91E0A0E0B0E08B8B9C8BAD8B57
:10287000BE8B81E08A8385EE94E190932D0B80934B
:102880002C0B0F5F0093560BDF91CF911F910F918F
:10289000FF90EF90DF90CF90089581E08093450AFC
:1028A0006EE872E081E10C94C812CF93DF930E942E
:1028B0009E0D8AE00E94B3128091ED099091EE097D
:1028C000892B91F18BE390E00E94A90DC82F809194
:1028D0009812882379F060916C138091691390911C
:1028E0006A130E94AE056C2F8091691390916A1350
:1028F0000E94AE05C1E0D0E08091ED099091EE0913
:10290000C817D90788F4CE01CB960E94A90D9091E3
:102910009812992339F0682F8091691390916A1366
:102920000E94AE052196E8CFDF91CF910C942D1235
:10293000CF93DF93209198122223A1F0EC016091B4
:102940006C138091691390916A130E94AE052097D1
:1029500049F0BE018091691390916A13DF91CF9184
:102960000C941E12DF91CF9108950E949E0D8AE073
:102970000E94B31285E492E00E9498148BE092E0EA
:102980000E94981480E092E00E94981488EC92E0F3
:102990000E9498140C942D120F931F93CF93DF93E2
:1029A000C82FD62F8A018DE10E94B312C8010E9460
:1029B00098148D2F0E9497128C2F0E949712DF91EE
:1029C000CF911F910F910C942D120F931F93CF93C2
:1029D000C82F8A0186E00E94B312C8010E94981491
:1029E0008C2F0E949712CF911F910F910C942D1252
:1029F0000F931F93CF93C82F8A0187E00E94B312D1
:102A0000C8010E9498148C2F0E949712CF911F9199
:102A10000F910C942D12CF92DF92EF92FF92CF93F1
:102A2000DF936C01EA018CE10E94B312CE010E9497
:102A3000981480919812882321F160916C138091F1
:102A4000691390916A130E94AE05C0916913D091E9
:102A50006A130D2C000CEE08FF082AE0B701A6014E
:102A6000F7FE0CC06DE2CE010E94AE05442755274B
:102A7000BA014C195D096E097F092AE0CE010E9456
:102A80004B12DF91CF91FF90EF90DF90CF900C949D
:102A90002D121F93CF93DF9385ED8093BC0080911F
:102AA0007F0990918009A0918109B09182090796D0
:102AB000A11DB11D23E0B695A795979587952A95F9
:102AC000D1F72091BC0024FD03C01092C70952C069
:102AD00040917F095091800960918109709182092C
:102AE000452B462B472B69F30097A105B10541F013
:102AF00025E32A95F1F700000197A109B109E1CF7B
:102B000080917E09C1E0C0937D09882399F1D0911D
:102B1000B8001091BA008091BC008A7B8093BC0001
:102B200060E084E10E94440460E085E10E94440486
:102B30001092C709C093C9091092C80961E084E1E5
:102B40000E94440461E085E10E9444048091B90040
:102B50008E7F8093B9008091B9008D7F8093B900FA
:102B600088E48093B80085E48093BC001093BA0099
:102B7000D093B800DF91CF911F9108954F925F924B
:102B80006F927F928F929F92AF92BF92CF92DF927D
:102B9000EF92FF92CF93DF93EC016A017B0120E07B
:102BA00030E0A901CB01B6010E94EB2D87FF04C0E4
:102BB000F7FAF094F7F8F0948C8C9D8CAE8CBF8C67
:102BC000A7019601C501B4010E94EB2D882309F4E9
:102BD00049C06CA97DA98EA99FA90E94F22D2B0145
:102BE0003C01A7019601C501B4010E944F309B0131
:102BF000AC01C301B2010E94512E0E94C1306CABE6
:102C00007DAB8EAB9FABA701960160E070E080E0EA
:102C100090E40E944F300E94023126E53EE04DE2F2
:102C20005FE30E94512E20E034E244E759E40E9421
:102C3000512E68AF79AF8AAF9BAFCC8EDD8EEE8E12
:102C4000FF8ECE01DF91CF91FF90EF90DF90CF907C
:102C5000BF90AF909F908F907F906F905F904F90BC
:102C60000C946309DF91CF91FF90EF90DF90CF90AC
:102C7000BF90AF909F908F907F906F905F904F909C
:102C800008958F929F92AF92BF92CF92DF92EF9270
:102C9000FF920F931F93CF93DF9390912B0B9A305A
:102CA00009F49DC0C22ED42EA62EB82E8AE00E9412
:102CB0006F0B811111C068E874E085E0DF91CF915E
:102CC0001F910F91FF90EF90DF90CF90BF90AF904A
:102CD0009F908F900C94C8128AE00E94BF137C01D1
:102CE000009711F0FC011082E0912B0BF0E0EE0F49
:102CF000FF1FE95EF44FF182E08284E40E946F0BD3
:102D000081117AC067E674E085E00E94C812F090F5
:102D10002B0BEF2DF0E0EE0FFF1FE95EF44FC080AC
:102D2000D180F601C281D38120E030E048EC53E449
:102D3000688D798D8A8D9B8D0E94EB2D8823E9F11A
:102D400080E090E0A8ECB3E4888F998FAA8FBB8FC6
:102D500080E090E4ACE1B5E4FE01E05CFF4F8083ED
:102D60009183A283B3838CA99DA9AEA9BFA918168C
:102D700019061A061B060CF56C897D898E899F89B8
:102D80009B01AC010E94512E4B015C016C8D7D8D2D
:102D90008E8D9F8D9B01AC010E94E32F9B01AC01A6
:102DA000C501B4010E944F300E94C1306CAB7DABB5
:102DB0008EAB9FABCE010E94630940E050E068E417
:102DC00074E4F601828193810E94BE1510161106EB
:102DD0001CF4C6010E947B0BF394F0922B0BDF9145
:102DE000CF911F910F91FF90EF90DF90CF90BF9008
:102DF000AF909F908F90089584E4CA1072C0DB104A
:102E000070C00E94BF13EC01892B09F459C08DE8F2
:102E100092E09983888381E08B831C861D861E86C1
:102E20001F86188A198A1A8A1B8A1C8A1D8A1E8A7A
:102E30001F8A80E090E0A0E8BFE3888F998FAA8F77
:102E4000BB8F1C8E1D8E1E8E1F8E88A399A3AAA3D6
:102E5000BBA31CA21DA21EA21FA221E030E03DA721
:102E60002CA72FEF2FA718A619A61AA61BA6DC823F
:102E7000CD8224E02E8325E02F831EA61CAA1DAA46
:102E80001EAA1FAA18AE19AE1AAE1BAE1CAE1DAEFE
:102E90001EAE1FAEFE01E05CFF4F80839183A283D4
:102EA000B3831A82188619861A861B86CE010E9461
:102EB000420740E050E060E87FE3CE010E94BE158B
:102EC000F701D383C283048381E08583002321F04B
:102ED00062E0802F0E94720481E0F70180831182FA
:102EE00016CF0E94BF13EC01892B51F38DE892E0BD
:102EF0009983888384E08B831C861D861E861F86AB
:102F0000188A198A1A8A1B8A1C8A1D8A1E8A1F8A95
:102F100080E090E0A0E8BFE3888F998FAA8FBB8FF5
:102F20001C8E1D8E1E8E1F8E88A399A3AAA3BBA3E1
:102F30001CA21DA21EA21FA221E030E03DA72CA7CB
:102F40002FEF2FA718A619A61AA61BA6CC82AD8212
:102F5000BE82DF8292CF0F931F93CF93DF930E94A5
:102F6000FA0FEC010E9450038823F1F181E0809375
:102F700062138093631380916413909165130E9490
:102F80007C2D20912B0B2C171D06A1F19CF1CC0F51
:102F9000DD1FC95ED44FE881F98111820681178156
:102FA000208531856017710782079307B9F0668322
:102FB0007783808791870280F381E02D00891189D2
:102FC00022893389601771078207930739F0608B74
:102FD000718B828B938BCF010E946309DF91CF911C
:102FE0001F910F910C949E0D1092631360E070E09E
:102FF000CB01C7CFDF91CF911F910F910895FF9221
:103000000F931F93CF93DF930E94FA0FEC010E945E
:10301000A1038C010E94FA0FF82ECC0FDD1FC857B8
:10302000DC4F0990D881C02D8885882369F16EEC2A
:1030300072E0C8010E94A32D01E010E0009709F1A1
:103040000E945E2D9885992391F0982F9770980192
:1030500001C0220F9A95EAF7869586958695FE011E
:10306000E80FF11D8481FF2049F0282B24836EECAA
:1030700072E090E080E00E94A32DE0CF209528230D
:10308000F5CFCE010E94D50FDF91CF911F910F9107
:10309000FF900C949E0D2F923F924F925F926F92F1
:1030A0007F928F929F92AF92BF92CF92DF92EF92D8
:1030B000FF920F931F93CF93DF9300D01F92CDB752
:1030C000DEB70E94FA0F0E94A1039A838983809140
:1030D0008203909183039C838B83FC0184A98823C2
:1030E00009F404C360ED72E089819A810E94A32DE6
:1030F0008C019AE0292E312C2AE0822E912CA12CD1
:10310000B12C0115110509F4F1C26DE370E0C8019D
:103110000E947C32C12CD12C7601009749F0FC0131
:103120001192CF010E945E2D6C01990FEE08FF08ED
:1031300062ED72E0C8010E948732892B11F5EB81A4
:10314000FC8182A9806882AB6FE0CF010E94370CBE
:10315000EB81FC8182A98F7B82AB84A18E7F84A3CB
:103160006FE0CF010E94370CB6018B819C810E94D9
:103170005B0C60ED72E090E080E00E94A32D8C017A
:10318000C0CF69ED72E0C8010E948732892B89F4B3
:10319000EB81FC8182A98F7782AB6FE0CF010E9427
:1031A000370CEB81FC8182A9806482AB84A18160B1
:1031B000D6CF61EE72E0C8010E948732892B49F5B3
:1031C0008601F8EECF16F3E0DF0610F007EE13E00D
:1031D000C801B1010E94B22F7B01482F65E08B81AD
:1031E0009C810E94450CC701B1010E94B22F482F5B
:1031F00064E08B819C810E94450CC80164E670E00C
:103200000E94B22F462F63E08B819C810E94450C67
:10321000B0CF68EE72E0C8010E948732892B09F0B6
:103220005CC030EAC31636E8D30631E0E306F104A9
:1032300038F08FE9C82E86E8D82EEE24E394F12CDE
:10324000C701B601A50194010E94572F29013A0137
:10325000462F6AE08B819C810E94450CC301B2011C
:10326000A50194010E94572F462F69E08B819C8114
:103270000E94450CC701B60124E630E040E050E072
:103280000E94572FCA01B901A50194010E94572F2E
:10329000462F68E08B819C810E94450CC701B601D6
:1032A00028EE33E040E050E00E94572FCA01B901F8
:1032B000A50194010E94572F462F67E08B819C81C6
:1032C0000E94450CC701B60120E137E240E050E022
:1032D0000E94572F422F66E097CF6FEE72E0C80131
:1032E0000E948732892B09F053C08601EB81FC8153
:1032F00081A990A927A52E7F9E7F8E7FF0E1CF1612
:10330000F7E2DF06E4F531EFC31638EDD30644F0FB
:10331000D7FC08C0CD28A9F5EB81FC8190AB0AC091
:1033200001EF18ED119501951109EB81FC8190AB2E
:1033300093A9892B81AB27A74CE06EE08B819C8100
:103340000E94450C4CE06DE08B819C810E94450CF5
:10335000C80164E670E00E94C62FCB01B1010E9453
:10336000C62F482F6CE08B819C810E94450CC801C0
:1033700068EE73E00E94C62F462F6BE045CF0FE04A
:1033800017E2EB81FC8133A9932B90AB832BD2CF37
:1033900065EF72E0C8010E948732892B09F03FC0B7
:1033A0008C2DEB81FC8191A920A937A543A98436F6
:1033B000A4F58D392CF0C7FC04C02E7F242B03C04C
:1033C0008DE981952E7FEB81FC8120AB9E7F942B34
:1033D00091AB316037A76AE00E94A42F182F492FC4
:1033E0006CE08B819C810E94450C412F6BE08B81AE
:1033F0009C810E94450CEB81FC8180A9817080AB8F
:1034000081A9817081AB6DE0CF010E94370C6EE025
:103410008B819C810E94370CACCE83E6CECF6CEFC3
:1034200072E0C8010E948732892BE9F41BE0C110C9
:103430001AE0412F60E08B819C810E94450C412F56
:1034400061E08B819C810E94450C412F62E08B8161
:103450009C810E94450CEB81FC8184A18E7F84A31A
:103460006FE0CF01D7CF67E073E0C8010E948732D9
:10347000892B91F41BE0C1101AE0412F63E08B818E
:103480009C810E94450C412F64E08B819C810E94AD
:10349000450C412F65E0B8CE62E173E0C8010E949F
:1034A0008732892BF1F41BE0C1101AE0412F66E04E
:1034B0008B819C810E94450C412F67E08B819C8110
:1034C0000E94450C412F68E08B819C810E94450C35
:1034D000412F69E08B819C810E94450C412F6AE05D
:1034E00093CE6DE173E0C8010E948732892B31F5DC
:1034F000EB81FC8181A9C11018C08E7F81AB1BE0DC
:10350000412F6BE08B819C810E94450C412F6CE028
:103510008B819C810E94450C412F6DE08B819C81A9
:103520000E94450C412F6EE06FCE8160EB81FC81E3
:1035300081AB80A98E7F80AB1AE0E2CF67E273E0B7
:10354000C8010E948732892B71F4EB81FC8186A12E
:103550008E7F91E0C11001C090E0892BEB81FC814E
:1035600086A363E07ECF61E373E0C8010E948732E7
:10357000892B71F4EB81FC8180A58E7F91E0C110D5
:1035800001C090E0892BEB81FC8180A765E069CFC9
:103590006BE373E0C8010E948732892B71F4EB81E1
:1035A000FC8186A58E7F91E0C11001C090E0892B3F
:1035B000EB81FC8186A76BE054CF65E473E0C80122
:1035C0000E948732892B09F0D4CDEB81FC8192A92E
:1035D0009F7D84A58E7FC11044C0906292AB8160B4
:1035E00084A76FE0CF010E94370C69E08B819C813A
:1035F0000E94370CEB81FC8182A98F7E82AB83A570
:103600008E7F83A76FE0CF010E94370C68E08B812B
:103610009C810E94370CEB81FC8182A9846082AB83
:1036200082A5816082A76FE0CF010E94370C67E01E
:103630008B819C810E94370CEB81FC8182A9877F62
:1036400082AB81A58E7F81A76FE0CF010E94370CEE
:1036500066E08B819C810E94370CEB81FC8110AE6F
:1036600088CDEB81FC8192AB84A76FE0CF010E94F3
:10367000370C69E08B819C810E94370CEB81FC81C7
:1036800082A9806182AB83A5816083A76FE0CF01AF
:103690000E94370C68E08B819C810E94370CEB8183
:1036A000FC8182A98B7F82AB82A58E7F82A76FE08F
:1036B000CF010E94370C67E08B819C810E94370C00
:1036C000EB81FC8182A9886082AB81A5816081A7A2
:1036D0006FE0CF010E94370C66E08B819C810E94D5
:1036E000370C31E0EB81FC8130AF43CD80917E031C
:1036F00090917F039C838B83FC0183A9882309F429
:1037000076C060ED72E089819A810E94A32D8C01C0
:10371000009709F46CC06DE370E00E947C32C12C0C
:10372000D12C7601009749F0FC011192CF010E9443
:103730005E2D6C01990FEE08FF0862E573E0C80189
:103740000E948732892B51F4B6018B819C810E94A3
:10375000EE0C60ED72E090E080E0D7CF69E573E0B9
:10376000C8010E948732892B91F4B601F0E1CF168F
:10377000F7E2DF0614F06FE077E28B819C810E9414
:10378000EE0C61E08B819C810E94B60CE2CF60E67A
:1037900073E0C8010E948732892BD9F6CD28C9F47D
:1037A0004DE060E08B819C810E94A00C4DE061E0C7
:1037B0008B819C810E94A00C4DE062E08B819C81FA
:1037C0000E94A00C4DE063E08B819C810E94A00CC4
:1037D000C0CF45E060E08B819C810E94A00C4BE053
:1037E00061E08B819C810E94A00C4CE0E6CF0F90A1
:1037F0000F900F900F90DF91CF911F910F91FF903D
:10380000EF90DF90CF90BF90AF909F908F907F9080
:103810006F905F904F903F902F900C949E0DDF9291
:10382000EF92FF920F931F93CF93DF938C01EB01E5
:103830007B01E40EF51ED990C8010E940F2FD81607
:1038400021F06D2DC8010E94172F0F5F1F4FEC163E
:10385000FD0689F7DF91CF911F910F91FF90EF90B7
:10386000DF900895CF93DF930E949E0D0E94A103E5
:10387000BC01EC0109900020E9F72197C81BD90B86
:10388000DD272091ED093091EE09C90101968C0FD9
:103890009D1F883D9540E0F5AE014F5F5F4FC90128
:1038A000CB96FA01E80FF91F2091D9113091DA1166
:1038B000E217F30710F40E940F1C4091ED0950919C
:1038C000EE09C40FD51FD093EE09C093ED09809186
:1038D000981281113FC085E00E94B3128091981226
:1038E000882391F060916C138091691390916A1311
:1038F0000E94AE05AE0170E060E02AE0809169139D
:1039000090916A130E944B12DF91CF910C942D126B
:103910008091981281111EC085E00E94B31280919F
:103920009812882389F360916C13809169139091A8
:103930006A130E94AE05C0916913D0916A136DE2BB
:10394000CE010E94AE052AE041E050E060E070E068
:10395000CE01D8CFDF91CF910895CF93DF931F92FF
:103960001F92CDB7DEB70E94A103FC0190E3ABE04C
:10397000B2E001900D929A95E1F783E290E09A838C
:1039800089838091D9119091DA11029748F041E032
:1039900050E0BE016F5F7F4F90E080E00E940F1CFF
:1039A0008091D9119091DA11C19740F04FE250E027
:1039B0006BE072E081E090E00E940F1C8091981211
:1039C000811109C085E00E94B3128BE092E00E9451
:1039D00098140E942D120F900F90DF91CF910895AF
:1039E000CF92DF92EF92FF92CF93C82F4BE050E03F
:1039F00060E072E080E390E00E94B40DC11109C064
:103A000080910002833529F4809101028E3409F4FB
:103A100066C086E30E948505BC01990F880B990B4F
:103A2000611571058105910511F00E94552D0E94C7
:103A3000062DCC24CA942FE0D22EE12CF12CA70124
:103A400096010E94252F7F936F9387E693E09F93C3
:103A50008F9380E092E09F938F930E9490320E9418
:103A6000062DA70196010E94252F7F936F9380E773
:103A700093E09F938F9387E092E09F938F930E94B0
:103A800090328DB79EB70C960FB6F8949EBF0FBEBE
:103A90008DBF8091D9119091DA11CC9700F14BE054
:103AA00050E060E072E080E390E00E940F1CC111E2
:103AB00016C08091D9119091DA11CC9780F08BE3E8
:103AC00090E00E940F2F882351F060E08BE390E09C
:103AD000CF91FF90EF90DF90CF900C94172FCF9164
:103AE000FF90EF90DF90CF90089581E00E94F01C4E
:103AF00080919812811109C08AE00E94B31280E07F
:103B000092E00E9498140C942D1208952F923F92E7
:103B10004F925F926F927F928F929F92AF92BF92DD
:103B2000CF92DF92EF92FF920F931F93CF93DF9389
:103B300000D01F92CDB7DEB78091ED099091EE09CC
:103B4000892B09F490C48BE390E09A8389831C82CB
:103B50001B82CE0101960E94D911882309F483C4E7
:103B600010E1D12E03E0C02E9CE0792E24EB822EB2
:103B7000912CEFEFE80FEC3008F09DC00E2E000CFA
:103B8000FF0B8827E953F24E8F4F0C94DA2FD31D89
:103B9000DF1F291E601E3E1F8D1F0720F21F671F9B
:103BA0005421FA20C321CE0101960E94D911B82ECA
:103BB0008091DF0B8434A1F184E00E946F0B61E9F6
:103BC00072E0882309F4FFC3EB80FC8084E00E944C
:103BD000BF138C01009789F0DC011296BC921297FA
:103BE000C7018F5F934F11969C938E9381E013963C
:103BF0008C9362E08B2D0E9472048091DF0BE82F82
:103C0000F0E0EE0FFF1FE95AF44F11830083E8EF55
:103C1000F4E1F0937903E09378038F5F8093DF0BF7
:103C2000BE016D5F7F4FCE0101960E94D10D182F0E
:103C3000CE0101960E94D911882309F411C41111F3
:103C400098CF1092E80F6DEA73E085E00E94C812E9
:103C50000AC4CE0101960E94D911F82E80913F0A24
:103C6000883249F182E00E946F0B6FEA72E088238C
:103C700009F44AC082E00E94BF138C01009771F0E2
:103C8000DC01FC9211961C9261E08F2D0E9472045F
:103C9000F801618170E080810E94AE0480913F0A4A
:103CA000E82FF0E0EE0FFF1FE151F64F1183008384
:103CB0008F5F80933F0ACE0101960E94000EB7CF1E
:103CC000CE0101960E94D911382ECE0101960E9494
:103CD000D911582ECE0101960E94D911482ECE013D
:103CE00001960E94D911A82ECE0101960E94D911E9
:103CF000682E809190038430F1F289E10E946F0B6D
:103D0000811106C06DEC72E085E00E94C812D3CF2D
:103D100089E10E94BF138C01009719F0DC015896CD
:103D20001C92E32C032C000CFF08B0909003EB2DA9
:103D3000F0E0EE0FFF1FEF56FC4F11830083F801F8
:103D4000F18AE08A842D440C990B938B828B852D0C
:103D5000550C990B958B848B262D2150330B2830D5
:103D6000310508F45CC088E090E0D80157969C9338
:103D70008E93569761E0832D0E94720461E0F801F2
:103D800082890E94720461E0D80154968C910E944D
:103D9000720461E0F80184890E944404D8015196BC
:103DA000FC92EE925097F12CE12CF80186899789CC
:103DB000E816F906B4F520E04FE0B701C8010E940B
:103DC000230FD80156968D919C91E816F90634F48C
:103DD00027E04BE0B701C8010E94230F20E049E033
:103DE000B701C8010E94230FF80186899789E81658
:103DF000F90664F45524539420E0452DB701C80119
:103E00000E94230F5394F9E05F12F6CF41E0B7010F
:103E1000C8010E94680F2FEFE21AF20AC6CF862D62
:103E2000A3CF608EF12CE12CF801808D8E151F043C
:103E300009F14A2D6E2DC8010E94A90F40E0B7017B
:103E4000C8010E94680FD80156968D919C91E81682
:103E5000F90664F46624639420E0462DB701C80196
:103E60000E94230F6394B9E06B12F6CFEFEFEE1AC6
:103E7000FE0ADACFB394B09290031DCFCE01019623
:103E80000E94D911F82ECE0101960E94D911182F47
:103E9000CE0101960E94D911082FCE0101960E94F1
:103EA000D911E82ECE0101960E94D9112E2DEE0CCB
:103EB000330B402F000F550B612F110F770B10E0C4
:103EC00000E08F2DFF0C990B0E944116F4CECE011D
:103ED00001960E94D911F82ECE0101960E94D911A7
:103EE000182FCE0101960E94D911E82ECE0101961D
:103EF0000E94D911B82ECE0101960E94D911082E28
:103F0000000C990B2B2DBB0C330B4E2DEE0C550BCF
:103F1000612F110F770B8C01D4CFCE0101960E9437
:103F2000D911182F8091160B8A3009F4C4CE87E17D
:103F30000E946F0B6EEE72E0882309F4E5CE87E1F4
:103F40000E94BF13FC01892BB9F08091770980335F
:103F500098F591E0980F90937709828790E0DC01C3
:103F6000AA0FBB1FA80FB91FAE58B54F28EB3BE0F7
:103F700012963C932E9311978091160BA82FB0E0C8
:103F8000AA0FBB1FAE5FB44FED93FC93118615864D
:103F900016861786108A118A128A138A148A128248
:103FA0001182948283821682158290868782108382
:103FB0008F5F8093160B7FCE3FEF3287DDCFCE0130
:103FC00001960E94D911182FCE0101960E94D91195
:103FD0002B813C812F5F334F40E0682F812F0E945F
:103FE000D9131ECECE0101960E94D911182FCE01F1
:103FF00001960E94D911082FCE0101960E94D91175
:104000002B813C812F5F334F482F602FE7CFCE01AC
:1040100001960E94D911CE0101960E94D911CE01BC
:1040200001960E94D911082F813009F084C01091A7
:104030007603133009F43FCE89E30E946F0B6CE0E6
:1040400073E0882309F460CE89E390E00E94573141
:104050007C01EDE0DC01EC93F8E01196FC93119704
:1040600012967C921297D3960C93D397E12FF0E09F
:10407000EE0FFF1FEE57FC4F918380832DE0D59606
:104080002C93D597D6967C92D69738E0D7963C93CA
:10409000D797D4960C930E94370D60E3C7010E9416
:1040A000D00B62E5C7010E94D00B62E0C7010E94FD
:1040B000D00B66E0C7010E94D00BB12C04E020E0D9
:1040C00030E0A9016B2DC7010E94EA0BB39480E296
:1040D000B812F4CFF701B396DF012D2D1D922A956A
:1040E000E9F761E08AE00E94720461E08AE00E94E0
:1040F0004404D701D2968C91D2978160D2968C934A
:104100006FE0C7010E94370CF70182A9826082AB81
:104110006FE0C7010E94370CD70197968C91979753
:10412000816097968C9364E0C7010E94370C1F5FF3
:1041300010937603C0CD823009F0BDCD1091760387
:10414000133009F4B8CD87E30E946F0B68E273E087
:10415000882309F4D9CD87E390E00E9457317C0190
:10416000FC01008324E02183C282E12FF0E0EE0F06
:10417000FF1FE458FC4F91838083DC01D4960C939D
:10418000D497D596CC92D597D6962C93D69781E096
:10419000D3968C93C7010E94370D60E3C7010E943C
:1041A000D00B62E5C7010E94D00B62E0C7010E94FC
:1041B000D00B66E0C7010E94D00BB12C04E020E0D8
:1041C00030E0A9016B2DC7010E94EA0BB394B0E265
:1041D000BB12F4CFF701B396DF012D2D1D922A9566
:1041E000E9F761E087E00E94720461E087E00E94E5
:1041F00044049DCFCE0101960E94D911B82ECE0164
:1042000001960E94D911A82E8091710A803109F47B
:1042100007CD8DE10E946F0B64E473E0882309F4FD
:10422000D2C0EB80FC808DE10E94BF138C0100970F
:1042300039F1FC013696DF012D2D1D922A95E9F703
:10424000DC0157961C921E92569758961C925897CE
:104250001596AC9215971296BC921297C7018F5F74
:10426000934F11969C938E9314961C921E921397C3
:1042700062E08B2D0E947204F80182810E94850504
:104280008091710AE82FF0E0EE0FFF1FEF5AF54F13
:10429000118300832BE035E13093500A20934F0ABD
:1042A0008F5F8093710ABCCCCE0101960E94D91118
:1042B000A82ECE0101960E94D911482ECE0101965A
:1042C0000E94D911582ECE0101960E94D911682E54
:1042D00080917703843009F4EECC89E00E946F0B63
:1042E00064E673E0882309F40FCD89E00E94BF13D0
:1042F0008C01B0907703EB2CF12CEE0CFF1CF70136
:10430000E857FC4F1183008381E0D80118968C9305
:104310001897AC9211964C92119712965C92129744
:1043200013966C9261E08A2D0E94720461E0F8019C
:1043300081810E94720461E0D80112968C910E94E2
:104340007204F8019381349680E0981719F0119265
:104350008F5FFBCFC8010E94D50FF701E857FC4FD4
:1043600080819181DC0113963C91FC01349620E020
:10437000321719F011922F5FFBCF0E94D50FB39423
:10438000B092770398CCCE0101960E94D911582E95
:10439000CE0101960E94D911282ECE0101960E94CD
:1043A000D911382ECE0101960E94D911482E809144
:1043B0004E0A843009F434CC8BE00E946F0B8111DB
:1043C00006C069E873E085E00E94C81229CCAB8082
:1043D000BC808BE00E94BF138C01009731F0FC0180
:1043E0001682178210861186128660904E0AE62C7D
:1043F000F12CEE0CFF1C97012A5B354F7901D90196
:104400000D931C93F801528223823482C5018F5F81
:10441000934F91838083458261E0852D0E947204D1
:1044200061E0D80113968C910E94720460E0F8015B
:1044300084810E94720481E0D80116968C93D70182
:10444000ED91FC911782108611861286ECECF4E156
:10445000F0937B03E0937A03639460924E0AE0CB7F
:10446000112309F4EECB0F900F900F900F90DF9176
:10447000CF911F910F91FF90EF90DF90CF90BF9061
:10448000AF909F908F907F906F905F904F903F90F4
:104490002F9008950E94861D0C944D141F920F9228
:1044A0000FB60F9211242F933F938F939F93AF9347
:1044B000BF938091FD0B9091FE0BA091FF0BB091EB
:1044C000000C3091FC0B23E0230F2D3758F501969B
:1044D000A11DB11D2093FC0B8093FD0B9093FE0B4F
:1044E000A093FF0BB093000C8091F80B9091F90B07
:1044F000A091FA0BB091FB0B0196A11DB11D809309
:10450000F80B9093F90BA093FA0BB093FB0BBF91B0
:10451000AF919F918F913F912F910F900FBE0F9070
:104520001F90189526E8230F0296A11DB11DD2CF2A
:104530001F920F920FB60F9211240BB60F922F936A
:104540003F934F935F936F937F938F939F93AF931B
:10455000BF93EF93FF938BED91E10E942E06FF91A5
:10456000EF91BF91AF919F918F917F916F915F91EB
:104570004F913F912F910F900BBE0F900FBE0F9058
:104580001F9018951F920F920FB60F9211240BB621
:104590000F922F935F936F937F938F939F93AF931C
:1045A000BF93EF93FF93E091EB11F091EC118081B9
:1045B000E091F111F091F21182FD26C020818091ED
:1045C000F41190E0019660E670E00E94B22F9091A5
:1045D000F511981741F0E091F411F0E0E552FE4E2C
:1045E000258F8093F411FF91EF91BF91AF919F912F
:1045F0008F917F916F915F912F910F900BBE0F90D4
:104600000FBE0F901F9018958081EDCF1F920F92D3
:104610000FB60F9211240BB60F922F933F934F9327
:104620005F936F937F938F939F93AF93BF93EF931A
:10463000FF938091B900887F803609F44DC008F05F
:1046400040C0883209F4A7C028F5803109F49BC026
:10465000C8F4882309F4F7C0883009F494C0FF91A6
:10466000EF91BF91AF919F918F917F916F915F91EA
:104670004F913F912F910F900BBE0F900FBE0F9057
:104680001F901895883109F486C0803241F78093D5
:10469000C60914C0803409F49BC040F48033B9F3D8
:1046A0008833E9F68093C60985ECAEC0803509F4FD
:1046B00083C0883509F494C0883489F60E9449156E
:1046C000CECF883909F48AC038F5883729F050F4FC
:1046D000883611F0803719F683E08093C70910926D
:1046E000C50955C0883809F479C0803919F0803877
:1046F00009F0B5CF8091C509803208F06FC0E09114
:10470000C50981E08E0F8093C5098091BB00F0E060
:10471000EB55F64F80833BC0803B39F0D0F4803AB4
:1047200009F477C0883A09F09ACF84E08093C709EA
:104730001092A4091092A309F0E0E0E0199580918D
:10474000A30981110FC081E08093A309109283090E
:1047500009C0803C09F4A8CF883C09F4A5CF883B68
:1047600009F07DCFE091A40981E08E0F8093A40928
:10477000F0E0ED57F64F80818093BB009091A40943
:104780008091A30929C08091EC098093BB0085EC3E
:104790008093BC0064CF9091EB098091EA0998174F
:1047A00058F5E091EB0981E08E0F8093EB09F0E082
:1047B000E653F64F8081E9CFE091EB0981E08E0F5F
:1047C0008093EB098091BB00F0E0E653F64F8083C5
:1047D0009091EB098091EA099817C8F285E8D8CF43
:1047E000E091EB0981E08E0F8093EB098091BB0093
:1047F000F0E0E653F64F80838091C90981115ECFC6
:1048000081E08093C80984EA8093BC001092C709B4
:1048100026CF85EC8093BC001092C7098091C50912
:10482000803230F4E091C509F0E0EB55F64F10828C
:104830006091C50970E085EA99E0F0E0E0E0199543
:104840001092C5090CCF1092C60938CF1F920F9253
:104850000FB60F9211240BB60F922F933F934F93E5
:104860005F936F937F938F939F93AF93BF93EF93D8
:10487000FF9348E251E064E271E090E080E00E9442
:10488000B50AFF91EF91BF91AF919F918F917F9169
:104890006F915F914F913F912F910F900BBE0F90B1
:1048A0000FBE0F901F9018951F920F920FB60F9288
:1048B00011240BB60F922F933F934F935F936F93F7
:1048C0007F938F939F93AF93BF93EF93FF9348EAA8
:1048D00050E064EA70E083E090E00E94B50AFF9146
:1048E000EF91BF91AF919F918F917F916F915F9168
:1048F0004F913F912F910F900BBE0F900FBE0F90D5
:104900001F9018951F920F920FB60F9211240BB69D
:104910000F922F933F934F935F936F937F938F9358
:104920009F93AF93BF93EF93FF9348E950E064E9FF
:1049300070E082E090E00E94B50AFF91EF91BF9194
:10494000AF919F918F917F916F915F914F913F9127
:104950002F910F900BBE0F900FBE0F901F901895C8
:104960001F920F920FB60F9211240BB60F922F9336
:104970003F934F935F936F937F938F939F93AF93E7
:10498000BF93EF93FF9348E850E064E870E081E064
:1049900090E00E94B50AFF91EF91BF91AF919F9176
:1049A0008F917F916F915F914F913F912F910F90D8
:1049B0000BBE0F900FBE0F901F9018951092DE1136
:1049C0001092DD1188EE93E0A0E0B0E08093DF115B
:1049D0009093E011A093E111B093E21187EB92E084
:1049E0009093DC118093DB1185EC90E09093E811BB
:1049F0008093E71184EC90E09093EA118093E911A1
:104A000080EC90E09093EC118093EB1181EC90E0BE
:104A10009093EE118093ED1182EC90E09093F01161
:104A20008093EF1186EC90E09093F2118093F11156
:104A30001092F4111092F5111092F6111092F711D4
:104A400080E090E19093DA118093D91110926F1366
:104A500010926E138BED91E190936A13809369131A
:104A60001092A0128CE280936C138BE380936B13F3
:104A70008FE280936D1380E680939B128FE5809385
:104A80009C1210929A121092651310926413109255
:104A900067131092661381E080936213E0E7F3E1FD
:104AA0001192119283E1EC3AF807D1F710929F121C
:104AB0000895CF93DF9300D000D000D01F921F92B3
:104AC000CDB7DEB7789484B5826084BD84B581604B
:104AD00084BD85B5826085BD85B5816085BD8091C9
:104AE0006E00816080936E00109281008091810041
:104AF0008260809381008091810081608093810039
:104B0000809180008160809380008091B1008460FA
:104B10008093B1008091B00081608093B00080915B
:104B200091008260809391008091910081608093D8
:104B30009100809190008160809390008091A1000D
:104B400082608093A1008091A10081608093A10088
:104B50008091A00081608093A000809121018260FB
:104B600080932101809121018160809321018091B6
:104B7000200181608093200180917A00846080937D
:104B80007A0080917A00826080937A0080917A0026
:104B9000816080937A0080917A00806880937A00A7
:104BA0001092C100E091EB11F091EC1182E0808352
:104BB000E091E711F091E8111082E091E911F09194
:104BC000EA1180E180831092F311E091EF11F091EE
:104BD000F01186E08083E091ED11F091EE1180817B
:104BE00080618083E091ED11F091EE118081886009
:104BF0008083E091ED11F091EE11808180688083D7
:104C0000E091ED11F091EE1180818F7D808385E040
:104C100093E190936F1380936E138EE090E19093E5
:104C20007113809370138AE290E1909373138093D1
:104C3000721388E290E19093A5138093A4138EE8F9
:104C400090E190937513809374138BEA97E190939E
:104C50007713809376138BE990E190939B13809365
:104C60009A138FEA90E190939D1380939C1389EDA2
:104C700090E1909379138093781385EB94E190936E
:104C800083138093821385E594E190938913809335
:104C9000881382E39CE1909387138093861384E1C9
:104CA00093E190938B1380938A138AEB93E1909313
:104CB0008D1380938C138AE492E2909391138093E6
:104CC00090138DEA9CE1909397138093961385E758
:104CD0009DE1909399138093981387E49EE09093BD
:104CE0009F1380939E138BE498E19093A31380937A
:104CF000A2138FEF97E19093A7138093A61381E0FF
:104D00008093A01280E00E94F01C0E949E0DE09013
:104D1000D911F090DA111092EE091092ED098BE39F
:104D200090E08C010F5F1F4F0E94A90D482F20912A
:104D3000ED093091EE09C90101969093EE09809337
:104D4000ED09E016F10608F026C16FEB74E085E08E
:104D50000E94C812198241E050E0BE016F5F7F4F90
:104D600090E080E00E94B40D8981833241F44FE2EB
:104D700050E06BE072E081E090E00E94B40D0E9490
:104D8000A2056093F40B7093F50B8093F60B909350
:104D9000F70B0E94A2056093F00B7093F10B8093C8
:104DA000F20B9093F30B0E94A2050E94A2056C5F88
:104DB0007F4F8F4F9F4F6093E40B7093E50B809371
:104DC000E60B9093E70B0E94A2056C5F7F4F8F4F1D
:104DD0009F4F6093E80B7093E90B8093EA0B9093DD
:104DE000EB0B0E94A2056A5F7F4F8F4F9F4F60932E
:104DF000E00B7093E10B8093E20B9093E30B0E9426
:104E0000A205685F7F4F8F4F9F4F6093EC0B7093AD
:104E1000ED0B8093EE0B9093EF0B48E5242E42E0D0
:104E2000342E54EB452E512C612C712C80919F1205
:104E30008111CFC08091691390916A13DC01ED91CB
:104E4000FC910084F185E02D1995892B09F4C1C0EE
:104E50008091691390916A13DC01ED91FC910084BB
:104E6000F185E02D199530E6C32ED12C80369105C1
:104E700064F48091691390916A13DC01ED91FC91C7
:104E80000084F185E02D19956C0100916913109152
:104E90006A1321E0A22E23E1B22E4501F12CE12C70
:104EA000CE14DF0429F10E94A205F8016087718702
:104EB00082879387D801ED91FC910284F385E02DE0
:104EC000C801199597FF29C50E94A205F801208500
:104ED000318542855385621B730B840B950B2481AE
:104EE000358146815781621773078407950710F350
:104EF00010E000E0C016D10609F498CFD5019D91CD
:104F00005D011092611330916D1320919E12909368
:104F10009E12931304C0921302C010929E128091AD
:104F20009A12E82FF0E040916B13E856FD4E94136F
:104F30003EC03217E1F11186882329F0B1E0B09329
:104F4000611310929E1210929A1210926513109291
:104F500064131092671310926613E1E0E0936213FA
:104F600080916113813091F50E94FA0F809399121C
:104F70008E3130F520916313222311F1FC01FF27BC
:104F8000EE0FFF1FE059FC4E0190F081E02D3097AD
:104F9000B9F019951BC0C8014111C3CE3093EE0979
:104FA0002093ED090E94861D0E944D14D3CE918757
:104FB0008F5F80939A1290919C12891720F6D0CF20
:104FC000E0916E13F0916F13309719F70F5F1F4F39
:104FD00091CFC090400AD090410AE090420AF090F0
:104FE000430A8091440A81119FC40E94A2056C1952
:104FF0007D098E099F09613A7B4B8D409105E8F050
:1050000081E08093440A0FEE19E0F12CE12C8091AD
:105010003F0A8E151F0471F0D801ED91FD918D01AD
:10502000118270E060E080810E94AE04BFEFEB1A55
:10503000FB0AEDCF81E00E94780F8091450A88231A
:1050400009F468C40E94A2050091F40B1091F50BBD
:105050002091F60B3091F70B601B710B820B930BB9
:105060006A30710581059105B8F10E94A20560932F
:10507000F40B7093F50B8093F60B9093F70B07E509
:10508000C02E0BE0D02E10E000E08091DF0B8017E7
:10509000110611F1F601E190F1906F01D70112961E
:1050A0008C910E941B04F7019381891761F091E0B4
:1050B000811101C090E0D70113969C93811108C023
:1050C000C7010E948B0D0F5F1F4FDFCF80E0B3CF72
:1050D000C7010E94770DF7CF0E94A2050091F00B47
:1050E0001091F10B2091F20B3091F30B60177107C7
:1050F0008207930709F450C10E94A2056093F00B48
:105100007093F10B8093F20B9093F30B1EE2812EC0
:105110001BE0912EB12CA12C8091560B8A151B04FB
:1051200009F43AC1F401C190D1904F01DB86CA86DF
:10513000D60112968C911297882309F4E9C08C91BC
:105140000E941B046C01EA85FB8581810E941B047F
:105150007C010E94A205AB01BC0181E090E0EF2838
:1051600011F090E080E0880F991F21E0CD2809F030
:1051700020E0022F082BAA85BB855B96CD90DD90A1
:10518000ED90FC905E97DB01CA018C199D09AE0978
:10519000BF0985369105A105B10508F4BDC0AA85F2
:1051A000BB8518968C911897823008F4B5C0FD0124
:1051B000438F548F658F768F81508087AA85BB85FA
:1051C0001E96EC911E970E1709F461C01896DC909C
:1051D000B6E0BD1508F0BFC023E330E03B832A836F
:1051E000AA85BB851D96EC90B4E0EB02F00111247A
:1051F000A02F002E000CBB0BEA2BFB2BED55FD4F17
:10520000E0811E2F2A813B811203C001139F900D64
:1052100011249C010E2C02C0220F331F0A94E2F7C6
:10522000EA85FB8587859089FC01E20FF31FF887EB
:10523000EF839F01EA85FB85308B2787AE0FBF1F69
:1052400019962C912223F9F083899489A589B6892E
:10525000878B908FA18FB28F438B548B658B768B0E
:105260008F81988502C095958795EA94E2F7928B95
:10527000818B8D2D8C3008F08BE0DD24D394D80EFB
:10528000EA85FB85D086AA85BB851E960C93EA85A8
:10529000FB85E188F28885819681E816F906C1F1DF
:1052A0006701C81AD90AC601E0912C0BF0912D0BA9
:1052B000CC0CDD1C309709F46CC0AA85BB85139615
:1052C0004D915C9114979C012F5C3F4F2336310523
:1052D00008F054C097FD44C06C9180E01995CE0C45
:1052E000DF1CB1E4CB16BFE1DB0664F0EA85FB8589
:1052F0008785908983709927908B8787128A118A76
:10530000F12CE12CAA85BB851696FC92EE9215979E
:10531000BFEFAB1ABB0A00CFAA85BB855796CD90CD
:10532000DD90ED90FC905A97DB01CA018C199D0924
:10533000AE09BF09853F9140A105B10508F43ECFF4
:10534000AA85BB855B964D935D936D937C935E9729
:1053500018961C9233CF81E090E09B838A8340CFE4
:10536000AA85BB8511966C9182E01995C7018C19AD
:105370009D09803C904E0CF4B9CFC4CFAA85BB8563
:1053800097FD03C06C9181E0A9CF11966C9183E0E9
:10539000ECCF97FDEBCFA3CFE7E1FBE0FB83EA8304
:1053A000F12CE12C80912B0B8E151F0409F4A1C068
:1053B000AA81BB810D911D91BB83AA83F801C28094
:1053C000D380F60184A195A1A6A1B7A1892B8A2B30
:1053D0008B2B09F45DC09FB7F8948090F80B9090E8
:1053E000F90BA090FA0BB090FB0B86B5A89B07C0F9
:1053F0008F3F29F0FFEF8F1A9F0AAF0ABF0A9FBFA6
:10540000BA2CA92C982C8824880E911CA11CB11CA4
:1054100072E0880C991CAA1CBB1C7A95D1F7F60186
:1054200080A591A5A2A5B3A5B501A401481B590B60
:105430006A0B7B0B84A195A1A6A1B7A148175907B8
:105440006A077B0728F184859585A685B785228123
:10545000222309F44AC00196A11DB11D84879587B6
:10546000A687B787D6011C964D915D916D917C9171
:105470001F97ED91FC910680F781E02DC6011995EB
:10548000F60180A691A6A2A6B3A6C6010E94630952
:10549000D80114968C910E941B04F80195818917FC
:1054A00001F1858381111DC081818823D1F00280A3
:1054B000F381E02D1486158616861786108A118AC8
:1054C000128A138A14AA15AA16AA17AA14A215A238
:1054D00016A217A2148A158A168A178AD80111965D
:1054E0001C92BFEFEB1AFB0A5DCF0197A109B1092E
:1054F000B5CF0E94A2050091EC0B1091ED0B20910D
:10550000EE0B3091EF0B601B710B820B930B653030
:1055100071058105910508F4AEC00E94A205609353
:10552000EC0B7093ED0B8093EE0B9093EF0B52E02E
:10553000C52E5BE0D52EF12CE12C8091160B8E153B
:105540001F0409F498C0F601019111916F01F8014F
:1055500081899289A389B489458556856785708933
:1055600084179507A607B70709F47DC048175907A0
:105570006A077B070CF07BC00197A109B109818BF9
:10558000928BA38BB48BF801A189B289A032F2E08F
:10559000BF07BCF5F801838598E8892E912C881AFD
:1055A000910887FD9394880C991C880C991C092CF0
:1055B000000CAA08BB0884859101281B310987FDCE
:1055C0003395220F331F220F331F032E000C440B81
:1055D000550B281939094A095B09A53BB10514F097
:1055E000A4EBB0E0B7FF02C0B0E0A0E00E944F2FF4
:1055F000A30192010E94252F820E931EA41EB51EA8
:10560000D401F8012285203370F5838548E850E005
:10561000481B510987FD5395CA01880F991F880FB0
:10562000991FA817B9077CF08485F101E81BF109DF
:1056300087FDF395CF01880F991F880F991FA81731
:10564000B9070CF4CD010297880F991F4FB7F89452
:1056500030E0F901EE0FFF1FE20FF31FEE58F54F98
:10566000928381834FBFFFEFEF1AFF0A66CF019647
:10567000A11DB11D84CF0E94A2050091E80B1091DD
:10568000E90B2091EA0B3091EB0B601B710B820B45
:10569000930B623371058105910508F449C00E949E
:1056A000A2056093E80B7093E90B8093EA0B90934B
:1056B000EB0B61E5E62E6AE0F62E10E000E080914B
:1056C000710A80171106A1F1F701A191B1917F0133
:1056D00056968D919C91579753E0969587955A953C
:1056E000E1F713962D913C9114976C01C21AD30ADD
:1056F0009601D7FE03C031952195310915964C913D
:1057000015974217130609F084F414969C938E9310
:105710001397E0914F0AF091500A309731F04D9174
:105720005C91119712966C9119950F5F1F4FC7CF1F
:105730000E94A2050091E40B1091E50B2091E60B6D
:105740003091E70B601B710B820B930B6A30710574
:105750008105910508F466C00E94A2056093E40BE0
:105760007093E50B8093E60B9093E70B41E5C42E15
:105770004AE0D42EF12CE12C8091710A8E151F0481
:1057800009F450C0D6010D911D916D01D8015896B4
:10579000EC915897F0E03396EE0FFF1FE00FF11FEA
:1057A00056968D919C91579720813181821B930B46
:1057B00057969C938E93569712968C910E948505CE
:1057C000D8015896EC915897F0E03396EE0FFF1FF2
:1057D000E00FF11F918380835896EC915897F0E089
:1057E0003396EE0FFF1FE00FF11F56968D919C919F
:1057F000579720813181820F931F57969C938E93E8
:10580000569758968C9158978F5F58968C935897C7
:1058100058968C915897877058968C93BFEFEB1AD7
:10582000FB0AAACF0E94A2050091E00B1091E10BA8
:105830002091E20B3091E30B601771078207930709
:1058400009F468C00E94A2056093E00B7093E10B1D
:105850008093E20B9093E30BE6E4FAE0F887EF83A2
:10586000D12CC12C80914E0A8C151D0409F452C014
:10587000AF81B8850D911D91B887AF8361E0F801C4
:1058800083810E94440461E0D80112968C910E94A9
:1058900044045801B7E0AB0EB11CF12CE12CF80127
:1058A00085818E151F0471F16CF1638184810E94E2
:1058B000230E982ED5018D905D018815F9F0BE2D2F
:1058C000BB0FBB0FBB0FB9878A831E828A818825D5
:1058D00080FF08C04A8141706985EE816E0FC80162
:1058E0000E94680D8694FA81F695FA832E812F5FC7
:1058F0002E83283059F7F501319790823FEFE31A54
:10590000F30ACDCF60E082810E944404BFEFCB1A3E
:10591000DB0AA8CF0E94BD0689CAF40181934F011A
:10592000FFEFEF1AFF0ABCCA0E94A2056C197D099D
:105930008E099F09603A7B4B8D40910508F07DCB25
:105940001092440A8FEEE82E89E0F82E10E000E075
:1059500080913F0A8017110609F4B8CBD701ED9169
:10596000FD917D01618170E080810E94AE040F5F36
:105970001F4FEECF8F929F92AF92BF92CF92DF9246
:10598000EF92FF92CF93DF93EC01688179818A8156
:105990009B81611571058105910521F464E279ED22
:1059A0008BE597E02DE133EF41E050E00E94252F99
:1059B00049015A019B01AC01A7EAB1E40E94442FBE
:1059C0006B017C01ACEEB4EFA50194010E94522F53
:1059D000C60ED71EE81EF91EF7FE06C081E0C81AE3
:1059E000D108E10880E8F80AC882D982EA82FB82FD
:1059F000C701B6019F77DF91CF91FF90EF90DF90C5
:105A0000CF90BF90AF909F908F9008958F929F926C
:105A1000AF92BF92CF92DF92EF92FF9260913B02E2
:105A200070913C0280913D0290913E02611571059A
:105A30008105910521F464E279ED8BE597E02DE194
:105A400033EF41E050E00E94252F49015A019B01AC
:105A5000AC01A7EAB1E40E94442F6B017C01ACEEDB
:105A6000B4EFA50194010E94522FC60ED71EE81E66
:105A7000F91EF7FE06C081E0C81AD108E10880E8E7
:105A8000F80AC0923B02D0923C02E0923D02F092B2
:105A90003E02C701B6019F77FF90EF90DF90CF9055
:105AA000BF90AF909F908F90089560933B0270934A
:105AB0003C0280933D0290933E020895FC018827AA
:105AC0009927E89421912032E9F3293010F02E3003
:105AD000C8F32B3241F02D3239F4689404C00E948F
